{
	"contracts/LotteryFive.sol": {
		"LotteryFive": {
			"abi": [
				{
					"inputs": [],
					"stateMutability": "nonpayable",
					"type": "constructor"
				},
				{
					"anonymous": false,
					"inputs": [
						{
							"indexed": true,
							"internalType": "address",
							"name": "from",
							"type": "address"
						},
						{
							"indexed": true,
							"internalType": "address",
							"name": "to",
							"type": "address"
						}
					],
					"name": "OwnershipTransferRequested",
					"type": "event"
				},
				{
					"anonymous": false,
					"inputs": [
						{
							"indexed": true,
							"internalType": "address",
							"name": "from",
							"type": "address"
						},
						{
							"indexed": true,
							"internalType": "address",
							"name": "to",
							"type": "address"
						}
					],
					"name": "OwnershipTransferred",
					"type": "event"
				},
				{
					"inputs": [],
					"name": "acceptOwnership",
					"outputs": [],
					"stateMutability": "nonpayable",
					"type": "function"
				},
				{
					"inputs": [
						{
							"internalType": "uint256",
							"name": "_round",
							"type": "uint256"
						}
					],
					"name": "checkWinner",
					"outputs": [
						{
							"internalType": "address",
							"name": "",
							"type": "address"
						}
					],
					"stateMutability": "view",
					"type": "function"
				},
				{
					"inputs": [],
					"name": "contractBalance",
					"outputs": [
						{
							"internalType": "uint256",
							"name": "",
							"type": "uint256"
						}
					],
					"stateMutability": "view",
					"type": "function"
				},
				{
					"inputs": [],
					"name": "currentRound",
					"outputs": [
						{
							"internalType": "uint256",
							"name": "",
							"type": "uint256"
						}
					],
					"stateMutability": "view",
					"type": "function"
				},
				{
					"inputs": [],
					"name": "join",
					"outputs": [],
					"stateMutability": "payable",
					"type": "function"
				},
				{
					"inputs": [],
					"name": "owner",
					"outputs": [
						{
							"internalType": "address",
							"name": "",
							"type": "address"
						}
					],
					"stateMutability": "view",
					"type": "function"
				},
				{
					"inputs": [],
					"name": "performDraw",
					"outputs": [
						{
							"internalType": "uint256",
							"name": "",
							"type": "uint256"
						}
					],
					"stateMutability": "nonpayable",
					"type": "function"
				},
				{
					"inputs": [
						{
							"internalType": "uint256",
							"name": "_requestId",
							"type": "uint256"
						},
						{
							"internalType": "uint256[]",
							"name": "_randomWords",
							"type": "uint256[]"
						}
					],
					"name": "rawFulfillRandomWords",
					"outputs": [],
					"stateMutability": "nonpayable",
					"type": "function"
				},
				{
					"inputs": [
						{
							"internalType": "uint256",
							"name": "_round",
							"type": "uint256"
						}
					],
					"name": "redeemPrize",
					"outputs": [],
					"stateMutability": "nonpayable",
					"type": "function"
				},
				{
					"inputs": [
						{
							"internalType": "uint256",
							"name": "",
							"type": "uint256"
						}
					],
					"name": "roundsCompleted",
					"outputs": [
						{
							"internalType": "uint256",
							"name": "",
							"type": "uint256"
						}
					],
					"stateMutability": "view",
					"type": "function"
				},
				{
					"inputs": [
						{
							"internalType": "address",
							"name": "to",
							"type": "address"
						}
					],
					"name": "transferOwnership",
					"outputs": [],
					"stateMutability": "nonpayable",
					"type": "function"
				},
				{
					"inputs": [],
					"name": "withdraw",
					"outputs": [],
					"stateMutability": "nonpayable",
					"type": "function"
				},
				{
					"inputs": [],
					"name": "withdrawLink",
					"outputs": [],
					"stateMutability": "nonpayable",
					"type": "function"
				}
			],
			"devdoc": {
				"kind": "dev",
				"methods": {},
				"version": 1
			},
			"evm": {
				"assembly": "    /* \"contracts/LotteryFive.sol\":2898:7479  contract LotteryFive is VRF {... */\n  mstore(0x40, 0xc0)\n    /* \"contracts/LotteryFive.sol\":1034:1040  100000 */\n  0x0186a0\n    /* \"contracts/LotteryFive.sol\":1008:1040  uint32 callbackGasLimit = 100000 */\n  0x05\n  exp(0x0100, 0x00)\n  dup2\n  sload\n  dup2\n  0xffffffff\n  mul\n  not\n  and\n  swap1\n  dup4\n  0xffffffff\n  and\n  mul\n  or\n  swap1\n  sstore\n  pop\n    /* \"contracts/LotteryFive.sol\":1134:1135  3 */\n  0x03\n    /* \"contracts/LotteryFive.sol\":1104:1135  uint16 requestConfirmations = 3 */\n  0x05\n  exp(0x0100, 0x04)\n  dup2\n  sload\n  dup2\n  0xffff\n  mul\n  not\n  and\n  swap1\n  dup4\n  0xffff\n  and\n  mul\n  or\n  swap1\n  sstore\n  pop\n    /* \"contracts/LotteryFive.sol\":1289:1290  1 */\n  0x01\n    /* \"contracts/LotteryFive.sol\":1271:1290  uint32 numWords = 1 */\n  0x05\n  exp(0x0100, 0x06)\n  dup2\n  sload\n  dup2\n  0xffffffff\n  mul\n  not\n  and\n  swap1\n  dup4\n  0xffffffff\n  and\n  mul\n  or\n  swap1\n  sstore\n  pop\n    /* \"contracts/LotteryFive.sol\":1366:1408  0x779877A7B0D9E8603169DdbD7836e478b4624789 */\n  0x779877a7b0d9e8603169ddbd7836e478b4624789\n    /* \"contracts/LotteryFive.sol\":1344:1408  address linkAddress = 0x779877A7B0D9E8603169DdbD7836e478b4624789 */\n  0x05\n  exp(0x0100, 0x0a)\n  dup2\n  sload\n  dup2\n  0xffffffffffffffffffffffffffffffffffffffff\n  mul\n  not\n  and\n  swap1\n  dup4\n  0xffffffffffffffffffffffffffffffffffffffff\n  and\n  mul\n  or\n  swap1\n  sstore\n  pop\n    /* \"contracts/LotteryFive.sol\":1490:1532  0xab18414CD93297B0d12ac29E63Ca20f515b3DB46 */\n  0xab18414cd93297b0d12ac29e63ca20f515b3db46\n    /* \"contracts/LotteryFive.sol\":1465:1532  address wrapperAddress = 0xab18414CD93297B0d12ac29E63Ca20f515b3DB46 */\n  0x06\n  exp(0x0100, 0x00)\n  dup2\n  sload\n  dup2\n  0xffffffffffffffffffffffffffffffffffffffff\n  mul\n  not\n  and\n  swap1\n  dup4\n  0xffffffffffffffffffffffffffffffffffffffff\n  and\n  mul\n  or\n  swap1\n  sstore\n  pop\n    /* \"contracts/LotteryFive.sol\":3621:3899  constructor() VRF() {... */\n  callvalue\n  dup1\n  iszero\n  tag_1\n  jumpi\n  0x00\n  dup1\n  revert\ntag_1:\n  pop\n    /* \"contracts/LotteryFive.sol\":1579:1589  msg.sender */\n  caller\n    /* \"@chainlink/contracts/src/v0.8/shared/access/ConfirmedOwner.sol\":355:363  newOwner */\n  dup1\n    /* \"@chainlink/contracts/src/v0.8/shared/access/ConfirmedOwner.sol\":373:374  0 */\n  0x00\n    /* \"contracts/LotteryFive.sol\":1625:1636  linkAddress */\n  0x05\n  0x0a\n  swap1\n  sload\n  swap1\n  0x0100\n  exp\n  swap1\n  div\n  0xffffffffffffffffffffffffffffffffffffffff\n  and\n    /* \"contracts/LotteryFive.sol\":1638:1652  wrapperAddress */\n  0x06\n  0x00\n  swap1\n  sload\n  swap1\n  0x0100\n  exp\n  swap1\n  div\n  0xffffffffffffffffffffffffffffffffffffffff\n  and\n    /* \"@chainlink/contracts/src/v0.8/vrf/VRFV2WrapperConsumerBase.sol\":2169:2174  _link */\n  dup2\n    /* \"@chainlink/contracts/src/v0.8/vrf/VRFV2WrapperConsumerBase.sol\":2143:2175  LINK = LinkTokenInterface(_link) */\n  0xffffffffffffffffffffffffffffffffffffffff\n  and\n  0x80\n  dup2\n  0xffffffffffffffffffffffffffffffffffffffff\n  and\n  dup2\n  mstore\n  pop\n  pop\n    /* \"@chainlink/contracts/src/v0.8/vrf/VRFV2WrapperConsumerBase.sol\":2220:2233  _vrfV2Wrapper */\n  dup1\n    /* \"@chainlink/contracts/src/v0.8/vrf/VRFV2WrapperConsumerBase.sol\":2181:2234  VRF_V2_WRAPPER = VRFV2WrapperInterface(_vrfV2Wrapper) */\n  0xffffffffffffffffffffffffffffffffffffffff\n  and\n  0xa0\n  dup2\n  0xffffffffffffffffffffffffffffffffffffffff\n  and\n  dup2\n  mstore\n  pop\n  pop\n    /* \"@chainlink/contracts/src/v0.8/vrf/VRFV2WrapperConsumerBase.sol\":2087:2239  constructor(address _link, address _vrfV2Wrapper) {... */\n  pop\n  pop\n    /* \"@chainlink/contracts/src/v0.8/shared/access/ConfirmedOwnerWithProposal.sol\":618:619  0 */\n  0x00\n    /* \"@chainlink/contracts/src/v0.8/shared/access/ConfirmedOwnerWithProposal.sol\":598:620  newOwner != address(0) */\n  0xffffffffffffffffffffffffffffffffffffffff\n  and\n    /* \"@chainlink/contracts/src/v0.8/shared/access/ConfirmedOwnerWithProposal.sol\":598:606  newOwner */\n  dup3\n    /* \"@chainlink/contracts/src/v0.8/shared/access/ConfirmedOwnerWithProposal.sol\":598:620  newOwner != address(0) */\n  0xffffffffffffffffffffffffffffffffffffffff\n  and\n  sub\n    /* \"@chainlink/contracts/src/v0.8/shared/access/ConfirmedOwnerWithProposal.sol\":590:649  require(newOwner != address(0), \"Cannot set owner to zero\") */\n  tag_9\n  jumpi\n  mload(0x40)\n  0x08c379a000000000000000000000000000000000000000000000000000000000\n  dup2\n  mstore\n  0x04\n  add\n  tag_10\n  swap1\n  tag_11\n  jump\t// in\ntag_10:\n  mload(0x40)\n  dup1\n  swap2\n  sub\n  swap1\n  revert\ntag_9:\n    /* \"@chainlink/contracts/src/v0.8/shared/access/ConfirmedOwnerWithProposal.sol\":666:674  newOwner */\n  dup2\n    /* \"@chainlink/contracts/src/v0.8/shared/access/ConfirmedOwnerWithProposal.sol\":656:663  s_owner */\n  0x00\n  dup1\n    /* \"@chainlink/contracts/src/v0.8/shared/access/ConfirmedOwnerWithProposal.sol\":656:674  s_owner = newOwner */\n  0x0100\n  exp\n  dup2\n  sload\n  dup2\n  0xffffffffffffffffffffffffffffffffffffffff\n  mul\n  not\n  and\n  swap1\n  dup4\n  0xffffffffffffffffffffffffffffffffffffffff\n  and\n  mul\n  or\n  swap1\n  sstore\n  pop\n    /* \"@chainlink/contracts/src/v0.8/shared/access/ConfirmedOwnerWithProposal.sol\":708:709  0 */\n  0x00\n    /* \"@chainlink/contracts/src/v0.8/shared/access/ConfirmedOwnerWithProposal.sol\":684:710  pendingOwner != address(0) */\n  0xffffffffffffffffffffffffffffffffffffffff\n  and\n    /* \"@chainlink/contracts/src/v0.8/shared/access/ConfirmedOwnerWithProposal.sol\":684:696  pendingOwner */\n  dup2\n    /* \"@chainlink/contracts/src/v0.8/shared/access/ConfirmedOwnerWithProposal.sol\":684:710  pendingOwner != address(0) */\n  0xffffffffffffffffffffffffffffffffffffffff\n  and\n  eq\n    /* \"@chainlink/contracts/src/v0.8/shared/access/ConfirmedOwnerWithProposal.sol\":680:759  if (pendingOwner != address(0)) {... */\n  tag_12\n  jumpi\n    /* \"@chainlink/contracts/src/v0.8/shared/access/ConfirmedOwnerWithProposal.sol\":720:752  _transferOwnership(pendingOwner) */\n  tag_13\n    /* \"@chainlink/contracts/src/v0.8/shared/access/ConfirmedOwnerWithProposal.sol\":739:751  pendingOwner */\n  dup2\n    /* \"@chainlink/contracts/src/v0.8/shared/access/ConfirmedOwnerWithProposal.sol\":720:738  _transferOwnership */\n  shl(0x20, tag_14)\n    /* \"@chainlink/contracts/src/v0.8/shared/access/ConfirmedOwnerWithProposal.sol\":720:752  _transferOwnership(pendingOwner) */\n  0x20\n  shr\n  jump\t// in\ntag_13:\n    /* \"@chainlink/contracts/src/v0.8/shared/access/ConfirmedOwnerWithProposal.sol\":680:759  if (pendingOwner != address(0)) {... */\ntag_12:\n    /* \"@chainlink/contracts/src/v0.8/shared/access/ConfirmedOwnerWithProposal.sol\":481:763  constructor(address newOwner, address pendingOwner) {... */\n  pop\n  pop\n    /* \"@chainlink/contracts/src/v0.8/shared/access/ConfirmedOwner.sol\":298:379  constructor(address newOwner) ConfirmedOwnerWithProposal(newOwner, address(0)) {} */\n  pop\n    /* \"contracts/LotteryFive.sol\":3667:3668  1 */\n  0x01\n    /* \"contracts/LotteryFive.sol\":3652:3664  currentRound */\n  0x08\n    /* \"contracts/LotteryFive.sol\":3652:3668  currentRound = 1 */\n  dup2\n  swap1\n  sstore\n  pop\n    /* \"contracts/LotteryFive.sol\":3679:3708  RoundState storage roundState */\n  0x00\n    /* \"contracts/LotteryFive.sol\":3711:3722  roundStates */\n  0x0a\n    /* \"contracts/LotteryFive.sol\":3711:3736  roundStates[currentRound] */\n  0x00\n    /* \"contracts/LotteryFive.sol\":3723:3735  currentRound */\n  sload(0x08)\n    /* \"contracts/LotteryFive.sol\":3711:3736  roundStates[currentRound] */\n  dup2\n  mstore\n  0x20\n  add\n  swap1\n  dup2\n  mstore\n  0x20\n  add\n  0x00\n  keccak256\n    /* \"contracts/LotteryFive.sol\":3679:3736  RoundState storage roundState = roundStates[currentRound] */\n  swap1\n  pop\n    /* \"contracts/LotteryFive.sol\":3751:3757  uint i */\n  0x00\n    /* \"contracts/LotteryFive.sol\":3747:3892  for(uint i = 0; i < 5; i++) {... */\ntag_18:\n    /* \"contracts/LotteryFive.sol\":3767:3768  5 */\n  0x05\n    /* \"contracts/LotteryFive.sol\":3763:3764  i */\n  dup2\n    /* \"contracts/LotteryFive.sol\":3763:3768  i < 5 */\n  lt\n    /* \"contracts/LotteryFive.sol\":3747:3892  for(uint i = 0; i < 5; i++) {... */\n  iszero\n  tag_19\n  jumpi\n    /* \"contracts/LotteryFive.sol\":3790:3810  Member memory member */\n  0x00\n    /* \"contracts/LotteryFive.sol\":3813:3834  Member(address(0), 0) */\n  mload(0x40)\n  dup1\n  0x40\n  add\n  0x40\n  mstore\n  dup1\n    /* \"contracts/LotteryFive.sol\":3828:3829  0 */\n  0x00\n    /* \"contracts/LotteryFive.sol\":3813:3834  Member(address(0), 0) */\n  0xffffffffffffffffffffffffffffffffffffffff\n  and\n  dup2\n  mstore\n  0x20\n  add\n    /* \"contracts/LotteryFive.sol\":3832:3833  0 */\n  0x00\n    /* \"contracts/LotteryFive.sol\":3813:3834  Member(address(0), 0) */\n  dup2\n  mstore\n  pop\n    /* \"contracts/LotteryFive.sol\":3790:3834  Member memory member = Member(address(0), 0) */\n  swap1\n  pop\n    /* \"contracts/LotteryFive.sol\":3849:3859  roundState */\n  dup3\n    /* \"contracts/LotteryFive.sol\":3849:3867  roundState.members */\n  0x00\n  add\n    /* \"contracts/LotteryFive.sol\":3873:3879  member */\n  dup2\n    /* \"contracts/LotteryFive.sol\":3849:3880  roundState.members.push(member) */\n  swap1\n  dup1\n  0x01\n  dup2\n  sload\n  add\n  dup1\n  dup3\n  sstore\n  dup1\n  swap2\n  pop\n  pop\n  0x01\n  swap1\n  sub\n  swap1\n  0x00\n  mstore\n  keccak256(0x00, 0x20)\n  swap1\n  0x02\n  mul\n  add\n  0x00\n  swap1\n  swap2\n  swap1\n  swap2\n  swap1\n  swap2\n  pop\n  0x00\n  dup3\n  add\n  mload\n  dup2\n  0x00\n  add\n  exp(0x0100, 0x00)\n  dup2\n  sload\n  dup2\n  0xffffffffffffffffffffffffffffffffffffffff\n  mul\n  not\n  and\n  swap1\n  dup4\n  0xffffffffffffffffffffffffffffffffffffffff\n  and\n  mul\n  or\n  swap1\n  sstore\n  pop\n  0x20\n  dup3\n  add\n  mload\n  dup2\n  0x01\n  add\n  sstore\n  pop\n  pop\n    /* \"contracts/LotteryFive.sol\":3775:3892  {... */\n  pop\n    /* \"contracts/LotteryFive.sol\":3770:3773  i++ */\n  dup1\n  dup1\n  tag_22\n  swap1\n  tag_23\n  jump\t// in\ntag_22:\n  swap2\n  pop\n  pop\n    /* \"contracts/LotteryFive.sol\":3747:3892  for(uint i = 0; i < 5; i++) {... */\n  jump(tag_18)\ntag_19:\n  pop\n    /* \"contracts/LotteryFive.sol\":3641:3899  {... */\n  pop\n    /* \"contracts/LotteryFive.sol\":2898:7479  contract LotteryFive is VRF {... */\n  jump(tag_24)\n    /* \"@chainlink/contracts/src/v0.8/shared/access/ConfirmedOwnerWithProposal.sol\":1536:1775  function _transferOwnership(address to) private {... */\ntag_14:\n    /* \"@chainlink/contracts/src/v0.8/shared/access/ConfirmedOwnerWithProposal.sol\":1655:1665  msg.sender */\n  caller\n    /* \"@chainlink/contracts/src/v0.8/shared/access/ConfirmedOwnerWithProposal.sol\":1649:1665  to != msg.sender */\n  0xffffffffffffffffffffffffffffffffffffffff\n  and\n    /* \"@chainlink/contracts/src/v0.8/shared/access/ConfirmedOwnerWithProposal.sol\":1649:1651  to */\n  dup2\n    /* \"@chainlink/contracts/src/v0.8/shared/access/ConfirmedOwnerWithProposal.sol\":1649:1665  to != msg.sender */\n  0xffffffffffffffffffffffffffffffffffffffff\n  and\n  sub\n    /* \"@chainlink/contracts/src/v0.8/shared/access/ConfirmedOwnerWithProposal.sol\":1641:1693  require(to != msg.sender, \"Cannot transfer to self\") */\n  tag_26\n  jumpi\n  mload(0x40)\n  0x08c379a000000000000000000000000000000000000000000000000000000000\n  dup2\n  mstore\n  0x04\n  add\n  tag_27\n  swap1\n  tag_28\n  jump\t// in\ntag_27:\n  mload(0x40)\n  dup1\n  swap2\n  sub\n  swap1\n  revert\ntag_26:\n    /* \"@chainlink/contracts/src/v0.8/shared/access/ConfirmedOwnerWithProposal.sol\":1717:1719  to */\n  dup1\n    /* \"@chainlink/contracts/src/v0.8/shared/access/ConfirmedOwnerWithProposal.sol\":1700:1714  s_pendingOwner */\n  0x01\n  0x00\n    /* \"@chainlink/contracts/src/v0.8/shared/access/ConfirmedOwnerWithProposal.sol\":1700:1719  s_pendingOwner = to */\n  0x0100\n  exp\n  dup2\n  sload\n  dup2\n  0xffffffffffffffffffffffffffffffffffffffff\n  mul\n  not\n  and\n  swap1\n  dup4\n  0xffffffffffffffffffffffffffffffffffffffff\n  and\n  mul\n  or\n  swap1\n  sstore\n  pop\n    /* \"@chainlink/contracts/src/v0.8/shared/access/ConfirmedOwnerWithProposal.sol\":1767:1769  to */\n  dup1\n    /* \"@chainlink/contracts/src/v0.8/shared/access/ConfirmedOwnerWithProposal.sol\":1731:1770  OwnershipTransferRequested(s_owner, to) */\n  0xffffffffffffffffffffffffffffffffffffffff\n  and\n    /* \"@chainlink/contracts/src/v0.8/shared/access/ConfirmedOwnerWithProposal.sol\":1758:1765  s_owner */\n  0x00\n  dup1\n  sload\n  swap1\n  0x0100\n  exp\n  swap1\n  div\n  0xffffffffffffffffffffffffffffffffffffffff\n  and\n    /* \"@chainlink/contracts/src/v0.8/shared/access/ConfirmedOwnerWithProposal.sol\":1731:1770  OwnershipTransferRequested(s_owner, to) */\n  0xffffffffffffffffffffffffffffffffffffffff\n  and\n  0xed8889f560326eb138920d842192f0eb3dd22b4f139c87a2c57538e05bae1278\n  mload(0x40)\n  mload(0x40)\n  dup1\n  swap2\n  sub\n  swap1\n  log3\n    /* \"@chainlink/contracts/src/v0.8/shared/access/ConfirmedOwnerWithProposal.sol\":1536:1775  function _transferOwnership(address to) private {... */\n  pop\n  jump\t// out\n    /* \"#utility.yul\":7:176   */\ntag_29:\n    /* \"#utility.yul\":91:102   */\n  0x00\n    /* \"#utility.yul\":125:131   */\n  dup3\n    /* \"#utility.yul\":120:123   */\n  dup3\n    /* \"#utility.yul\":113:132   */\n  mstore\n    /* \"#utility.yul\":165:169   */\n  0x20\n    /* \"#utility.yul\":160:163   */\n  dup3\n    /* \"#utility.yul\":156:170   */\n  add\n    /* \"#utility.yul\":141:170   */\n  swap1\n  pop\n    /* \"#utility.yul\":7:176   */\n  swap3\n  swap2\n  pop\n  pop\n  jump\t// out\n    /* \"#utility.yul\":182:356   */\ntag_30:\n    /* \"#utility.yul\":322:348   */\n  0x43616e6e6f7420736574206f776e657220746f207a65726f0000000000000000\n    /* \"#utility.yul\":318:319   */\n  0x00\n    /* \"#utility.yul\":310:316   */\n  dup3\n    /* \"#utility.yul\":306:320   */\n  add\n    /* \"#utility.yul\":299:349   */\n  mstore\n    /* \"#utility.yul\":182:356   */\n  pop\n  jump\t// out\n    /* \"#utility.yul\":362:728   */\ntag_31:\n    /* \"#utility.yul\":504:507   */\n  0x00\n    /* \"#utility.yul\":525:592   */\n  tag_40\n    /* \"#utility.yul\":589:591   */\n  0x18\n    /* \"#utility.yul\":584:587   */\n  dup4\n    /* \"#utility.yul\":525:592   */\n  tag_29\n  jump\t// in\ntag_40:\n    /* \"#utility.yul\":518:592   */\n  swap2\n  pop\n    /* \"#utility.yul\":601:694   */\n  tag_41\n    /* \"#utility.yul\":690:693   */\n  dup3\n    /* \"#utility.yul\":601:694   */\n  tag_30\n  jump\t// in\ntag_41:\n    /* \"#utility.yul\":719:721   */\n  0x20\n    /* \"#utility.yul\":714:717   */\n  dup3\n    /* \"#utility.yul\":710:722   */\n  add\n    /* \"#utility.yul\":703:722   */\n  swap1\n  pop\n    /* \"#utility.yul\":362:728   */\n  swap2\n  swap1\n  pop\n  jump\t// out\n    /* \"#utility.yul\":734:1153   */\ntag_11:\n    /* \"#utility.yul\":900:904   */\n  0x00\n    /* \"#utility.yul\":938:940   */\n  0x20\n    /* \"#utility.yul\":927:936   */\n  dup3\n    /* \"#utility.yul\":923:941   */\n  add\n    /* \"#utility.yul\":915:941   */\n  swap1\n  pop\n    /* \"#utility.yul\":987:996   */\n  dup2\n    /* \"#utility.yul\":981:985   */\n  dup2\n    /* \"#utility.yul\":977:997   */\n  sub\n    /* \"#utility.yul\":973:974   */\n  0x00\n    /* \"#utility.yul\":962:971   */\n  dup4\n    /* \"#utility.yul\":958:975   */\n  add\n    /* \"#utility.yul\":951:998   */\n  mstore\n    /* \"#utility.yul\":1015:1146   */\n  tag_43\n    /* \"#utility.yul\":1141:1145   */\n  dup2\n    /* \"#utility.yul\":1015:1146   */\n  tag_31\n  jump\t// in\ntag_43:\n    /* \"#utility.yul\":1007:1146   */\n  swap1\n  pop\n    /* \"#utility.yul\":734:1153   */\n  swap2\n  swap1\n  pop\n  jump\t// out\n    /* \"#utility.yul\":1159:1339   */\ntag_32:\n    /* \"#utility.yul\":1207:1284   */\n  0x4e487b7100000000000000000000000000000000000000000000000000000000\n    /* \"#utility.yul\":1204:1205   */\n  0x00\n    /* \"#utility.yul\":1197:1285   */\n  mstore\n    /* \"#utility.yul\":1304:1308   */\n  0x11\n    /* \"#utility.yul\":1301:1302   */\n  0x04\n    /* \"#utility.yul\":1294:1309   */\n  mstore\n    /* \"#utility.yul\":1328:1332   */\n  0x24\n    /* \"#utility.yul\":1325:1326   */\n  0x00\n    /* \"#utility.yul\":1318:1333   */\n  revert\n    /* \"#utility.yul\":1345:1422   */\ntag_33:\n    /* \"#utility.yul\":1382:1389   */\n  0x00\n    /* \"#utility.yul\":1411:1416   */\n  dup2\n    /* \"#utility.yul\":1400:1416   */\n  swap1\n  pop\n    /* \"#utility.yul\":1345:1422   */\n  swap2\n  swap1\n  pop\n  jump\t// out\n    /* \"#utility.yul\":1428:1661   */\ntag_23:\n    /* \"#utility.yul\":1467:1470   */\n  0x00\n    /* \"#utility.yul\":1490:1514   */\n  tag_47\n    /* \"#utility.yul\":1508:1513   */\n  dup3\n    /* \"#utility.yul\":1490:1514   */\n  tag_33\n  jump\t// in\ntag_47:\n    /* \"#utility.yul\":1481:1514   */\n  swap2\n  pop\n    /* \"#utility.yul\":1536:1602   */\n  0xffffffffffffffffffffffffffffffffffffffffffffffffffffffffffffffff\n    /* \"#utility.yul\":1529:1534   */\n  dup3\n    /* \"#utility.yul\":1526:1603   */\n  sub\n    /* \"#utility.yul\":1523:1626   */\n  tag_48\n  jumpi\n    /* \"#utility.yul\":1606:1624   */\n  tag_49\n  tag_32\n  jump\t// in\ntag_49:\n    /* \"#utility.yul\":1523:1626   */\ntag_48:\n    /* \"#utility.yul\":1653:1654   */\n  0x01\n    /* \"#utility.yul\":1646:1651   */\n  dup3\n    /* \"#utility.yul\":1642:1655   */\n  add\n    /* \"#utility.yul\":1635:1655   */\n  swap1\n  pop\n    /* \"#utility.yul\":1428:1661   */\n  swap2\n  swap1\n  pop\n  jump\t// out\n    /* \"#utility.yul\":1667:1840   */\ntag_34:\n    /* \"#utility.yul\":1807:1832   */\n  0x43616e6e6f74207472616e7366657220746f2073656c66000000000000000000\n    /* \"#utility.yul\":1803:1804   */\n  0x00\n    /* \"#utility.yul\":1795:1801   */\n  dup3\n    /* \"#utility.yul\":1791:1805   */\n  add\n    /* \"#utility.yul\":1784:1833   */\n  mstore\n    /* \"#utility.yul\":1667:1840   */\n  pop\n  jump\t// out\n    /* \"#utility.yul\":1846:2212   */\ntag_35:\n    /* \"#utility.yul\":1988:1991   */\n  0x00\n    /* \"#utility.yul\":2009:2076   */\n  tag_52\n    /* \"#utility.yul\":2073:2075   */\n  0x17\n    /* \"#utility.yul\":2068:2071   */\n  dup4\n    /* \"#utility.yul\":2009:2076   */\n  tag_29\n  jump\t// in\ntag_52:\n    /* \"#utility.yul\":2002:2076   */\n  swap2\n  pop\n    /* \"#utility.yul\":2085:2178   */\n  tag_53\n    /* \"#utility.yul\":2174:2177   */\n  dup3\n    /* \"#utility.yul\":2085:2178   */\n  tag_34\n  jump\t// in\ntag_53:\n    /* \"#utility.yul\":2203:2205   */\n  0x20\n    /* \"#utility.yul\":2198:2201   */\n  dup3\n    /* \"#utility.yul\":2194:2206   */\n  add\n    /* \"#utility.yul\":2187:2206   */\n  swap1\n  pop\n    /* \"#utility.yul\":1846:2212   */\n  swap2\n  swap1\n  pop\n  jump\t// out\n    /* \"#utility.yul\":2218:2637   */\ntag_28:\n    /* \"#utility.yul\":2384:2388   */\n  0x00\n    /* \"#utility.yul\":2422:2424   */\n  0x20\n    /* \"#utility.yul\":2411:2420   */\n  dup3\n    /* \"#utility.yul\":2407:2425   */\n  add\n    /* \"#utility.yul\":2399:2425   */\n  swap1\n  pop\n    /* \"#utility.yul\":2471:2480   */\n  dup2\n    /* \"#utility.yul\":2465:2469   */\n  dup2\n    /* \"#utility.yul\":2461:2481   */\n  sub\n    /* \"#utility.yul\":2457:2458   */\n  0x00\n    /* \"#utility.yul\":2446:2455   */\n  dup4\n    /* \"#utility.yul\":2442:2459   */\n  add\n    /* \"#utility.yul\":2435:2482   */\n  mstore\n    /* \"#utility.yul\":2499:2630   */\n  tag_55\n    /* \"#utility.yul\":2625:2629   */\n  dup2\n    /* \"#utility.yul\":2499:2630   */\n  tag_35\n  jump\t// in\ntag_55:\n    /* \"#utility.yul\":2491:2630   */\n  swap1\n  pop\n    /* \"#utility.yul\":2218:2637   */\n  swap2\n  swap1\n  pop\n  jump\t// out\n    /* \"contracts/LotteryFive.sol\":2898:7479  contract LotteryFive is VRF {... */\ntag_24:\n  mload(0x80)\n  mload(0xa0)\n  codecopy(0x00, dataOffset(sub_0), dataSize(sub_0))\n  0x00\n  assignImmutable(\"0xf6cb0138da7c8b3468e7e4d8ba389a3263d4efb90e59a6ce914e87b867b16a00\")\n  0x00\n  assignImmutable(\"0x064aab4cf973af3102587bae83caeab28cf75517d40727c9b952f0d14fb521fa\")\n  return(0x00, dataSize(sub_0))\nstop\n\nsub_0: assembly {\n        /* \"contracts/LotteryFive.sol\":2898:7479  contract LotteryFive is VRF {... */\n      mstore(0x40, 0x80)\n      jumpi(tag_1, lt(calldatasize, 0x04))\n      shr(0xe0, calldataload(0x00))\n      dup1\n      0x8a19c8bc\n      gt\n      tag_15\n      jumpi\n      dup1\n      0x8da5cb5b\n      gt\n      tag_16\n      jumpi\n      dup1\n      0x8da5cb5b\n      eq\n      tag_11\n      jumpi\n      dup1\n      0x8dc654a2\n      eq\n      tag_12\n      jumpi\n      dup1\n      0xb688a363\n      eq\n      tag_13\n      jumpi\n      dup1\n      0xf2fde38b\n      eq\n      tag_14\n      jumpi\n      jump(tag_1)\n    tag_16:\n      dup1\n      0x8a19c8bc\n      eq\n      tag_8\n      jumpi\n      dup1\n      0x8a82c3e9\n      eq\n      tag_9\n      jumpi\n      dup1\n      0x8b7afe2e\n      eq\n      tag_10\n      jumpi\n      jump(tag_1)\n    tag_15:\n      dup1\n      0x18854939\n      eq\n      tag_2\n      jumpi\n      dup1\n      0x1fe543e3\n      eq\n      tag_3\n      jumpi\n      dup1\n      0x289af10c\n      eq\n      tag_4\n      jumpi\n      dup1\n      0x3ccfd60b\n      eq\n      tag_5\n      jumpi\n      dup1\n      0x4cdb5d40\n      eq\n      tag_6\n      jumpi\n      dup1\n      0x79ba5097\n      eq\n      tag_7\n      jumpi\n    tag_1:\n      0x00\n      dup1\n      revert\n        /* \"contracts/LotteryFive.sol\":4555:5200  function checkWinner(uint _round) public view returns (address) {... */\n    tag_2:\n      callvalue\n      dup1\n      iszero\n      tag_17\n      jumpi\n      0x00\n      dup1\n      revert\n    tag_17:\n      pop\n      tag_18\n      0x04\n      dup1\n      calldatasize\n      sub\n      dup2\n      add\n      swap1\n      tag_19\n      swap2\n      swap1\n      tag_20\n      jump\t// in\n    tag_19:\n      tag_21\n      jump\t// in\n    tag_18:\n      mload(0x40)\n      tag_22\n      swap2\n      swap1\n      tag_23\n      jump\t// in\n    tag_22:\n      mload(0x40)\n      dup1\n      swap2\n      sub\n      swap1\n      return\n        /* \"@chainlink/contracts/src/v0.8/vrf/VRFV2WrapperConsumerBase.sol\":3804:4088  function rawFulfillRandomWords(uint256 _requestId, uint256[] memory _randomWords) external {... */\n    tag_3:\n      callvalue\n      dup1\n      iszero\n      tag_24\n      jumpi\n      0x00\n      dup1\n      revert\n    tag_24:\n      pop\n      tag_25\n      0x04\n      dup1\n      calldatasize\n      sub\n      dup2\n      add\n      swap1\n      tag_26\n      swap2\n      swap1\n      tag_27\n      jump\t// in\n    tag_26:\n      tag_28\n      jump\t// in\n    tag_25:\n      stop\n        /* \"contracts/LotteryFive.sol\":6690:7353  function redeemPrize(uint _round) external {... */\n    tag_4:\n      callvalue\n      dup1\n      iszero\n      tag_29\n      jumpi\n      0x00\n      dup1\n      revert\n    tag_29:\n      pop\n      tag_30\n      0x04\n      dup1\n      calldatasize\n      sub\n      dup2\n      add\n      swap1\n      tag_31\n      swap2\n      swap1\n      tag_20\n      jump\t// in\n    tag_31:\n      tag_32\n      jump\t// in\n    tag_30:\n      stop\n        /* \"contracts/LotteryFive.sol\":6070:6682  function withdraw() external {... */\n    tag_5:\n      callvalue\n      dup1\n      iszero\n      tag_33\n      jumpi\n      0x00\n      dup1\n      revert\n    tag_33:\n      pop\n      tag_34\n      tag_35\n      jump\t// in\n    tag_34:\n      stop\n        /* \"contracts/LotteryFive.sol\":3907:4547  function performDraw() external onlyOwner returns (uint256) {... */\n    tag_6:\n      callvalue\n      dup1\n      iszero\n      tag_36\n      jumpi\n      0x00\n      dup1\n      revert\n    tag_36:\n      pop\n      tag_37\n      tag_38\n      jump\t// in\n    tag_37:\n      mload(0x40)\n      tag_39\n      swap2\n      swap1\n      tag_40\n      jump\t// in\n    tag_39:\n      mload(0x40)\n      dup1\n      swap2\n      sub\n      swap1\n      return\n        /* \"@chainlink/contracts/src/v0.8/shared/access/ConfirmedOwnerWithProposal.sol\":1026:1342  function acceptOwnership() external override {... */\n    tag_7:\n      callvalue\n      dup1\n      iszero\n      tag_41\n      jumpi\n      0x00\n      dup1\n      revert\n    tag_41:\n      pop\n      tag_42\n      tag_43\n      jump\t// in\n    tag_42:\n      stop\n        /* \"contracts/LotteryFive.sol\":3132:3156  uint public currentRound */\n    tag_8:\n      callvalue\n      dup1\n      iszero\n      tag_44\n      jumpi\n      0x00\n      dup1\n      revert\n    tag_44:\n      pop\n      tag_45\n      tag_46\n      jump\t// in\n    tag_45:\n      mload(0x40)\n      tag_47\n      swap2\n      swap1\n      tag_40\n      jump\t// in\n    tag_47:\n      mload(0x40)\n      dup1\n      swap2\n      sub\n      swap1\n      return\n        /* \"contracts/LotteryFive.sol\":3096:3125  uint[] public roundsCompleted */\n    tag_9:\n      callvalue\n      dup1\n      iszero\n      tag_48\n      jumpi\n      0x00\n      dup1\n      revert\n    tag_48:\n      pop\n      tag_49\n      0x04\n      dup1\n      calldatasize\n      sub\n      dup2\n      add\n      swap1\n      tag_50\n      swap2\n      swap1\n      tag_20\n      jump\t// in\n    tag_50:\n      tag_51\n      jump\t// in\n    tag_49:\n      mload(0x40)\n      tag_52\n      swap2\n      swap1\n      tag_40\n      jump\t// in\n    tag_52:\n      mload(0x40)\n      dup1\n      swap2\n      sub\n      swap1\n      return\n        /* \"contracts/LotteryFive.sol\":7361:7474  function contractBalance() external onlyOwner view returns (uint) {... */\n    tag_10:\n      callvalue\n      dup1\n      iszero\n      tag_53\n      jumpi\n      0x00\n      dup1\n      revert\n    tag_53:\n      pop\n      tag_54\n      tag_55\n      jump\t// in\n    tag_54:\n      mload(0x40)\n      tag_56\n      swap2\n      swap1\n      tag_40\n      jump\t// in\n    tag_56:\n      mload(0x40)\n      dup1\n      swap2\n      sub\n      swap1\n      return\n        /* \"@chainlink/contracts/src/v0.8/shared/access/ConfirmedOwnerWithProposal.sol\":1382:1463  function owner() public view override returns (address) {... */\n    tag_11:\n      callvalue\n      dup1\n      iszero\n      tag_57\n      jumpi\n      0x00\n      dup1\n      revert\n    tag_57:\n      pop\n      tag_58\n      tag_59\n      jump\t// in\n    tag_58:\n      mload(0x40)\n      tag_60\n      swap2\n      swap1\n      tag_23\n      jump\t// in\n    tag_60:\n      mload(0x40)\n      dup1\n      swap2\n      sub\n      swap1\n      return\n        /* \"contracts/LotteryFive.sol\":2639:2891  function withdrawLink() public onlyOwner {... */\n    tag_12:\n      callvalue\n      dup1\n      iszero\n      tag_61\n      jumpi\n      0x00\n      dup1\n      revert\n    tag_61:\n      pop\n      tag_62\n      tag_63\n      jump\t// in\n    tag_62:\n      stop\n        /* \"contracts/LotteryFive.sol\":5208:6062  function join() external payable {... */\n    tag_13:\n      tag_64\n      tag_65\n      jump\t// in\n    tag_64:\n      stop\n        /* \"@chainlink/contracts/src/v0.8/shared/access/ConfirmedOwnerWithProposal.sol\":847:945  function transferOwnership(address to) public override onlyOwner {... */\n    tag_14:\n      callvalue\n      dup1\n      iszero\n      tag_66\n      jumpi\n      0x00\n      dup1\n      revert\n    tag_66:\n      pop\n      tag_67\n      0x04\n      dup1\n      calldatasize\n      sub\n      dup2\n      add\n      swap1\n      tag_68\n      swap2\n      swap1\n      tag_69\n      jump\t// in\n    tag_68:\n      tag_70\n      jump\t// in\n    tag_67:\n      stop\n        /* \"contracts/LotteryFive.sol\":4555:5200  function checkWinner(uint _round) public view returns (address) {... */\n    tag_21:\n        /* \"contracts/LotteryFive.sol\":4610:4617  address */\n      0x00\n        /* \"contracts/LotteryFive.sol\":4647:4648  0 */\n      dup1\n        /* \"contracts/LotteryFive.sol\":4638:4644  _round */\n      dup3\n        /* \"contracts/LotteryFive.sol\":4638:4648  _round > 0 */\n      gt\n        /* \"contracts/LotteryFive.sol\":4630:4681  require(_round > 0, 'round must be greater than 0') */\n      tag_72\n      jumpi\n      mload(0x40)\n      0x08c379a000000000000000000000000000000000000000000000000000000000\n      dup2\n      mstore\n      0x04\n      add\n      tag_73\n      swap1\n      tag_74\n      jump\t// in\n    tag_73:\n      mload(0x40)\n      dup1\n      swap2\n      sub\n      swap1\n      revert\n    tag_72:\n        /* \"contracts/LotteryFive.sol\":4709:4721  currentRound */\n      sload(0x08)\n        /* \"contracts/LotteryFive.sol\":4700:4706  _round */\n      dup3\n        /* \"contracts/LotteryFive.sol\":4700:4721  _round < currentRound */\n      lt\n        /* \"contracts/LotteryFive.sol\":4692:4767  require(_round < currentRound, 'round must be less than the current round') */\n      tag_75\n      jumpi\n      mload(0x40)\n      0x08c379a000000000000000000000000000000000000000000000000000000000\n      dup2\n      mstore\n      0x04\n      add\n      tag_76\n      swap1\n      tag_77\n      jump\t// in\n    tag_76:\n      mload(0x40)\n      dup1\n      swap2\n      sub\n      swap1\n      revert\n    tag_75:\n        /* \"contracts/LotteryFive.sol\":4778:4795  uint256 requestId */\n      0x00\n        /* \"contracts/LotteryFive.sol\":4798:4803  draws */\n      0x09\n        /* \"contracts/LotteryFive.sol\":4798:4811  draws[_round] */\n      0x00\n        /* \"contracts/LotteryFive.sol\":4804:4810  _round */\n      dup5\n        /* \"contracts/LotteryFive.sol\":4798:4811  draws[_round] */\n      dup2\n      mstore\n      0x20\n      add\n      swap1\n      dup2\n      mstore\n      0x20\n      add\n      0x00\n      keccak256\n      sload\n        /* \"contracts/LotteryFive.sol\":4778:4811  uint256 requestId = draws[_round] */\n      swap1\n      pop\n        /* \"contracts/LotteryFive.sol\":4822:4857  RequestStatus storage requestStatus */\n      0x00\n        /* \"contracts/LotteryFive.sol\":4860:4870  s_requests */\n      0x02\n        /* \"contracts/LotteryFive.sol\":4860:4881  s_requests[requestId] */\n      0x00\n        /* \"contracts/LotteryFive.sol\":4871:4880  requestId */\n      dup4\n        /* \"contracts/LotteryFive.sol\":4860:4881  s_requests[requestId] */\n      dup2\n      mstore\n      0x20\n      add\n      swap1\n      dup2\n      mstore\n      0x20\n      add\n      0x00\n      keccak256\n        /* \"contracts/LotteryFive.sol\":4822:4881  RequestStatus storage requestStatus = s_requests[requestId] */\n      swap1\n      pop\n        /* \"contracts/LotteryFive.sol\":4896:4909  requestStatus */\n      dup1\n        /* \"contracts/LotteryFive.sol\":4896:4919  requestStatus.fulfilled */\n      0x01\n      add\n      0x00\n      swap1\n      sload\n      swap1\n      0x0100\n      exp\n      swap1\n      div\n      0xff\n      and\n        /* \"contracts/LotteryFive.sol\":4892:5165  if (requestStatus.fulfilled) {... */\n      iszero\n      tag_78\n      jumpi\n        /* \"contracts/LotteryFive.sol\":4936:4955  uint256 randomValue */\n      0x00\n        /* \"contracts/LotteryFive.sol\":4958:4971  requestStatus */\n      dup2\n        /* \"contracts/LotteryFive.sol\":4958:4983  requestStatus.randomWords */\n      0x02\n      add\n        /* \"contracts/LotteryFive.sol\":4984:4985  0 */\n      0x00\n        /* \"contracts/LotteryFive.sol\":4958:4986  requestStatus.randomWords[0] */\n      dup2\n      sload\n      dup2\n      lt\n      tag_79\n      jumpi\n      tag_80\n      tag_81\n      jump\t// in\n    tag_80:\n    tag_79:\n      swap1\n      0x00\n      mstore\n      keccak256(0x00, 0x20)\n      add\n      sload\n        /* \"contracts/LotteryFive.sol\":4936:4986  uint256 randomValue = requestStatus.randomWords[0] */\n      swap1\n      pop\n        /* \"contracts/LotteryFive.sol\":5001:5014  uint winnerId */\n      0x00\n        /* \"contracts/LotteryFive.sol\":5031:5032  5 */\n      0x05\n        /* \"contracts/LotteryFive.sol\":5017:5028  randomValue */\n      dup3\n        /* \"contracts/LotteryFive.sol\":5017:5032  randomValue % 5 */\n      tag_83\n      swap2\n      swap1\n      tag_84\n      jump\t// in\n    tag_83:\n        /* \"contracts/LotteryFive.sol\":5001:5032  uint winnerId = randomValue % 5 */\n      swap1\n      pop\n        /* \"contracts/LotteryFive.sol\":5047:5076  RoundState storage roundState */\n      0x00\n        /* \"contracts/LotteryFive.sol\":5079:5090  roundStates */\n      0x0a\n        /* \"contracts/LotteryFive.sol\":5079:5098  roundStates[_round] */\n      0x00\n        /* \"contracts/LotteryFive.sol\":5091:5097  _round */\n      dup9\n        /* \"contracts/LotteryFive.sol\":5079:5098  roundStates[_round] */\n      dup2\n      mstore\n      0x20\n      add\n      swap1\n      dup2\n      mstore\n      0x20\n      add\n      0x00\n      keccak256\n        /* \"contracts/LotteryFive.sol\":5047:5098  RoundState storage roundState = roundStates[_round] */\n      swap1\n      pop\n        /* \"contracts/LotteryFive.sol\":5120:5130  roundState */\n      dup1\n        /* \"contracts/LotteryFive.sol\":5120:5138  roundState.members */\n      0x00\n      add\n        /* \"contracts/LotteryFive.sol\":5139:5147  winnerId */\n      dup3\n        /* \"contracts/LotteryFive.sol\":5120:5148  roundState.members[winnerId] */\n      dup2\n      sload\n      dup2\n      lt\n      tag_85\n      jumpi\n      tag_86\n      tag_81\n      jump\t// in\n    tag_86:\n    tag_85:\n      swap1\n      0x00\n      mstore\n      keccak256(0x00, 0x20)\n      swap1\n      0x02\n      mul\n      add\n        /* \"contracts/LotteryFive.sol\":5120:5153  roundState.members[winnerId].addr */\n      0x00\n      add\n      0x00\n      swap1\n      sload\n      swap1\n      0x0100\n      exp\n      swap1\n      div\n      0xffffffffffffffffffffffffffffffffffffffff\n      and\n        /* \"contracts/LotteryFive.sol\":5113:5153  return roundState.members[winnerId].addr */\n      swap6\n      pop\n      pop\n      pop\n      pop\n      pop\n      pop\n      jump(tag_71)\n        /* \"contracts/LotteryFive.sol\":4892:5165  if (requestStatus.fulfilled) {... */\n    tag_78:\n        /* \"contracts/LotteryFive.sol\":5190:5191  0 */\n      0x00\n        /* \"contracts/LotteryFive.sol\":5175:5192  return address(0) */\n      swap3\n      pop\n      pop\n      pop\n        /* \"contracts/LotteryFive.sol\":4555:5200  function checkWinner(uint _round) public view returns (address) {... */\n    tag_71:\n      swap2\n      swap1\n      pop\n      jump\t// out\n        /* \"@chainlink/contracts/src/v0.8/vrf/VRFV2WrapperConsumerBase.sol\":3804:4088  function rawFulfillRandomWords(uint256 _requestId, uint256[] memory _randomWords) external {... */\n    tag_28:\n        /* \"@chainlink/contracts/src/v0.8/vrf/VRFV2WrapperConsumerBase.sol\":3982:3996  VRF_V2_WRAPPER */\n      immutable(\"0xf6cb0138da7c8b3468e7e4d8ba389a3263d4efb90e59a6ce914e87b867b16a00\")\n        /* \"@chainlink/contracts/src/v0.8/vrf/VRFV2WrapperConsumerBase.sol\":3960:3997  msg.sender == address(VRF_V2_WRAPPER) */\n      0xffffffffffffffffffffffffffffffffffffffff\n      and\n        /* \"@chainlink/contracts/src/v0.8/vrf/VRFV2WrapperConsumerBase.sol\":3960:3970  msg.sender */\n      caller\n        /* \"@chainlink/contracts/src/v0.8/vrf/VRFV2WrapperConsumerBase.sol\":3960:3997  msg.sender == address(VRF_V2_WRAPPER) */\n      0xffffffffffffffffffffffffffffffffffffffff\n      and\n      eq\n        /* \"@chainlink/contracts/src/v0.8/vrf/VRFV2WrapperConsumerBase.sol\":3952:4033  require(msg.sender == address(VRF_V2_WRAPPER), \"only VRF V2 wrapper can fulfill\") */\n      tag_89\n      jumpi\n      mload(0x40)\n      0x08c379a000000000000000000000000000000000000000000000000000000000\n      dup2\n      mstore\n      0x04\n      add\n      tag_90\n      swap1\n      tag_91\n      jump\t// in\n    tag_90:\n      mload(0x40)\n      dup1\n      swap2\n      sub\n      swap1\n      revert\n    tag_89:\n        /* \"@chainlink/contracts/src/v0.8/vrf/VRFV2WrapperConsumerBase.sol\":4039:4083  fulfillRandomWords(_requestId, _randomWords) */\n      tag_92\n        /* \"@chainlink/contracts/src/v0.8/vrf/VRFV2WrapperConsumerBase.sol\":4058:4068  _requestId */\n      dup3\n        /* \"@chainlink/contracts/src/v0.8/vrf/VRFV2WrapperConsumerBase.sol\":4070:4082  _randomWords */\n      dup3\n        /* \"@chainlink/contracts/src/v0.8/vrf/VRFV2WrapperConsumerBase.sol\":4039:4057  fulfillRandomWords */\n      tag_93\n        /* \"@chainlink/contracts/src/v0.8/vrf/VRFV2WrapperConsumerBase.sol\":4039:4083  fulfillRandomWords(_requestId, _randomWords) */\n      jump\t// in\n    tag_92:\n        /* \"@chainlink/contracts/src/v0.8/vrf/VRFV2WrapperConsumerBase.sol\":3804:4088  function rawFulfillRandomWords(uint256 _requestId, uint256[] memory _randomWords) external {... */\n      pop\n      pop\n      jump\t// out\n        /* \"contracts/LotteryFive.sol\":6690:7353  function redeemPrize(uint _round) external {... */\n    tag_32:\n        /* \"contracts/LotteryFive.sol\":6744:6758  address winner */\n      0x00\n        /* \"contracts/LotteryFive.sol\":6761:6780  checkWinner(_round) */\n      tag_95\n        /* \"contracts/LotteryFive.sol\":6773:6779  _round */\n      dup3\n        /* \"contracts/LotteryFive.sol\":6761:6772  checkWinner */\n      tag_21\n        /* \"contracts/LotteryFive.sol\":6761:6780  checkWinner(_round) */\n      jump\t// in\n    tag_95:\n        /* \"contracts/LotteryFive.sol\":6744:6780  address winner = checkWinner(_round) */\n      swap1\n      pop\n        /* \"contracts/LotteryFive.sol\":6817:6818  0 */\n      0x00\n        /* \"contracts/LotteryFive.sol\":6799:6819  winner != address(0) */\n      0xffffffffffffffffffffffffffffffffffffffff\n      and\n        /* \"contracts/LotteryFive.sol\":6799:6805  winner */\n      dup2\n        /* \"contracts/LotteryFive.sol\":6799:6819  winner != address(0) */\n      0xffffffffffffffffffffffffffffffffffffffff\n      and\n      sub\n        /* \"contracts/LotteryFive.sol\":6791:6862  require(winner != address(0), \"Winner is not yet decided for the draw\") */\n      tag_96\n      jumpi\n      mload(0x40)\n      0x08c379a000000000000000000000000000000000000000000000000000000000\n      dup2\n      mstore\n      0x04\n      add\n      tag_97\n      swap1\n      tag_98\n      jump\t// in\n    tag_97:\n      mload(0x40)\n      dup1\n      swap2\n      sub\n      swap1\n      revert\n    tag_96:\n        /* \"contracts/LotteryFive.sol\":6891:6901  msg.sender */\n      caller\n        /* \"contracts/LotteryFive.sol\":6881:6901  winner == msg.sender */\n      0xffffffffffffffffffffffffffffffffffffffff\n      and\n        /* \"contracts/LotteryFive.sol\":6881:6887  winner */\n      dup2\n        /* \"contracts/LotteryFive.sol\":6881:6901  winner == msg.sender */\n      0xffffffffffffffffffffffffffffffffffffffff\n      and\n      eq\n        /* \"contracts/LotteryFive.sol\":6873:6928  require(winner == msg.sender, \"You are not the winner\") */\n      tag_99\n      jumpi\n      mload(0x40)\n      0x08c379a000000000000000000000000000000000000000000000000000000000\n      dup2\n      mstore\n      0x04\n      add\n      tag_100\n      swap1\n      tag_101\n      jump\t// in\n    tag_100:\n      mload(0x40)\n      dup1\n      swap2\n      sub\n      swap1\n      revert\n    tag_99:\n        /* \"contracts/LotteryFive.sol\":6939:6968  RoundState storage roundState */\n      0x00\n        /* \"contracts/LotteryFive.sol\":6971:6982  roundStates */\n      0x0a\n        /* \"contracts/LotteryFive.sol\":6971:6990  roundStates[_round] */\n      0x00\n        /* \"contracts/LotteryFive.sol\":6983:6989  _round */\n      dup5\n        /* \"contracts/LotteryFive.sol\":6971:6990  roundStates[_round] */\n      dup2\n      mstore\n      0x20\n      add\n      swap1\n      dup2\n      mstore\n      0x20\n      add\n      0x00\n      keccak256\n        /* \"contracts/LotteryFive.sol\":6939:6990  RoundState storage roundState = roundStates[_round] */\n      swap1\n      pop\n        /* \"contracts/LotteryFive.sol\":7001:7017  uint totalAmount */\n      0x00\n        /* \"contracts/LotteryFive.sol\":7036:7042  uint i */\n      dup1\n        /* \"contracts/LotteryFive.sol\":7032:7130  for(uint i = 0; i < 5; i++) {... */\n    tag_102:\n        /* \"contracts/LotteryFive.sol\":7052:7053  5 */\n      0x05\n        /* \"contracts/LotteryFive.sol\":7048:7049  i */\n      dup2\n        /* \"contracts/LotteryFive.sol\":7048:7053  i < 5 */\n      lt\n        /* \"contracts/LotteryFive.sol\":7032:7130  for(uint i = 0; i < 5; i++) {... */\n      iszero\n      tag_103\n      jumpi\n        /* \"contracts/LotteryFive.sol\":7090:7100  roundState */\n      dup3\n        /* \"contracts/LotteryFive.sol\":7090:7108  roundState.members */\n      0x00\n      add\n        /* \"contracts/LotteryFive.sol\":7109:7110  i */\n      dup2\n        /* \"contracts/LotteryFive.sol\":7090:7111  roundState.members[i] */\n      dup2\n      sload\n      dup2\n      lt\n      tag_105\n      jumpi\n      tag_106\n      tag_81\n      jump\t// in\n    tag_106:\n    tag_105:\n      swap1\n      0x00\n      mstore\n      keccak256(0x00, 0x20)\n      swap1\n      0x02\n      mul\n      add\n        /* \"contracts/LotteryFive.sol\":7090:7118  roundState.members[i].amount */\n      0x01\n      add\n      sload\n        /* \"contracts/LotteryFive.sol\":7075:7118  totalAmount += roundState.members[i].amount */\n      dup3\n      tag_108\n      swap2\n      swap1\n      tag_109\n      jump\t// in\n    tag_108:\n      swap2\n      pop\n        /* \"contracts/LotteryFive.sol\":7055:7058  i++ */\n      dup1\n      dup1\n      tag_110\n      swap1\n      tag_111\n      jump\t// in\n    tag_110:\n      swap2\n      pop\n      pop\n        /* \"contracts/LotteryFive.sol\":7032:7130  for(uint i = 0; i < 5; i++) {... */\n      jump(tag_102)\n    tag_103:\n      pop\n        /* \"contracts/LotteryFive.sol\":7216:7235  address payable _to */\n      0x00\n        /* \"contracts/LotteryFive.sol\":7246:7256  msg.sender */\n      caller\n        /* \"contracts/LotteryFive.sol\":7216:7257  address payable _to = payable(msg.sender) */\n      swap1\n      pop\n        /* \"contracts/LotteryFive.sol\":7268:7286  uint winningAmount */\n      0x00\n        /* \"contracts/LotteryFive.sol\":7305:7307  10 */\n      0x0a\n        /* \"contracts/LotteryFive.sol\":7302:7303  9 */\n      0x09\n        /* \"contracts/LotteryFive.sol\":7290:7301  totalAmount */\n      dup5\n        /* \"contracts/LotteryFive.sol\":7290:7303  totalAmount*9 */\n      tag_112\n      swap2\n      swap1\n      tag_113\n      jump\t// in\n    tag_112:\n        /* \"contracts/LotteryFive.sol\":7289:7307  (totalAmount*9)/10 */\n      tag_114\n      swap2\n      swap1\n      tag_115\n      jump\t// in\n    tag_114:\n        /* \"contracts/LotteryFive.sol\":7268:7307  uint winningAmount = (totalAmount*9)/10 */\n      swap1\n      pop\n        /* \"contracts/LotteryFive.sol\":7318:7321  _to */\n      dup2\n        /* \"contracts/LotteryFive.sol\":7318:7330  _to.transfer */\n      0xffffffffffffffffffffffffffffffffffffffff\n      and\n        /* \"contracts/LotteryFive.sol\":7318:7345  _to.transfer(winningAmount) */\n      0x08fc\n        /* \"contracts/LotteryFive.sol\":7331:7344  winningAmount */\n      dup3\n        /* \"contracts/LotteryFive.sol\":7318:7345  _to.transfer(winningAmount) */\n      swap1\n      dup2\n      iszero\n      mul\n      swap1\n      mload(0x40)\n      0x00\n      mload(0x40)\n      dup1\n      dup4\n      sub\n      dup2\n      dup6\n      dup9\n      dup9\n      call\n      swap4\n      pop\n      pop\n      pop\n      pop\n      iszero\n      dup1\n      iszero\n      tag_117\n      jumpi\n      returndatasize\n      0x00\n      dup1\n      returndatacopy\n      revert(0x00, returndatasize)\n    tag_117:\n      pop\n        /* \"contracts/LotteryFive.sol\":6733:7353  {... */\n      pop\n      pop\n      pop\n      pop\n      pop\n        /* \"contracts/LotteryFive.sol\":6690:7353  function redeemPrize(uint _round) external {... */\n      pop\n      jump\t// out\n        /* \"contracts/LotteryFive.sol\":6070:6682  function withdraw() external {... */\n    tag_35:\n        /* \"contracts/LotteryFive.sol\":6110:6139  RoundState storage roundState */\n      0x00\n        /* \"contracts/LotteryFive.sol\":6142:6153  roundStates */\n      0x0a\n        /* \"contracts/LotteryFive.sol\":6142:6167  roundStates[currentRound] */\n      0x00\n        /* \"contracts/LotteryFive.sol\":6154:6166  currentRound */\n      sload(0x08)\n        /* \"contracts/LotteryFive.sol\":6142:6167  roundStates[currentRound] */\n      dup2\n      mstore\n      0x20\n      add\n      swap1\n      dup2\n      mstore\n      0x20\n      add\n      0x00\n      keccak256\n        /* \"contracts/LotteryFive.sol\":6110:6167  RoundState storage roundState = roundStates[currentRound] */\n      swap1\n      pop\n        /* \"contracts/LotteryFive.sol\":6182:6188  uint i */\n      0x00\n        /* \"contracts/LotteryFive.sol\":6178:6675  for(uint i = 0; i < 5; i++) {... */\n    tag_119:\n        /* \"contracts/LotteryFive.sol\":6198:6199  5 */\n      0x05\n        /* \"contracts/LotteryFive.sol\":6194:6195  i */\n      dup2\n        /* \"contracts/LotteryFive.sol\":6194:6199  i < 5 */\n      lt\n        /* \"contracts/LotteryFive.sol\":6178:6675  for(uint i = 0; i < 5; i++) {... */\n      iszero\n      tag_120\n      jumpi\n        /* \"contracts/LotteryFive.sol\":6255:6265  msg.sender */\n      caller\n        /* \"contracts/LotteryFive.sol\":6225:6265  roundState.members[i].addr == msg.sender */\n      0xffffffffffffffffffffffffffffffffffffffff\n      and\n        /* \"contracts/LotteryFive.sol\":6225:6235  roundState */\n      dup3\n        /* \"contracts/LotteryFive.sol\":6225:6243  roundState.members */\n      0x00\n      add\n        /* \"contracts/LotteryFive.sol\":6244:6245  i */\n      dup3\n        /* \"contracts/LotteryFive.sol\":6225:6246  roundState.members[i] */\n      dup2\n      sload\n      dup2\n      lt\n      tag_122\n      jumpi\n      tag_123\n      tag_81\n      jump\t// in\n    tag_123:\n    tag_122:\n      swap1\n      0x00\n      mstore\n      keccak256(0x00, 0x20)\n      swap1\n      0x02\n      mul\n      add\n        /* \"contracts/LotteryFive.sol\":6225:6251  roundState.members[i].addr */\n      0x00\n      add\n      0x00\n      swap1\n      sload\n      swap1\n      0x0100\n      exp\n      swap1\n      div\n      0xffffffffffffffffffffffffffffffffffffffff\n      and\n        /* \"contracts/LotteryFive.sol\":6225:6265  roundState.members[i].addr == msg.sender */\n      0xffffffffffffffffffffffffffffffffffffffff\n      and\n      sub\n        /* \"contracts/LotteryFive.sol\":6221:6664  if (roundState.members[i].addr == msg.sender) {... */\n      tag_125\n      jumpi\n        /* \"contracts/LotteryFive.sol\":6326:6334  uint amt */\n      0x00\n        /* \"contracts/LotteryFive.sol\":6372:6373  5 */\n      0x05\n        /* \"contracts/LotteryFive.sol\":6369:6370  4 */\n      0x04\n        /* \"contracts/LotteryFive.sol\":6338:6348  roundState */\n      dup5\n        /* \"contracts/LotteryFive.sol\":6338:6356  roundState.members */\n      0x00\n      add\n        /* \"contracts/LotteryFive.sol\":6357:6358  i */\n      dup5\n        /* \"contracts/LotteryFive.sol\":6338:6359  roundState.members[i] */\n      dup2\n      sload\n      dup2\n      lt\n      tag_126\n      jumpi\n      tag_127\n      tag_81\n      jump\t// in\n    tag_127:\n    tag_126:\n      swap1\n      0x00\n      mstore\n      keccak256(0x00, 0x20)\n      swap1\n      0x02\n      mul\n      add\n        /* \"contracts/LotteryFive.sol\":6338:6366  roundState.members[i].amount */\n      0x01\n      add\n      sload\n        /* \"contracts/LotteryFive.sol\":6338:6370  roundState.members[i].amount * 4 */\n      tag_129\n      swap2\n      swap1\n      tag_113\n      jump\t// in\n    tag_129:\n        /* \"contracts/LotteryFive.sol\":6337:6373  (roundState.members[i].amount * 4)/5 */\n      tag_130\n      swap2\n      swap1\n      tag_115\n      jump\t// in\n    tag_130:\n        /* \"contracts/LotteryFive.sol\":6326:6373  uint amt = (roundState.members[i].amount * 4)/5 */\n      swap1\n      pop\n        /* \"contracts/LotteryFive.sol\":6392:6411  address payable _to */\n      0x00\n        /* \"contracts/LotteryFive.sol\":6422:6432  msg.sender */\n      caller\n        /* \"contracts/LotteryFive.sol\":6392:6433  address payable _to = payable(msg.sender) */\n      swap1\n      pop\n        /* \"contracts/LotteryFive.sol\":6489:6490  0 */\n      0x00\n        /* \"contracts/LotteryFive.sol\":6452:6462  roundState */\n      dup5\n        /* \"contracts/LotteryFive.sol\":6452:6470  roundState.members */\n      0x00\n      add\n        /* \"contracts/LotteryFive.sol\":6471:6472  i */\n      dup5\n        /* \"contracts/LotteryFive.sol\":6452:6473  roundState.members[i] */\n      dup2\n      sload\n      dup2\n      lt\n      tag_131\n      jumpi\n      tag_132\n      tag_81\n      jump\t// in\n    tag_132:\n    tag_131:\n      swap1\n      0x00\n      mstore\n      keccak256(0x00, 0x20)\n      swap1\n      0x02\n      mul\n      add\n        /* \"contracts/LotteryFive.sol\":6452:6478  roundState.members[i].addr */\n      0x00\n      add\n      0x00\n        /* \"contracts/LotteryFive.sol\":6452:6491  roundState.members[i].addr = address(0) */\n      0x0100\n      exp\n      dup2\n      sload\n      dup2\n      0xffffffffffffffffffffffffffffffffffffffff\n      mul\n      not\n      and\n      swap1\n      dup4\n      0xffffffffffffffffffffffffffffffffffffffff\n      and\n      mul\n      or\n      swap1\n      sstore\n      pop\n        /* \"contracts/LotteryFive.sol\":6541:6542  0 */\n      0x00\n        /* \"contracts/LotteryFive.sol\":6510:6520  roundState */\n      dup5\n        /* \"contracts/LotteryFive.sol\":6510:6528  roundState.members */\n      0x00\n      add\n        /* \"contracts/LotteryFive.sol\":6529:6530  i */\n      dup5\n        /* \"contracts/LotteryFive.sol\":6510:6531  roundState.members[i] */\n      dup2\n      sload\n      dup2\n      lt\n      tag_134\n      jumpi\n      tag_135\n      tag_81\n      jump\t// in\n    tag_135:\n    tag_134:\n      swap1\n      0x00\n      mstore\n      keccak256(0x00, 0x20)\n      swap1\n      0x02\n      mul\n      add\n        /* \"contracts/LotteryFive.sol\":6510:6538  roundState.members[i].amount */\n      0x01\n      add\n        /* \"contracts/LotteryFive.sol\":6510:6542  roundState.members[i].amount = 0 */\n      dup2\n      swap1\n      sstore\n      pop\n        /* \"contracts/LotteryFive.sol\":6586:6587  1 */\n      0x01\n        /* \"contracts/LotteryFive.sol\":6561:6571  roundState */\n      dup5\n        /* \"contracts/LotteryFive.sol\":6561:6582  roundState.numMembers */\n      0x01\n      add\n      0x00\n        /* \"contracts/LotteryFive.sol\":6561:6587  roundState.numMembers -= 1 */\n      dup3\n      dup3\n      sload\n      tag_137\n      swap2\n      swap1\n      tag_138\n      jump\t// in\n    tag_137:\n      swap3\n      pop\n      pop\n      dup2\n      swap1\n      sstore\n      pop\n        /* \"contracts/LotteryFive.sol\":6606:6609  _to */\n      dup1\n        /* \"contracts/LotteryFive.sol\":6606:6618  _to.transfer */\n      0xffffffffffffffffffffffffffffffffffffffff\n      and\n        /* \"contracts/LotteryFive.sol\":6606:6623  _to.transfer(amt) */\n      0x08fc\n        /* \"contracts/LotteryFive.sol\":6619:6622  amt */\n      dup4\n        /* \"contracts/LotteryFive.sol\":6606:6623  _to.transfer(amt) */\n      swap1\n      dup2\n      iszero\n      mul\n      swap1\n      mload(0x40)\n      0x00\n      mload(0x40)\n      dup1\n      dup4\n      sub\n      dup2\n      dup6\n      dup9\n      dup9\n      call\n      swap4\n      pop\n      pop\n      pop\n      pop\n      iszero\n      dup1\n      iszero\n      tag_140\n      jumpi\n      returndatasize\n      0x00\n      dup1\n      returndatacopy\n      revert(0x00, returndatasize)\n    tag_140:\n      pop\n        /* \"contracts/LotteryFive.sol\":6642:6649  return; */\n      pop\n      pop\n      pop\n      pop\n      jump(tag_118)\n        /* \"contracts/LotteryFive.sol\":6221:6664  if (roundState.members[i].addr == msg.sender) {... */\n    tag_125:\n        /* \"contracts/LotteryFive.sol\":6201:6204  i++ */\n      dup1\n      dup1\n      tag_141\n      swap1\n      tag_111\n      jump\t// in\n    tag_141:\n      swap2\n      pop\n      pop\n        /* \"contracts/LotteryFive.sol\":6178:6675  for(uint i = 0; i < 5; i++) {... */\n      jump(tag_119)\n    tag_120:\n      pop\n        /* \"contracts/LotteryFive.sol\":6099:6682  {... */\n      pop\n        /* \"contracts/LotteryFive.sol\":6070:6682  function withdraw() external {... */\n    tag_118:\n      jump\t// out\n        /* \"contracts/LotteryFive.sol\":3907:4547  function performDraw() external onlyOwner returns (uint256) {... */\n    tag_38:\n        /* \"contracts/LotteryFive.sol\":3958:3965  uint256 */\n      0x00\n        /* \"@chainlink/contracts/src/v0.8/shared/access/ConfirmedOwnerWithProposal.sol\":2075:2095  _validateOwnership() */\n      tag_143\n        /* \"@chainlink/contracts/src/v0.8/shared/access/ConfirmedOwnerWithProposal.sol\":2075:2093  _validateOwnership */\n      tag_144\n        /* \"@chainlink/contracts/src/v0.8/shared/access/ConfirmedOwnerWithProposal.sol\":2075:2095  _validateOwnership() */\n      jump\t// in\n    tag_143:\n        /* \"contracts/LotteryFive.sol\":3978:4007  RoundState storage roundState */\n      0x00\n        /* \"contracts/LotteryFive.sol\":4010:4021  roundStates */\n      0x0a\n        /* \"contracts/LotteryFive.sol\":4010:4035  roundStates[currentRound] */\n      0x00\n        /* \"contracts/LotteryFive.sol\":4022:4034  currentRound */\n      sload(0x08)\n        /* \"contracts/LotteryFive.sol\":4010:4035  roundStates[currentRound] */\n      dup2\n      mstore\n      0x20\n      add\n      swap1\n      dup2\n      mstore\n      0x20\n      add\n      0x00\n      keccak256\n        /* \"contracts/LotteryFive.sol\":3978:4035  RoundState storage roundState = roundStates[currentRound] */\n      swap1\n      pop\n        /* \"contracts/LotteryFive.sol\":4079:4080  5 */\n      0x05\n        /* \"contracts/LotteryFive.sol\":4054:4064  roundState */\n      dup2\n        /* \"contracts/LotteryFive.sol\":4054:4075  roundState.numMembers */\n      0x01\n      add\n      sload\n        /* \"contracts/LotteryFive.sol\":4054:4080  roundState.numMembers == 5 */\n      eq\n        /* \"contracts/LotteryFive.sol\":4046:4141  require(roundState.numMembers == 5, \"Number of members must be 5 before draw can be performed\") */\n      tag_146\n      jumpi\n      mload(0x40)\n      0x08c379a000000000000000000000000000000000000000000000000000000000\n      dup2\n      mstore\n      0x04\n      add\n      tag_147\n      swap1\n      tag_148\n      jump\t// in\n    tag_147:\n      mload(0x40)\n      dup1\n      swap2\n      sub\n      swap1\n      revert\n    tag_146:\n        /* \"contracts/LotteryFive.sol\":4152:4169  uint256 requestId */\n      0x00\n        /* \"contracts/LotteryFive.sol\":4172:4192  requestRandomWords() */\n      tag_149\n        /* \"contracts/LotteryFive.sol\":4172:4190  requestRandomWords */\n      tag_150\n        /* \"contracts/LotteryFive.sol\":4172:4192  requestRandomWords() */\n      jump\t// in\n    tag_149:\n        /* \"contracts/LotteryFive.sol\":4152:4192  uint256 requestId = requestRandomWords() */\n      swap1\n      pop\n        /* \"contracts/LotteryFive.sol\":4225:4234  requestId */\n      dup1\n        /* \"contracts/LotteryFive.sol\":4203:4208  draws */\n      0x09\n        /* \"contracts/LotteryFive.sol\":4203:4222  draws[currentRound] */\n      0x00\n        /* \"contracts/LotteryFive.sol\":4209:4221  currentRound */\n      sload(0x08)\n        /* \"contracts/LotteryFive.sol\":4203:4222  draws[currentRound] */\n      dup2\n      mstore\n      0x20\n      add\n      swap1\n      dup2\n      mstore\n      0x20\n      add\n      0x00\n      keccak256\n        /* \"contracts/LotteryFive.sol\":4203:4234  draws[currentRound] = requestId */\n      dup2\n      swap1\n      sstore\n      pop\n        /* \"contracts/LotteryFive.sol\":4245:4260  roundsCompleted */\n      0x07\n        /* \"contracts/LotteryFive.sol\":4266:4278  currentRound */\n      sload(0x08)\n        /* \"contracts/LotteryFive.sol\":4245:4279  roundsCompleted.push(currentRound) */\n      swap1\n      dup1\n      0x01\n      dup2\n      sload\n      add\n      dup1\n      dup3\n      sstore\n      dup1\n      swap2\n      pop\n      pop\n      0x01\n      swap1\n      sub\n      swap1\n      0x00\n      mstore\n      keccak256(0x00, 0x20)\n      add\n      0x00\n      swap1\n      swap2\n      swap1\n      swap2\n      swap1\n      swap2\n      pop\n      sstore\n        /* \"contracts/LotteryFive.sol\":4306:4307  1 */\n      0x01\n        /* \"contracts/LotteryFive.sol\":4290:4302  currentRound */\n      0x08\n      0x00\n        /* \"contracts/LotteryFive.sol\":4290:4307  currentRound += 1 */\n      dup3\n      dup3\n      sload\n      tag_152\n      swap2\n      swap1\n      tag_109\n      jump\t// in\n    tag_152:\n      swap3\n      pop\n      pop\n      dup2\n      swap1\n      sstore\n      pop\n        /* \"contracts/LotteryFive.sol\":4331:4342  roundStates */\n      0x0a\n        /* \"contracts/LotteryFive.sol\":4331:4356  roundStates[currentRound] */\n      0x00\n        /* \"contracts/LotteryFive.sol\":4343:4355  currentRound */\n      sload(0x08)\n        /* \"contracts/LotteryFive.sol\":4331:4356  roundStates[currentRound] */\n      dup2\n      mstore\n      0x20\n      add\n      swap1\n      dup2\n      mstore\n      0x20\n      add\n      0x00\n      keccak256\n        /* \"contracts/LotteryFive.sol\":4318:4356  roundState = roundStates[currentRound] */\n      swap2\n      pop\n        /* \"contracts/LotteryFive.sol\":4371:4377  uint i */\n      0x00\n        /* \"contracts/LotteryFive.sol\":4367:4512  for(uint i = 0; i < 5; i++) {... */\n    tag_153:\n        /* \"contracts/LotteryFive.sol\":4387:4388  5 */\n      0x05\n        /* \"contracts/LotteryFive.sol\":4383:4384  i */\n      dup2\n        /* \"contracts/LotteryFive.sol\":4383:4388  i < 5 */\n      lt\n        /* \"contracts/LotteryFive.sol\":4367:4512  for(uint i = 0; i < 5; i++) {... */\n      iszero\n      tag_154\n      jumpi\n        /* \"contracts/LotteryFive.sol\":4410:4430  Member memory member */\n      0x00\n        /* \"contracts/LotteryFive.sol\":4433:4454  Member(address(0), 0) */\n      mload(0x40)\n      dup1\n      0x40\n      add\n      0x40\n      mstore\n      dup1\n        /* \"contracts/LotteryFive.sol\":4448:4449  0 */\n      0x00\n        /* \"contracts/LotteryFive.sol\":4433:4454  Member(address(0), 0) */\n      0xffffffffffffffffffffffffffffffffffffffff\n      and\n      dup2\n      mstore\n      0x20\n      add\n        /* \"contracts/LotteryFive.sol\":4452:4453  0 */\n      0x00\n        /* \"contracts/LotteryFive.sol\":4433:4454  Member(address(0), 0) */\n      dup2\n      mstore\n      pop\n        /* \"contracts/LotteryFive.sol\":4410:4454  Member memory member = Member(address(0), 0) */\n      swap1\n      pop\n        /* \"contracts/LotteryFive.sol\":4469:4479  roundState */\n      dup4\n        /* \"contracts/LotteryFive.sol\":4469:4487  roundState.members */\n      0x00\n      add\n        /* \"contracts/LotteryFive.sol\":4493:4499  member */\n      dup2\n        /* \"contracts/LotteryFive.sol\":4469:4500  roundState.members.push(member) */\n      swap1\n      dup1\n      0x01\n      dup2\n      sload\n      add\n      dup1\n      dup3\n      sstore\n      dup1\n      swap2\n      pop\n      pop\n      0x01\n      swap1\n      sub\n      swap1\n      0x00\n      mstore\n      keccak256(0x00, 0x20)\n      swap1\n      0x02\n      mul\n      add\n      0x00\n      swap1\n      swap2\n      swap1\n      swap2\n      swap1\n      swap2\n      pop\n      0x00\n      dup3\n      add\n      mload\n      dup2\n      0x00\n      add\n      exp(0x0100, 0x00)\n      dup2\n      sload\n      dup2\n      0xffffffffffffffffffffffffffffffffffffffff\n      mul\n      not\n      and\n      swap1\n      dup4\n      0xffffffffffffffffffffffffffffffffffffffff\n      and\n      mul\n      or\n      swap1\n      sstore\n      pop\n      0x20\n      dup3\n      add\n      mload\n      dup2\n      0x01\n      add\n      sstore\n      pop\n      pop\n        /* \"contracts/LotteryFive.sol\":4395:4512  {... */\n      pop\n        /* \"contracts/LotteryFive.sol\":4390:4393  i++ */\n      dup1\n      dup1\n      tag_157\n      swap1\n      tag_111\n      jump\t// in\n    tag_157:\n      swap2\n      pop\n      pop\n        /* \"contracts/LotteryFive.sol\":4367:4512  for(uint i = 0; i < 5; i++) {... */\n      jump(tag_153)\n    tag_154:\n      pop\n        /* \"contracts/LotteryFive.sol\":4529:4538  requestId */\n      dup1\n        /* \"contracts/LotteryFive.sol\":4522:4538  return requestId */\n      swap3\n      pop\n      pop\n      pop\n        /* \"contracts/LotteryFive.sol\":3907:4547  function performDraw() external onlyOwner returns (uint256) {... */\n      swap1\n      jump\t// out\n        /* \"@chainlink/contracts/src/v0.8/shared/access/ConfirmedOwnerWithProposal.sol\":1026:1342  function acceptOwnership() external override {... */\n    tag_43:\n        /* \"@chainlink/contracts/src/v0.8/shared/access/ConfirmedOwnerWithProposal.sol\":1150:1164  s_pendingOwner */\n      0x01\n      0x00\n      swap1\n      sload\n      swap1\n      0x0100\n      exp\n      swap1\n      div\n      0xffffffffffffffffffffffffffffffffffffffff\n      and\n        /* \"@chainlink/contracts/src/v0.8/shared/access/ConfirmedOwnerWithProposal.sol\":1136:1164  msg.sender == s_pendingOwner */\n      0xffffffffffffffffffffffffffffffffffffffff\n      and\n        /* \"@chainlink/contracts/src/v0.8/shared/access/ConfirmedOwnerWithProposal.sol\":1136:1146  msg.sender */\n      caller\n        /* \"@chainlink/contracts/src/v0.8/shared/access/ConfirmedOwnerWithProposal.sol\":1136:1164  msg.sender == s_pendingOwner */\n      0xffffffffffffffffffffffffffffffffffffffff\n      and\n      eq\n        /* \"@chainlink/contracts/src/v0.8/shared/access/ConfirmedOwnerWithProposal.sol\":1128:1191  require(msg.sender == s_pendingOwner, \"Must be proposed owner\") */\n      tag_159\n      jumpi\n      mload(0x40)\n      0x08c379a000000000000000000000000000000000000000000000000000000000\n      dup2\n      mstore\n      0x04\n      add\n      tag_160\n      swap1\n      tag_161\n      jump\t// in\n    tag_160:\n      mload(0x40)\n      dup1\n      swap2\n      sub\n      swap1\n      revert\n    tag_159:\n        /* \"@chainlink/contracts/src/v0.8/shared/access/ConfirmedOwnerWithProposal.sol\":1198:1214  address oldOwner */\n      0x00\n        /* \"@chainlink/contracts/src/v0.8/shared/access/ConfirmedOwnerWithProposal.sol\":1217:1224  s_owner */\n      dup1\n      0x00\n      swap1\n      sload\n      swap1\n      0x0100\n      exp\n      swap1\n      div\n      0xffffffffffffffffffffffffffffffffffffffff\n      and\n        /* \"@chainlink/contracts/src/v0.8/shared/access/ConfirmedOwnerWithProposal.sol\":1198:1224  address oldOwner = s_owner */\n      swap1\n      pop\n        /* \"@chainlink/contracts/src/v0.8/shared/access/ConfirmedOwnerWithProposal.sol\":1240:1250  msg.sender */\n      caller\n        /* \"@chainlink/contracts/src/v0.8/shared/access/ConfirmedOwnerWithProposal.sol\":1230:1237  s_owner */\n      0x00\n      dup1\n        /* \"@chainlink/contracts/src/v0.8/shared/access/ConfirmedOwnerWithProposal.sol\":1230:1250  s_owner = msg.sender */\n      0x0100\n      exp\n      dup2\n      sload\n      dup2\n      0xffffffffffffffffffffffffffffffffffffffff\n      mul\n      not\n      and\n      swap1\n      dup4\n      0xffffffffffffffffffffffffffffffffffffffff\n      and\n      mul\n      or\n      swap1\n      sstore\n      pop\n        /* \"@chainlink/contracts/src/v0.8/shared/access/ConfirmedOwnerWithProposal.sol\":1281:1282  0 */\n      0x00\n        /* \"@chainlink/contracts/src/v0.8/shared/access/ConfirmedOwnerWithProposal.sol\":1256:1270  s_pendingOwner */\n      0x01\n      0x00\n        /* \"@chainlink/contracts/src/v0.8/shared/access/ConfirmedOwnerWithProposal.sol\":1256:1283  s_pendingOwner = address(0) */\n      0x0100\n      exp\n      dup2\n      sload\n      dup2\n      0xffffffffffffffffffffffffffffffffffffffff\n      mul\n      not\n      and\n      swap1\n      dup4\n      0xffffffffffffffffffffffffffffffffffffffff\n      and\n      mul\n      or\n      swap1\n      sstore\n      pop\n        /* \"@chainlink/contracts/src/v0.8/shared/access/ConfirmedOwnerWithProposal.sol\":1326:1336  msg.sender */\n      caller\n        /* \"@chainlink/contracts/src/v0.8/shared/access/ConfirmedOwnerWithProposal.sol\":1295:1337  OwnershipTransferred(oldOwner, msg.sender) */\n      0xffffffffffffffffffffffffffffffffffffffff\n      and\n        /* \"@chainlink/contracts/src/v0.8/shared/access/ConfirmedOwnerWithProposal.sol\":1316:1324  oldOwner */\n      dup2\n        /* \"@chainlink/contracts/src/v0.8/shared/access/ConfirmedOwnerWithProposal.sol\":1295:1337  OwnershipTransferred(oldOwner, msg.sender) */\n      0xffffffffffffffffffffffffffffffffffffffff\n      and\n      0x8be0079c531659141344cd1fd0a4f28419497f9722a3daafe3b4186f6b6457e0\n      mload(0x40)\n      mload(0x40)\n      dup1\n      swap2\n      sub\n      swap1\n      log3\n        /* \"@chainlink/contracts/src/v0.8/shared/access/ConfirmedOwnerWithProposal.sol\":1071:1342  {... */\n      pop\n        /* \"@chainlink/contracts/src/v0.8/shared/access/ConfirmedOwnerWithProposal.sol\":1026:1342  function acceptOwnership() external override {... */\n      jump\t// out\n        /* \"contracts/LotteryFive.sol\":3132:3156  uint public currentRound */\n    tag_46:\n      sload(0x08)\n      dup2\n      jump\t// out\n        /* \"contracts/LotteryFive.sol\":3096:3125  uint[] public roundsCompleted */\n    tag_51:\n      0x07\n      dup2\n      dup2\n      sload\n      dup2\n      lt\n      tag_162\n      jumpi\n      0x00\n      dup1\n      revert\n    tag_162:\n      swap1\n      0x00\n      mstore\n      keccak256(0x00, 0x20)\n      add\n      0x00\n      swap2\n      pop\n      swap1\n      pop\n      sload\n      dup2\n      jump\t// out\n        /* \"contracts/LotteryFive.sol\":7361:7474  function contractBalance() external onlyOwner view returns (uint) {... */\n    tag_55:\n        /* \"contracts/LotteryFive.sol\":7421:7425  uint */\n      0x00\n        /* \"@chainlink/contracts/src/v0.8/shared/access/ConfirmedOwnerWithProposal.sol\":2075:2095  _validateOwnership() */\n      tag_165\n        /* \"@chainlink/contracts/src/v0.8/shared/access/ConfirmedOwnerWithProposal.sol\":2075:2093  _validateOwnership */\n      tag_144\n        /* \"@chainlink/contracts/src/v0.8/shared/access/ConfirmedOwnerWithProposal.sol\":2075:2095  _validateOwnership() */\n      jump\t// in\n    tag_165:\n        /* \"contracts/LotteryFive.sol\":7445:7466  address(this).balance */\n      selfbalance\n        /* \"contracts/LotteryFive.sol\":7438:7466  return address(this).balance */\n      swap1\n      pop\n        /* \"contracts/LotteryFive.sol\":7361:7474  function contractBalance() external onlyOwner view returns (uint) {... */\n      swap1\n      jump\t// out\n        /* \"@chainlink/contracts/src/v0.8/shared/access/ConfirmedOwnerWithProposal.sol\":1382:1463  function owner() public view override returns (address) {... */\n    tag_59:\n        /* \"@chainlink/contracts/src/v0.8/shared/access/ConfirmedOwnerWithProposal.sol\":1429:1436  address */\n      0x00\n        /* \"@chainlink/contracts/src/v0.8/shared/access/ConfirmedOwnerWithProposal.sol\":1451:1458  s_owner */\n      dup1\n      0x00\n      swap1\n      sload\n      swap1\n      0x0100\n      exp\n      swap1\n      div\n      0xffffffffffffffffffffffffffffffffffffffff\n      and\n        /* \"@chainlink/contracts/src/v0.8/shared/access/ConfirmedOwnerWithProposal.sol\":1444:1458  return s_owner */\n      swap1\n      pop\n        /* \"@chainlink/contracts/src/v0.8/shared/access/ConfirmedOwnerWithProposal.sol\":1382:1463  function owner() public view override returns (address) {... */\n      swap1\n      jump\t// out\n        /* \"contracts/LotteryFive.sol\":2639:2891  function withdrawLink() public onlyOwner {... */\n    tag_63:\n        /* \"@chainlink/contracts/src/v0.8/shared/access/ConfirmedOwnerWithProposal.sol\":2075:2095  _validateOwnership() */\n      tag_169\n        /* \"@chainlink/contracts/src/v0.8/shared/access/ConfirmedOwnerWithProposal.sol\":2075:2093  _validateOwnership */\n      tag_144\n        /* \"@chainlink/contracts/src/v0.8/shared/access/ConfirmedOwnerWithProposal.sol\":2075:2095  _validateOwnership() */\n      jump\t// in\n    tag_169:\n        /* \"contracts/LotteryFive.sol\":2691:2714  LinkTokenInterface link */\n      0x00\n        /* \"contracts/LotteryFive.sol\":2736:2747  linkAddress */\n      0x05\n      0x0a\n      swap1\n      sload\n      swap1\n      0x0100\n      exp\n      swap1\n      div\n      0xffffffffffffffffffffffffffffffffffffffff\n      and\n        /* \"contracts/LotteryFive.sol\":2691:2748  LinkTokenInterface link = LinkTokenInterface(linkAddress) */\n      swap1\n      pop\n        /* \"contracts/LotteryFive.sol\":2781:2785  link */\n      dup1\n        /* \"contracts/LotteryFive.sol\":2781:2794  link.transfer */\n      0xffffffffffffffffffffffffffffffffffffffff\n      and\n      0xa9059cbb\n        /* \"contracts/LotteryFive.sol\":2795:2805  msg.sender */\n      caller\n        /* \"contracts/LotteryFive.sol\":2807:2811  link */\n      dup4\n        /* \"contracts/LotteryFive.sol\":2807:2821  link.balanceOf */\n      0xffffffffffffffffffffffffffffffffffffffff\n      and\n      0x70a08231\n        /* \"contracts/LotteryFive.sol\":2830:2834  this */\n      address\n        /* \"contracts/LotteryFive.sol\":2807:2836  link.balanceOf(address(this)) */\n      mload(0x40)\n      dup3\n      0xffffffff\n      and\n      0xe0\n      shl\n      dup2\n      mstore\n      0x04\n      add\n      tag_171\n      swap2\n      swap1\n      tag_23\n      jump\t// in\n    tag_171:\n      0x20\n      mload(0x40)\n      dup1\n      dup4\n      sub\n      dup2\n      dup7\n      gas\n      staticcall\n      iszero\n      dup1\n      iszero\n      tag_173\n      jumpi\n      returndatasize\n      0x00\n      dup1\n      returndatacopy\n      revert(0x00, returndatasize)\n    tag_173:\n      pop\n      pop\n      pop\n      pop\n      mload(0x40)\n      returndatasize\n      not(0x1f)\n      0x1f\n      dup3\n      add\n      and\n      dup3\n      add\n      dup1\n      0x40\n      mstore\n      pop\n      dup2\n      add\n      swap1\n      tag_174\n      swap2\n      swap1\n      tag_175\n      jump\t// in\n    tag_174:\n        /* \"contracts/LotteryFive.sol\":2781:2837  link.transfer(msg.sender, link.balanceOf(address(this))) */\n      mload(0x40)\n      dup4\n      0xffffffff\n      and\n      0xe0\n      shl\n      dup2\n      mstore\n      0x04\n      add\n      tag_176\n      swap3\n      swap2\n      swap1\n      tag_177\n      jump\t// in\n    tag_176:\n      0x20\n      mload(0x40)\n      dup1\n      dup4\n      sub\n      dup2\n      0x00\n      dup8\n      gas\n      call\n      iszero\n      dup1\n      iszero\n      tag_179\n      jumpi\n      returndatasize\n      0x00\n      dup1\n      returndatacopy\n      revert(0x00, returndatasize)\n    tag_179:\n      pop\n      pop\n      pop\n      pop\n      mload(0x40)\n      returndatasize\n      not(0x1f)\n      0x1f\n      dup3\n      add\n      and\n      dup3\n      add\n      dup1\n      0x40\n      mstore\n      pop\n      dup2\n      add\n      swap1\n      tag_180\n      swap2\n      swap1\n      tag_181\n      jump\t// in\n    tag_180:\n        /* \"contracts/LotteryFive.sol\":2759:2883  require(... */\n      tag_182\n      jumpi\n      mload(0x40)\n      0x08c379a000000000000000000000000000000000000000000000000000000000\n      dup2\n      mstore\n      0x04\n      add\n      tag_183\n      swap1\n      tag_184\n      jump\t// in\n    tag_183:\n      mload(0x40)\n      dup1\n      swap2\n      sub\n      swap1\n      revert\n    tag_182:\n        /* \"contracts/LotteryFive.sol\":2680:2891  {... */\n      pop\n        /* \"contracts/LotteryFive.sol\":2639:2891  function withdrawLink() public onlyOwner {... */\n      jump\t// out\n        /* \"contracts/LotteryFive.sol\":5208:6062  function join() external payable {... */\n    tag_65:\n        /* \"contracts/LotteryFive.sol\":5311:5340  RoundState storage roundState */\n      0x00\n        /* \"contracts/LotteryFive.sol\":5343:5354  roundStates */\n      0x0a\n        /* \"contracts/LotteryFive.sol\":5343:5368  roundStates[currentRound] */\n      0x00\n        /* \"contracts/LotteryFive.sol\":5355:5367  currentRound */\n      sload(0x08)\n        /* \"contracts/LotteryFive.sol\":5343:5368  roundStates[currentRound] */\n      dup2\n      mstore\n      0x20\n      add\n      swap1\n      dup2\n      mstore\n      0x20\n      add\n      0x00\n      keccak256\n        /* \"contracts/LotteryFive.sol\":5311:5368  RoundState storage roundState = roundStates[currentRound] */\n      swap1\n      pop\n        /* \"contracts/LotteryFive.sol\":5411:5412  5 */\n      0x05\n        /* \"contracts/LotteryFive.sol\":5387:5397  roundState */\n      dup2\n        /* \"contracts/LotteryFive.sol\":5387:5408  roundState.numMembers */\n      0x01\n      add\n      sload\n        /* \"contracts/LotteryFive.sol\":5387:5412  roundState.numMembers < 5 */\n      lt\n        /* \"contracts/LotteryFive.sol\":5379:5482  require(roundState.numMembers < 5, \"Number of members are already 5. Please try to join in next round\") */\n      tag_186\n      jumpi\n      mload(0x40)\n      0x08c379a000000000000000000000000000000000000000000000000000000000\n      dup2\n      mstore\n      0x04\n      add\n      tag_187\n      swap1\n      tag_188\n      jump\t// in\n    tag_187:\n      mload(0x40)\n      dup1\n      swap2\n      sub\n      swap1\n      revert\n    tag_186:\n        /* \"contracts/LotteryFive.sol\":5497:5503  uint i */\n      0x00\n        /* \"contracts/LotteryFive.sol\":5493:5643  for(uint i = 0; i < 5; i++) {... */\n    tag_189:\n        /* \"contracts/LotteryFive.sol\":5513:5514  5 */\n      0x05\n        /* \"contracts/LotteryFive.sol\":5509:5510  i */\n      dup2\n        /* \"contracts/LotteryFive.sol\":5509:5514  i < 5 */\n      lt\n        /* \"contracts/LotteryFive.sol\":5493:5643  for(uint i = 0; i < 5; i++) {... */\n      iszero\n      tag_190\n      jumpi\n        /* \"contracts/LotteryFive.sol\":5558:5568  roundState */\n      dup2\n        /* \"contracts/LotteryFive.sol\":5558:5576  roundState.members */\n      0x00\n      add\n        /* \"contracts/LotteryFive.sol\":5577:5578  i */\n      dup2\n        /* \"contracts/LotteryFive.sol\":5558:5579  roundState.members[i] */\n      dup2\n      sload\n      dup2\n      lt\n      tag_192\n      jumpi\n      tag_193\n      tag_81\n      jump\t// in\n    tag_193:\n    tag_192:\n      swap1\n      0x00\n      mstore\n      keccak256(0x00, 0x20)\n      swap1\n      0x02\n      mul\n      add\n        /* \"contracts/LotteryFive.sol\":5558:5584  roundState.members[i].addr */\n      0x00\n      add\n      0x00\n      swap1\n      sload\n      swap1\n      0x0100\n      exp\n      swap1\n      div\n      0xffffffffffffffffffffffffffffffffffffffff\n      and\n        /* \"contracts/LotteryFive.sol\":5544:5584  msg.sender != roundState.members[i].addr */\n      0xffffffffffffffffffffffffffffffffffffffff\n      and\n        /* \"contracts/LotteryFive.sol\":5544:5554  msg.sender */\n      caller\n        /* \"contracts/LotteryFive.sol\":5544:5584  msg.sender != roundState.members[i].addr */\n      0xffffffffffffffffffffffffffffffffffffffff\n      and\n      sub\n        /* \"contracts/LotteryFive.sol\":5536:5631  require(msg.sender != roundState.members[i].addr, \"You have already registered for this round\") */\n      tag_195\n      jumpi\n      mload(0x40)\n      0x08c379a000000000000000000000000000000000000000000000000000000000\n      dup2\n      mstore\n      0x04\n      add\n      tag_196\n      swap1\n      tag_197\n      jump\t// in\n    tag_196:\n      mload(0x40)\n      dup1\n      swap2\n      sub\n      swap1\n      revert\n    tag_195:\n        /* \"contracts/LotteryFive.sol\":5516:5519  i++ */\n      dup1\n      dup1\n      tag_198\n      swap1\n      tag_111\n      jump\t// in\n    tag_198:\n      swap2\n      pop\n      pop\n        /* \"contracts/LotteryFive.sol\":5493:5643  for(uint i = 0; i < 5; i++) {... */\n      jump(tag_189)\n    tag_190:\n      pop\n        /* \"contracts/LotteryFive.sol\":3584:3600  1000000000000000 */\n      0x038d7ea4c68000\n        /* \"contracts/LotteryFive.sol\":5661:5670  msg.value */\n      callvalue\n        /* \"contracts/LotteryFive.sol\":5661:5681  msg.value >= MIN_AMT */\n      lt\n      iszero\n        /* \"contracts/LotteryFive.sol\":5653:5741  require(msg.value >= MIN_AMT, \"You must invest at least 0.001 ETH in the lottery round\") */\n      tag_199\n      jumpi\n      mload(0x40)\n      0x08c379a000000000000000000000000000000000000000000000000000000000\n      dup2\n      mstore\n      0x04\n      add\n      tag_200\n      swap1\n      tag_201\n      jump\t// in\n    tag_200:\n      mload(0x40)\n      dup1\n      swap2\n      sub\n      swap1\n      revert\n    tag_199:\n        /* \"contracts/LotteryFive.sol\":5756:5762  uint i */\n      0x00\n        /* \"contracts/LotteryFive.sol\":5752:6055  for(uint i = 0; i < 5; i++) {... */\n    tag_202:\n        /* \"contracts/LotteryFive.sol\":5772:5773  5 */\n      0x05\n        /* \"contracts/LotteryFive.sol\":5768:5769  i */\n      dup2\n        /* \"contracts/LotteryFive.sol\":5768:5773  i < 5 */\n      lt\n        /* \"contracts/LotteryFive.sol\":5752:6055  for(uint i = 0; i < 5; i++) {... */\n      iszero\n      tag_203\n      jumpi\n        /* \"contracts/LotteryFive.sol\":5837:5838  0 */\n      0x00\n        /* \"contracts/LotteryFive.sol\":5799:5839  roundState.members[i].addr == address(0) */\n      0xffffffffffffffffffffffffffffffffffffffff\n      and\n        /* \"contracts/LotteryFive.sol\":5799:5809  roundState */\n      dup3\n        /* \"contracts/LotteryFive.sol\":5799:5817  roundState.members */\n      0x00\n      add\n        /* \"contracts/LotteryFive.sol\":5818:5819  i */\n      dup3\n        /* \"contracts/LotteryFive.sol\":5799:5820  roundState.members[i] */\n      dup2\n      sload\n      dup2\n      lt\n      tag_205\n      jumpi\n      tag_206\n      tag_81\n      jump\t// in\n    tag_206:\n    tag_205:\n      swap1\n      0x00\n      mstore\n      keccak256(0x00, 0x20)\n      swap1\n      0x02\n      mul\n      add\n        /* \"contracts/LotteryFive.sol\":5799:5825  roundState.members[i].addr */\n      0x00\n      add\n      0x00\n      swap1\n      sload\n      swap1\n      0x0100\n      exp\n      swap1\n      div\n      0xffffffffffffffffffffffffffffffffffffffff\n      and\n        /* \"contracts/LotteryFive.sol\":5799:5839  roundState.members[i].addr == address(0) */\n      0xffffffffffffffffffffffffffffffffffffffff\n      and\n      sub\n        /* \"contracts/LotteryFive.sol\":5795:6044  if (roundState.members[i].addr == address(0)) {... */\n      tag_208\n      jumpi\n        /* \"contracts/LotteryFive.sol\":5889:5899  msg.sender */\n      caller\n        /* \"contracts/LotteryFive.sol\":5860:5870  roundState */\n      dup3\n        /* \"contracts/LotteryFive.sol\":5860:5878  roundState.members */\n      0x00\n      add\n        /* \"contracts/LotteryFive.sol\":5879:5880  i */\n      dup3\n        /* \"contracts/LotteryFive.sol\":5860:5881  roundState.members[i] */\n      dup2\n      sload\n      dup2\n      lt\n      tag_209\n      jumpi\n      tag_210\n      tag_81\n      jump\t// in\n    tag_210:\n    tag_209:\n      swap1\n      0x00\n      mstore\n      keccak256(0x00, 0x20)\n      swap1\n      0x02\n      mul\n      add\n        /* \"contracts/LotteryFive.sol\":5860:5886  roundState.members[i].addr */\n      0x00\n      add\n      0x00\n        /* \"contracts/LotteryFive.sol\":5860:5899  roundState.members[i].addr = msg.sender */\n      0x0100\n      exp\n      dup2\n      sload\n      dup2\n      0xffffffffffffffffffffffffffffffffffffffff\n      mul\n      not\n      and\n      swap1\n      dup4\n      0xffffffffffffffffffffffffffffffffffffffff\n      and\n      mul\n      or\n      swap1\n      sstore\n      pop\n        /* \"contracts/LotteryFive.sol\":5949:5958  msg.value */\n      callvalue\n        /* \"contracts/LotteryFive.sol\":5918:5928  roundState */\n      dup3\n        /* \"contracts/LotteryFive.sol\":5918:5936  roundState.members */\n      0x00\n      add\n        /* \"contracts/LotteryFive.sol\":5937:5938  i */\n      dup3\n        /* \"contracts/LotteryFive.sol\":5918:5939  roundState.members[i] */\n      dup2\n      sload\n      dup2\n      lt\n      tag_212\n      jumpi\n      tag_213\n      tag_81\n      jump\t// in\n    tag_213:\n    tag_212:\n      swap1\n      0x00\n      mstore\n      keccak256(0x00, 0x20)\n      swap1\n      0x02\n      mul\n      add\n        /* \"contracts/LotteryFive.sol\":5918:5946  roundState.members[i].amount */\n      0x01\n      add\n        /* \"contracts/LotteryFive.sol\":5918:5958  roundState.members[i].amount = msg.value */\n      dup2\n      swap1\n      sstore\n      pop\n        /* \"contracts/LotteryFive.sol\":6002:6003  1 */\n      0x01\n        /* \"contracts/LotteryFive.sol\":5977:5987  roundState */\n      dup3\n        /* \"contracts/LotteryFive.sol\":5977:5998  roundState.numMembers */\n      0x01\n      add\n      0x00\n        /* \"contracts/LotteryFive.sol\":5977:6003  roundState.numMembers += 1 */\n      dup3\n      dup3\n      sload\n      tag_215\n      swap2\n      swap1\n      tag_109\n      jump\t// in\n    tag_215:\n      swap3\n      pop\n      pop\n      dup2\n      swap1\n      sstore\n      pop\n        /* \"contracts/LotteryFive.sol\":6022:6029  return; */\n      pop\n      pop\n      jump(tag_185)\n        /* \"contracts/LotteryFive.sol\":5795:6044  if (roundState.members[i].addr == address(0)) {... */\n    tag_208:\n        /* \"contracts/LotteryFive.sol\":5775:5778  i++ */\n      dup1\n      dup1\n      tag_216\n      swap1\n      tag_111\n      jump\t// in\n    tag_216:\n      swap2\n      pop\n      pop\n        /* \"contracts/LotteryFive.sol\":5752:6055  for(uint i = 0; i < 5; i++) {... */\n      jump(tag_202)\n    tag_203:\n      pop\n        /* \"contracts/LotteryFive.sol\":5241:6062  {... */\n      pop\n        /* \"contracts/LotteryFive.sol\":5208:6062  function join() external payable {... */\n    tag_185:\n      jump\t// out\n        /* \"@chainlink/contracts/src/v0.8/shared/access/ConfirmedOwnerWithProposal.sol\":847:945  function transferOwnership(address to) public override onlyOwner {... */\n    tag_70:\n        /* \"@chainlink/contracts/src/v0.8/shared/access/ConfirmedOwnerWithProposal.sol\":2075:2095  _validateOwnership() */\n      tag_218\n        /* \"@chainlink/contracts/src/v0.8/shared/access/ConfirmedOwnerWithProposal.sol\":2075:2093  _validateOwnership */\n      tag_144\n        /* \"@chainlink/contracts/src/v0.8/shared/access/ConfirmedOwnerWithProposal.sol\":2075:2095  _validateOwnership() */\n      jump\t// in\n    tag_218:\n        /* \"@chainlink/contracts/src/v0.8/shared/access/ConfirmedOwnerWithProposal.sol\":918:940  _transferOwnership(to) */\n      tag_220\n        /* \"@chainlink/contracts/src/v0.8/shared/access/ConfirmedOwnerWithProposal.sol\":937:939  to */\n      dup2\n        /* \"@chainlink/contracts/src/v0.8/shared/access/ConfirmedOwnerWithProposal.sol\":918:936  _transferOwnership */\n      tag_221\n        /* \"@chainlink/contracts/src/v0.8/shared/access/ConfirmedOwnerWithProposal.sol\":918:940  _transferOwnership(to) */\n      jump\t// in\n    tag_220:\n        /* \"@chainlink/contracts/src/v0.8/shared/access/ConfirmedOwnerWithProposal.sol\":847:945  function transferOwnership(address to) public override onlyOwner {... */\n      pop\n      jump\t// out\n        /* \"contracts/LotteryFive.sol\":2245:2557  function fulfillRandomWords(... */\n    tag_93:\n        /* \"contracts/LotteryFive.sol\":2416:2417  0 */\n      0x00\n        /* \"contracts/LotteryFive.sol\":2386:2396  s_requests */\n      0x02\n        /* \"contracts/LotteryFive.sol\":2386:2408  s_requests[_requestId] */\n      0x00\n        /* \"contracts/LotteryFive.sol\":2397:2407  _requestId */\n      dup5\n        /* \"contracts/LotteryFive.sol\":2386:2408  s_requests[_requestId] */\n      dup2\n      mstore\n      0x20\n      add\n      swap1\n      dup2\n      mstore\n      0x20\n      add\n      0x00\n      keccak256\n        /* \"contracts/LotteryFive.sol\":2386:2413  s_requests[_requestId].paid */\n      0x00\n      add\n      sload\n        /* \"contracts/LotteryFive.sol\":2386:2417  s_requests[_requestId].paid > 0 */\n      gt\n        /* \"contracts/LotteryFive.sol\":2378:2439  require(s_requests[_requestId].paid > 0, \"request not found\") */\n      tag_223\n      jumpi\n      mload(0x40)\n      0x08c379a000000000000000000000000000000000000000000000000000000000\n      dup2\n      mstore\n      0x04\n      add\n      tag_224\n      swap1\n      tag_225\n      jump\t// in\n    tag_224:\n      mload(0x40)\n      dup1\n      swap2\n      sub\n      swap1\n      revert\n    tag_223:\n        /* \"contracts/LotteryFive.sol\":2485:2489  true */\n      0x01\n        /* \"contracts/LotteryFive.sol\":2450:2460  s_requests */\n      0x02\n        /* \"contracts/LotteryFive.sol\":2450:2472  s_requests[_requestId] */\n      0x00\n        /* \"contracts/LotteryFive.sol\":2461:2471  _requestId */\n      dup5\n        /* \"contracts/LotteryFive.sol\":2450:2472  s_requests[_requestId] */\n      dup2\n      mstore\n      0x20\n      add\n      swap1\n      dup2\n      mstore\n      0x20\n      add\n      0x00\n      keccak256\n        /* \"contracts/LotteryFive.sol\":2450:2482  s_requests[_requestId].fulfilled */\n      0x01\n      add\n      0x00\n        /* \"contracts/LotteryFive.sol\":2450:2489  s_requests[_requestId].fulfilled = true */\n      0x0100\n      exp\n      dup2\n      sload\n      dup2\n      0xff\n      mul\n      not\n      and\n      swap1\n      dup4\n      iszero\n      iszero\n      mul\n      or\n      swap1\n      sstore\n      pop\n        /* \"contracts/LotteryFive.sol\":2537:2549  _randomWords */\n      dup1\n        /* \"contracts/LotteryFive.sol\":2500:2510  s_requests */\n      0x02\n        /* \"contracts/LotteryFive.sol\":2500:2522  s_requests[_requestId] */\n      0x00\n        /* \"contracts/LotteryFive.sol\":2511:2521  _requestId */\n      dup5\n        /* \"contracts/LotteryFive.sol\":2500:2522  s_requests[_requestId] */\n      dup2\n      mstore\n      0x20\n      add\n      swap1\n      dup2\n      mstore\n      0x20\n      add\n      0x00\n      keccak256\n        /* \"contracts/LotteryFive.sol\":2500:2534  s_requests[_requestId].randomWords */\n      0x02\n      add\n        /* \"contracts/LotteryFive.sol\":2500:2549  s_requests[_requestId].randomWords = _randomWords */\n      swap1\n      dup1\n      mload\n      swap1\n      0x20\n      add\n      swap1\n      tag_226\n      swap3\n      swap2\n      swap1\n      tag_227\n      jump\t// in\n    tag_226:\n      pop\n        /* \"contracts/LotteryFive.sol\":2245:2557  function fulfillRandomWords(... */\n      pop\n      pop\n      jump\t// out\n        /* \"@chainlink/contracts/src/v0.8/shared/access/ConfirmedOwnerWithProposal.sol\":1809:1971  function _validateOwnership() internal view {... */\n    tag_144:\n        /* \"@chainlink/contracts/src/v0.8/shared/access/ConfirmedOwnerWithProposal.sol\":1932:1939  s_owner */\n      0x00\n      dup1\n      sload\n      swap1\n      0x0100\n      exp\n      swap1\n      div\n      0xffffffffffffffffffffffffffffffffffffffff\n      and\n        /* \"@chainlink/contracts/src/v0.8/shared/access/ConfirmedOwnerWithProposal.sol\":1918:1939  msg.sender == s_owner */\n      0xffffffffffffffffffffffffffffffffffffffff\n      and\n        /* \"@chainlink/contracts/src/v0.8/shared/access/ConfirmedOwnerWithProposal.sol\":1918:1928  msg.sender */\n      caller\n        /* \"@chainlink/contracts/src/v0.8/shared/access/ConfirmedOwnerWithProposal.sol\":1918:1939  msg.sender == s_owner */\n      0xffffffffffffffffffffffffffffffffffffffff\n      and\n      eq\n        /* \"@chainlink/contracts/src/v0.8/shared/access/ConfirmedOwnerWithProposal.sol\":1910:1966  require(msg.sender == s_owner, \"Only callable by owner\") */\n      tag_229\n      jumpi\n      mload(0x40)\n      0x08c379a000000000000000000000000000000000000000000000000000000000\n      dup2\n      mstore\n      0x04\n      add\n      tag_230\n      swap1\n      tag_231\n      jump\t// in\n    tag_230:\n      mload(0x40)\n      dup1\n      swap2\n      sub\n      swap1\n      revert\n    tag_229:\n        /* \"@chainlink/contracts/src/v0.8/shared/access/ConfirmedOwnerWithProposal.sol\":1809:1971  function _validateOwnership() internal view {... */\n      jump\t// out\n        /* \"contracts/LotteryFive.sol\":1669:2237  function requestRandomWords()... */\n    tag_150:\n        /* \"contracts/LotteryFive.sol\":1754:1771  uint256 requestId */\n      0x00\n        /* \"@chainlink/contracts/src/v0.8/shared/access/ConfirmedOwnerWithProposal.sol\":2075:2095  _validateOwnership() */\n      tag_233\n        /* \"@chainlink/contracts/src/v0.8/shared/access/ConfirmedOwnerWithProposal.sol\":2075:2093  _validateOwnership */\n      tag_144\n        /* \"@chainlink/contracts/src/v0.8/shared/access/ConfirmedOwnerWithProposal.sol\":2075:2095  _validateOwnership() */\n      jump\t// in\n    tag_233:\n        /* \"contracts/LotteryFive.sol\":1801:1918  requestRandomness(... */\n      tag_235\n        /* \"contracts/LotteryFive.sol\":1833:1849  callbackGasLimit */\n      0x05\n      0x00\n      swap1\n      sload\n      swap1\n      0x0100\n      exp\n      swap1\n      div\n      0xffffffff\n      and\n        /* \"contracts/LotteryFive.sol\":1864:1884  requestConfirmations */\n      0x05\n      0x04\n      swap1\n      sload\n      swap1\n      0x0100\n      exp\n      swap1\n      div\n      0xffff\n      and\n        /* \"contracts/LotteryFive.sol\":1899:1907  numWords */\n      0x05\n      0x06\n      swap1\n      sload\n      swap1\n      0x0100\n      exp\n      swap1\n      div\n      0xffffffff\n      and\n        /* \"contracts/LotteryFive.sol\":1801:1818  requestRandomness */\n      tag_236\n        /* \"contracts/LotteryFive.sol\":1801:1918  requestRandomness(... */\n      jump\t// in\n    tag_235:\n        /* \"contracts/LotteryFive.sol\":1789:1918  requestId = requestRandomness(... */\n      swap1\n      pop\n        /* \"contracts/LotteryFive.sol\":1953:2129  RequestStatus({... */\n      mload(0x40)\n      dup1\n      0x60\n      add\n      0x40\n      mstore\n      dup1\n        /* \"contracts/LotteryFive.sol\":1988:2002  VRF_V2_WRAPPER */\n      immutable(\"0xf6cb0138da7c8b3468e7e4d8ba389a3263d4efb90e59a6ce914e87b867b16a00\")\n        /* \"contracts/LotteryFive.sol\":1988:2024  VRF_V2_WRAPPER.calculateRequestPrice */\n      0xffffffffffffffffffffffffffffffffffffffff\n      and\n      0x4306d354\n        /* \"contracts/LotteryFive.sol\":2025:2041  callbackGasLimit */\n      0x05\n      0x00\n      swap1\n      sload\n      swap1\n      0x0100\n      exp\n      swap1\n      div\n      0xffffffff\n      and\n        /* \"contracts/LotteryFive.sol\":1988:2042  VRF_V2_WRAPPER.calculateRequestPrice(callbackGasLimit) */\n      mload(0x40)\n      dup3\n      0xffffffff\n      and\n      0xe0\n      shl\n      dup2\n      mstore\n      0x04\n      add\n      tag_237\n      swap2\n      swap1\n      tag_238\n      jump\t// in\n    tag_237:\n      0x20\n      mload(0x40)\n      dup1\n      dup4\n      sub\n      dup2\n      dup7\n      gas\n      staticcall\n      iszero\n      dup1\n      iszero\n      tag_240\n      jumpi\n      returndatasize\n      0x00\n      dup1\n      returndatacopy\n      revert(0x00, returndatasize)\n    tag_240:\n      pop\n      pop\n      pop\n      pop\n      mload(0x40)\n      returndatasize\n      not(0x1f)\n      0x1f\n      dup3\n      add\n      and\n      dup3\n      add\n      dup1\n      0x40\n      mstore\n      pop\n      dup2\n      add\n      swap1\n      tag_241\n      swap2\n      swap1\n      tag_175\n      jump\t// in\n    tag_241:\n        /* \"contracts/LotteryFive.sol\":1953:2129  RequestStatus({... */\n      dup2\n      mstore\n      0x20\n      add\n        /* \"contracts/LotteryFive.sol\":2112:2117  false */\n      0x00\n        /* \"contracts/LotteryFive.sol\":1953:2129  RequestStatus({... */\n      iszero\n      iszero\n      dup2\n      mstore\n      0x20\n      add\n        /* \"contracts/LotteryFive.sol\":2084:2085  0 */\n      0x00\n        /* \"contracts/LotteryFive.sol\":2070:2086  new uint256[](0) */\n      0xffffffffffffffff\n      dup2\n      gt\n      iszero\n      tag_242\n      jumpi\n      tag_243\n      tag_244\n      jump\t// in\n    tag_243:\n    tag_242:\n      mload(0x40)\n      swap1\n      dup1\n      dup3\n      mstore\n      dup1\n      0x20\n      mul\n      0x20\n      add\n      dup3\n      add\n      0x40\n      mstore\n      dup1\n      iszero\n      tag_245\n      jumpi\n      dup2\n      0x20\n      add\n      0x20\n      dup3\n      mul\n      dup1\n      calldatasize\n      dup4\n      calldatacopy\n      dup1\n      dup3\n      add\n      swap2\n      pop\n      pop\n      swap1\n      pop\n    tag_245:\n      pop\n        /* \"contracts/LotteryFive.sol\":1953:2129  RequestStatus({... */\n      dup2\n      mstore\n      pop\n        /* \"contracts/LotteryFive.sol\":1929:1939  s_requests */\n      0x02\n        /* \"contracts/LotteryFive.sol\":1929:1950  s_requests[requestId] */\n      0x00\n        /* \"contracts/LotteryFive.sol\":1940:1949  requestId */\n      dup4\n        /* \"contracts/LotteryFive.sol\":1929:1950  s_requests[requestId] */\n      dup2\n      mstore\n      0x20\n      add\n      swap1\n      dup2\n      mstore\n      0x20\n      add\n      0x00\n      keccak256\n        /* \"contracts/LotteryFive.sol\":1929:2129  s_requests[requestId] = RequestStatus({... */\n      0x00\n      dup3\n      add\n      mload\n      dup2\n      0x00\n      add\n      sstore\n      0x20\n      dup3\n      add\n      mload\n      dup2\n      0x01\n      add\n      exp(0x0100, 0x00)\n      dup2\n      sload\n      dup2\n      0xff\n      mul\n      not\n      and\n      swap1\n      dup4\n      iszero\n      iszero\n      mul\n      or\n      swap1\n      sstore\n      pop\n      0x40\n      dup3\n      add\n      mload\n      dup2\n      0x02\n      add\n      swap1\n      dup1\n      mload\n      swap1\n      0x20\n      add\n      swap1\n      tag_246\n      swap3\n      swap2\n      swap1\n      tag_227\n      jump\t// in\n    tag_246:\n      pop\n      swap1\n      pop\n      pop\n        /* \"contracts/LotteryFive.sol\":2140:2150  requestIds */\n      0x03\n        /* \"contracts/LotteryFive.sol\":2156:2165  requestId */\n      dup2\n        /* \"contracts/LotteryFive.sol\":2140:2166  requestIds.push(requestId) */\n      swap1\n      dup1\n      0x01\n      dup2\n      sload\n      add\n      dup1\n      dup3\n      sstore\n      dup1\n      swap2\n      pop\n      pop\n      0x01\n      swap1\n      sub\n      swap1\n      0x00\n      mstore\n      keccak256(0x00, 0x20)\n      add\n      0x00\n      swap1\n      swap2\n      swap1\n      swap2\n      swap1\n      swap2\n      pop\n      sstore\n        /* \"contracts/LotteryFive.sol\":2193:2202  requestId */\n      dup1\n        /* \"contracts/LotteryFive.sol\":2177:2190  lastRequestId */\n      0x04\n        /* \"contracts/LotteryFive.sol\":2177:2202  lastRequestId = requestId */\n      dup2\n      swap1\n      sstore\n      pop\n        /* \"contracts/LotteryFive.sol\":1669:2237  function requestRandomWords()... */\n      swap1\n      jump\t// out\n        /* \"@chainlink/contracts/src/v0.8/shared/access/ConfirmedOwnerWithProposal.sol\":1536:1775  function _transferOwnership(address to) private {... */\n    tag_221:\n        /* \"@chainlink/contracts/src/v0.8/shared/access/ConfirmedOwnerWithProposal.sol\":1655:1665  msg.sender */\n      caller\n        /* \"@chainlink/contracts/src/v0.8/shared/access/ConfirmedOwnerWithProposal.sol\":1649:1665  to != msg.sender */\n      0xffffffffffffffffffffffffffffffffffffffff\n      and\n        /* \"@chainlink/contracts/src/v0.8/shared/access/ConfirmedOwnerWithProposal.sol\":1649:1651  to */\n      dup2\n        /* \"@chainlink/contracts/src/v0.8/shared/access/ConfirmedOwnerWithProposal.sol\":1649:1665  to != msg.sender */\n      0xffffffffffffffffffffffffffffffffffffffff\n      and\n      sub\n        /* \"@chainlink/contracts/src/v0.8/shared/access/ConfirmedOwnerWithProposal.sol\":1641:1693  require(to != msg.sender, \"Cannot transfer to self\") */\n      tag_249\n      jumpi\n      mload(0x40)\n      0x08c379a000000000000000000000000000000000000000000000000000000000\n      dup2\n      mstore\n      0x04\n      add\n      tag_250\n      swap1\n      tag_251\n      jump\t// in\n    tag_250:\n      mload(0x40)\n      dup1\n      swap2\n      sub\n      swap1\n      revert\n    tag_249:\n        /* \"@chainlink/contracts/src/v0.8/shared/access/ConfirmedOwnerWithProposal.sol\":1717:1719  to */\n      dup1\n        /* \"@chainlink/contracts/src/v0.8/shared/access/ConfirmedOwnerWithProposal.sol\":1700:1714  s_pendingOwner */\n      0x01\n      0x00\n        /* \"@chainlink/contracts/src/v0.8/shared/access/ConfirmedOwnerWithProposal.sol\":1700:1719  s_pendingOwner = to */\n      0x0100\n      exp\n      dup2\n      sload\n      dup2\n      0xffffffffffffffffffffffffffffffffffffffff\n      mul\n      not\n      and\n      swap1\n      dup4\n      0xffffffffffffffffffffffffffffffffffffffff\n      and\n      mul\n      or\n      swap1\n      sstore\n      pop\n        /* \"@chainlink/contracts/src/v0.8/shared/access/ConfirmedOwnerWithProposal.sol\":1767:1769  to */\n      dup1\n        /* \"@chainlink/contracts/src/v0.8/shared/access/ConfirmedOwnerWithProposal.sol\":1731:1770  OwnershipTransferRequested(s_owner, to) */\n      0xffffffffffffffffffffffffffffffffffffffff\n      and\n        /* \"@chainlink/contracts/src/v0.8/shared/access/ConfirmedOwnerWithProposal.sol\":1758:1765  s_owner */\n      0x00\n      dup1\n      sload\n      swap1\n      0x0100\n      exp\n      swap1\n      div\n      0xffffffffffffffffffffffffffffffffffffffff\n      and\n        /* \"@chainlink/contracts/src/v0.8/shared/access/ConfirmedOwnerWithProposal.sol\":1731:1770  OwnershipTransferRequested(s_owner, to) */\n      0xffffffffffffffffffffffffffffffffffffffff\n      and\n      0xed8889f560326eb138920d842192f0eb3dd22b4f139c87a2c57538e05bae1278\n      mload(0x40)\n      mload(0x40)\n      dup1\n      swap2\n      sub\n      swap1\n      log3\n        /* \"@chainlink/contracts/src/v0.8/shared/access/ConfirmedOwnerWithProposal.sol\":1536:1775  function _transferOwnership(address to) private {... */\n      pop\n      jump\t// out\n        /* \"@chainlink/contracts/src/v0.8/vrf/VRFV2WrapperConsumerBase.sol\":2968:3367  function requestRandomness(... */\n    tag_236:\n        /* \"@chainlink/contracts/src/v0.8/vrf/VRFV2WrapperConsumerBase.sol\":3103:3120  uint256 requestId */\n      0x00\n        /* \"@chainlink/contracts/src/v0.8/vrf/VRFV2WrapperConsumerBase.sol\":3128:3132  LINK */\n      immutable(\"0x064aab4cf973af3102587bae83caeab28cf75517d40727c9b952f0d14fb521fa\")\n        /* \"@chainlink/contracts/src/v0.8/vrf/VRFV2WrapperConsumerBase.sol\":3128:3148  LINK.transferAndCall */\n      0xffffffffffffffffffffffffffffffffffffffff\n      and\n      0x4000aea0\n        /* \"@chainlink/contracts/src/v0.8/vrf/VRFV2WrapperConsumerBase.sol\":3164:3178  VRF_V2_WRAPPER */\n      immutable(\"0xf6cb0138da7c8b3468e7e4d8ba389a3263d4efb90e59a6ce914e87b867b16a00\")\n        /* \"@chainlink/contracts/src/v0.8/vrf/VRFV2WrapperConsumerBase.sol\":3187:3201  VRF_V2_WRAPPER */\n      immutable(\"0xf6cb0138da7c8b3468e7e4d8ba389a3263d4efb90e59a6ce914e87b867b16a00\")\n        /* \"@chainlink/contracts/src/v0.8/vrf/VRFV2WrapperConsumerBase.sol\":3187:3223  VRF_V2_WRAPPER.calculateRequestPrice */\n      0xffffffffffffffffffffffffffffffffffffffff\n      and\n      0x4306d354\n        /* \"@chainlink/contracts/src/v0.8/vrf/VRFV2WrapperConsumerBase.sol\":3224:3241  _callbackGasLimit */\n      dup9\n        /* \"@chainlink/contracts/src/v0.8/vrf/VRFV2WrapperConsumerBase.sol\":3187:3242  VRF_V2_WRAPPER.calculateRequestPrice(_callbackGasLimit) */\n      mload(0x40)\n      dup3\n      0xffffffff\n      and\n      0xe0\n      shl\n      dup2\n      mstore\n      0x04\n      add\n      tag_253\n      swap2\n      swap1\n      tag_238\n      jump\t// in\n    tag_253:\n      0x20\n      mload(0x40)\n      dup1\n      dup4\n      sub\n      dup2\n      dup7\n      gas\n      staticcall\n      iszero\n      dup1\n      iszero\n      tag_255\n      jumpi\n      returndatasize\n      0x00\n      dup1\n      returndatacopy\n      revert(0x00, returndatasize)\n    tag_255:\n      pop\n      pop\n      pop\n      pop\n      mload(0x40)\n      returndatasize\n      not(0x1f)\n      0x1f\n      dup3\n      add\n      and\n      dup3\n      add\n      dup1\n      0x40\n      mstore\n      pop\n      dup2\n      add\n      swap1\n      tag_256\n      swap2\n      swap1\n      tag_175\n      jump\t// in\n    tag_256:\n        /* \"@chainlink/contracts/src/v0.8/vrf/VRFV2WrapperConsumerBase.sol\":3261:3278  _callbackGasLimit */\n      dup8\n        /* \"@chainlink/contracts/src/v0.8/vrf/VRFV2WrapperConsumerBase.sol\":3280:3301  _requestConfirmations */\n      dup8\n        /* \"@chainlink/contracts/src/v0.8/vrf/VRFV2WrapperConsumerBase.sol\":3303:3312  _numWords */\n      dup8\n        /* \"@chainlink/contracts/src/v0.8/vrf/VRFV2WrapperConsumerBase.sol\":3250:3313  abi.encode(_callbackGasLimit, _requestConfirmations, _numWords) */\n      add(0x20, mload(0x40))\n      tag_257\n      swap4\n      swap3\n      swap2\n      swap1\n      tag_258\n      jump\t// in\n    tag_257:\n      mload(0x40)\n      0x20\n      dup2\n      dup4\n      sub\n      sub\n      dup2\n      mstore\n      swap1\n      0x40\n      mstore\n        /* \"@chainlink/contracts/src/v0.8/vrf/VRFV2WrapperConsumerBase.sol\":3128:3319  LINK.transferAndCall(... */\n      mload(0x40)\n      dup5\n      0xffffffff\n      and\n      0xe0\n      shl\n      dup2\n      mstore\n      0x04\n      add\n      tag_259\n      swap4\n      swap3\n      swap2\n      swap1\n      tag_260\n      jump\t// in\n    tag_259:\n      0x20\n      mload(0x40)\n      dup1\n      dup4\n      sub\n      dup2\n      0x00\n      dup8\n      gas\n      call\n      iszero\n      dup1\n      iszero\n      tag_262\n      jumpi\n      returndatasize\n      0x00\n      dup1\n      returndatacopy\n      revert(0x00, returndatasize)\n    tag_262:\n      pop\n      pop\n      pop\n      pop\n      mload(0x40)\n      returndatasize\n      not(0x1f)\n      0x1f\n      dup3\n      add\n      and\n      dup3\n      add\n      dup1\n      0x40\n      mstore\n      pop\n      dup2\n      add\n      swap1\n      tag_263\n      swap2\n      swap1\n      tag_181\n      jump\t// in\n    tag_263:\n      pop\n        /* \"@chainlink/contracts/src/v0.8/vrf/VRFV2WrapperConsumerBase.sol\":3332:3346  VRF_V2_WRAPPER */\n      immutable(\"0xf6cb0138da7c8b3468e7e4d8ba389a3263d4efb90e59a6ce914e87b867b16a00\")\n        /* \"@chainlink/contracts/src/v0.8/vrf/VRFV2WrapperConsumerBase.sol\":3332:3360  VRF_V2_WRAPPER.lastRequestId */\n      0xffffffffffffffffffffffffffffffffffffffff\n      and\n      0xfc2a88c3\n        /* \"@chainlink/contracts/src/v0.8/vrf/VRFV2WrapperConsumerBase.sol\":3332:3362  VRF_V2_WRAPPER.lastRequestId() */\n      mload(0x40)\n      dup2\n      0xffffffff\n      and\n      0xe0\n      shl\n      dup2\n      mstore\n      0x04\n      add\n      0x20\n      mload(0x40)\n      dup1\n      dup4\n      sub\n      dup2\n      dup7\n      gas\n      staticcall\n      iszero\n      dup1\n      iszero\n      tag_265\n      jumpi\n      returndatasize\n      0x00\n      dup1\n      returndatacopy\n      revert(0x00, returndatasize)\n    tag_265:\n      pop\n      pop\n      pop\n      pop\n      mload(0x40)\n      returndatasize\n      not(0x1f)\n      0x1f\n      dup3\n      add\n      and\n      dup3\n      add\n      dup1\n      0x40\n      mstore\n      pop\n      dup2\n      add\n      swap1\n      tag_266\n      swap2\n      swap1\n      tag_175\n      jump\t// in\n    tag_266:\n        /* \"@chainlink/contracts/src/v0.8/vrf/VRFV2WrapperConsumerBase.sol\":3325:3362  return VRF_V2_WRAPPER.lastRequestId() */\n      swap1\n      pop\n        /* \"@chainlink/contracts/src/v0.8/vrf/VRFV2WrapperConsumerBase.sol\":2968:3367  function requestRandomness(... */\n      swap4\n      swap3\n      pop\n      pop\n      pop\n      jump\t// out\n    tag_227:\n      dup3\n      dup1\n      sload\n      dup3\n      dup3\n      sstore\n      swap1\n      0x00\n      mstore\n      keccak256(0x00, 0x20)\n      swap1\n      dup2\n      add\n      swap3\n      dup3\n      iszero\n      tag_267\n      jumpi\n      swap2\n      0x20\n      mul\n      dup3\n      add\n    tag_268:\n      dup3\n      dup2\n      gt\n      iszero\n      tag_269\n      jumpi\n      dup3\n      mload\n      dup3\n      sstore\n      swap2\n      0x20\n      add\n      swap2\n      swap1\n      0x01\n      add\n      swap1\n      jump(tag_268)\n    tag_269:\n    tag_267:\n      pop\n      swap1\n      pop\n      tag_270\n      swap2\n      swap1\n      tag_271\n      jump\t// in\n    tag_270:\n      pop\n      swap1\n      jump\t// out\n    tag_271:\n    tag_272:\n      dup1\n      dup3\n      gt\n      iszero\n      tag_273\n      jumpi\n      0x00\n      dup2\n      0x00\n      swap1\n      sstore\n      pop\n      0x01\n      add\n      jump(tag_272)\n    tag_273:\n      pop\n      swap1\n      jump\t// out\n        /* \"#utility.yul\":7:82   */\n    tag_274:\n        /* \"#utility.yul\":40:46   */\n      0x00\n        /* \"#utility.yul\":73:75   */\n      0x40\n        /* \"#utility.yul\":67:76   */\n      mload\n        /* \"#utility.yul\":57:76   */\n      swap1\n      pop\n        /* \"#utility.yul\":7:82   */\n      swap1\n      jump\t// out\n        /* \"#utility.yul\":88:205   */\n    tag_275:\n        /* \"#utility.yul\":197:198   */\n      0x00\n        /* \"#utility.yul\":194:195   */\n      dup1\n        /* \"#utility.yul\":187:199   */\n      revert\n        /* \"#utility.yul\":211:328   */\n    tag_276:\n        /* \"#utility.yul\":320:321   */\n      0x00\n        /* \"#utility.yul\":317:318   */\n      dup1\n        /* \"#utility.yul\":310:322   */\n      revert\n        /* \"#utility.yul\":334:411   */\n    tag_277:\n        /* \"#utility.yul\":371:378   */\n      0x00\n        /* \"#utility.yul\":400:405   */\n      dup2\n        /* \"#utility.yul\":389:405   */\n      swap1\n      pop\n        /* \"#utility.yul\":334:411   */\n      swap2\n      swap1\n      pop\n      jump\t// out\n        /* \"#utility.yul\":417:539   */\n    tag_278:\n        /* \"#utility.yul\":490:514   */\n      tag_343\n        /* \"#utility.yul\":508:513   */\n      dup2\n        /* \"#utility.yul\":490:514   */\n      tag_277\n      jump\t// in\n    tag_343:\n        /* \"#utility.yul\":483:488   */\n      dup2\n        /* \"#utility.yul\":480:515   */\n      eq\n        /* \"#utility.yul\":470:533   */\n      tag_344\n      jumpi\n        /* \"#utility.yul\":529:530   */\n      0x00\n        /* \"#utility.yul\":526:527   */\n      dup1\n        /* \"#utility.yul\":519:531   */\n      revert\n        /* \"#utility.yul\":470:533   */\n    tag_344:\n        /* \"#utility.yul\":417:539   */\n      pop\n      jump\t// out\n        /* \"#utility.yul\":545:684   */\n    tag_279:\n        /* \"#utility.yul\":591:596   */\n      0x00\n        /* \"#utility.yul\":629:635   */\n      dup2\n        /* \"#utility.yul\":616:636   */\n      calldataload\n        /* \"#utility.yul\":607:636   */\n      swap1\n      pop\n        /* \"#utility.yul\":645:678   */\n      tag_346\n        /* \"#utility.yul\":672:677   */\n      dup2\n        /* \"#utility.yul\":645:678   */\n      tag_278\n      jump\t// in\n    tag_346:\n        /* \"#utility.yul\":545:684   */\n      swap3\n      swap2\n      pop\n      pop\n      jump\t// out\n        /* \"#utility.yul\":690:1019   */\n    tag_20:\n        /* \"#utility.yul\":749:755   */\n      0x00\n        /* \"#utility.yul\":798:800   */\n      0x20\n        /* \"#utility.yul\":786:795   */\n      dup3\n        /* \"#utility.yul\":777:784   */\n      dup5\n        /* \"#utility.yul\":773:796   */\n      sub\n        /* \"#utility.yul\":769:801   */\n      slt\n        /* \"#utility.yul\":766:885   */\n      iszero\n      tag_348\n      jumpi\n        /* \"#utility.yul\":804:883   */\n      tag_349\n      tag_275\n      jump\t// in\n    tag_349:\n        /* \"#utility.yul\":766:885   */\n    tag_348:\n        /* \"#utility.yul\":924:925   */\n      0x00\n        /* \"#utility.yul\":949:1002   */\n      tag_350\n        /* \"#utility.yul\":994:1001   */\n      dup5\n        /* \"#utility.yul\":985:991   */\n      dup3\n        /* \"#utility.yul\":974:983   */\n      dup6\n        /* \"#utility.yul\":970:992   */\n      add\n        /* \"#utility.yul\":949:1002   */\n      tag_279\n      jump\t// in\n    tag_350:\n        /* \"#utility.yul\":939:1002   */\n      swap2\n      pop\n        /* \"#utility.yul\":895:1012   */\n      pop\n        /* \"#utility.yul\":690:1019   */\n      swap3\n      swap2\n      pop\n      pop\n      jump\t// out\n        /* \"#utility.yul\":1025:1151   */\n    tag_280:\n        /* \"#utility.yul\":1062:1069   */\n      0x00\n        /* \"#utility.yul\":1102:1144   */\n      0xffffffffffffffffffffffffffffffffffffffff\n        /* \"#utility.yul\":1095:1100   */\n      dup3\n        /* \"#utility.yul\":1091:1145   */\n      and\n        /* \"#utility.yul\":1080:1145   */\n      swap1\n      pop\n        /* \"#utility.yul\":1025:1151   */\n      swap2\n      swap1\n      pop\n      jump\t// out\n        /* \"#utility.yul\":1157:1253   */\n    tag_281:\n        /* \"#utility.yul\":1194:1201   */\n      0x00\n        /* \"#utility.yul\":1223:1247   */\n      tag_353\n        /* \"#utility.yul\":1241:1246   */\n      dup3\n        /* \"#utility.yul\":1223:1247   */\n      tag_280\n      jump\t// in\n    tag_353:\n        /* \"#utility.yul\":1212:1247   */\n      swap1\n      pop\n        /* \"#utility.yul\":1157:1253   */\n      swap2\n      swap1\n      pop\n      jump\t// out\n        /* \"#utility.yul\":1259:1377   */\n    tag_282:\n        /* \"#utility.yul\":1346:1370   */\n      tag_355\n        /* \"#utility.yul\":1364:1369   */\n      dup2\n        /* \"#utility.yul\":1346:1370   */\n      tag_281\n      jump\t// in\n    tag_355:\n        /* \"#utility.yul\":1341:1344   */\n      dup3\n        /* \"#utility.yul\":1334:1371   */\n      mstore\n        /* \"#utility.yul\":1259:1377   */\n      pop\n      pop\n      jump\t// out\n        /* \"#utility.yul\":1383:1605   */\n    tag_23:\n        /* \"#utility.yul\":1476:1480   */\n      0x00\n        /* \"#utility.yul\":1514:1516   */\n      0x20\n        /* \"#utility.yul\":1503:1512   */\n      dup3\n        /* \"#utility.yul\":1499:1517   */\n      add\n        /* \"#utility.yul\":1491:1517   */\n      swap1\n      pop\n        /* \"#utility.yul\":1527:1598   */\n      tag_357\n        /* \"#utility.yul\":1595:1596   */\n      0x00\n        /* \"#utility.yul\":1584:1593   */\n      dup4\n        /* \"#utility.yul\":1580:1597   */\n      add\n        /* \"#utility.yul\":1571:1577   */\n      dup5\n        /* \"#utility.yul\":1527:1598   */\n      tag_282\n      jump\t// in\n    tag_357:\n        /* \"#utility.yul\":1383:1605   */\n      swap3\n      swap2\n      pop\n      pop\n      jump\t// out\n        /* \"#utility.yul\":1611:1728   */\n    tag_283:\n        /* \"#utility.yul\":1720:1721   */\n      0x00\n        /* \"#utility.yul\":1717:1718   */\n      dup1\n        /* \"#utility.yul\":1710:1722   */\n      revert\n        /* \"#utility.yul\":1734:1836   */\n    tag_284:\n        /* \"#utility.yul\":1775:1781   */\n      0x00\n        /* \"#utility.yul\":1826:1828   */\n      0x1f\n        /* \"#utility.yul\":1822:1829   */\n      not\n        /* \"#utility.yul\":1817:1819   */\n      0x1f\n        /* \"#utility.yul\":1810:1815   */\n      dup4\n        /* \"#utility.yul\":1806:1820   */\n      add\n        /* \"#utility.yul\":1802:1830   */\n      and\n        /* \"#utility.yul\":1792:1830   */\n      swap1\n      pop\n        /* \"#utility.yul\":1734:1836   */\n      swap2\n      swap1\n      pop\n      jump\t// out\n        /* \"#utility.yul\":1842:2022   */\n    tag_244:\n        /* \"#utility.yul\":1890:1967   */\n      0x4e487b7100000000000000000000000000000000000000000000000000000000\n        /* \"#utility.yul\":1887:1888   */\n      0x00\n        /* \"#utility.yul\":1880:1968   */\n      mstore\n        /* \"#utility.yul\":1987:1991   */\n      0x41\n        /* \"#utility.yul\":1984:1985   */\n      0x04\n        /* \"#utility.yul\":1977:1992   */\n      mstore\n        /* \"#utility.yul\":2011:2015   */\n      0x24\n        /* \"#utility.yul\":2008:2009   */\n      0x00\n        /* \"#utility.yul\":2001:2016   */\n      revert\n        /* \"#utility.yul\":2028:2309   */\n    tag_285:\n        /* \"#utility.yul\":2111:2138   */\n      tag_362\n        /* \"#utility.yul\":2133:2137   */\n      dup3\n        /* \"#utility.yul\":2111:2138   */\n      tag_284\n      jump\t// in\n    tag_362:\n        /* \"#utility.yul\":2103:2109   */\n      dup2\n        /* \"#utility.yul\":2099:2139   */\n      add\n        /* \"#utility.yul\":2241:2247   */\n      dup2\n        /* \"#utility.yul\":2229:2239   */\n      dup2\n        /* \"#utility.yul\":2226:2248   */\n      lt\n        /* \"#utility.yul\":2205:2223   */\n      0xffffffffffffffff\n        /* \"#utility.yul\":2193:2203   */\n      dup3\n        /* \"#utility.yul\":2190:2224   */\n      gt\n        /* \"#utility.yul\":2187:2249   */\n      or\n        /* \"#utility.yul\":2184:2272   */\n      iszero\n      tag_363\n      jumpi\n        /* \"#utility.yul\":2252:2270   */\n      tag_364\n      tag_244\n      jump\t// in\n    tag_364:\n        /* \"#utility.yul\":2184:2272   */\n    tag_363:\n        /* \"#utility.yul\":2292:2302   */\n      dup1\n        /* \"#utility.yul\":2288:2290   */\n      0x40\n        /* \"#utility.yul\":2281:2303   */\n      mstore\n        /* \"#utility.yul\":2071:2309   */\n      pop\n        /* \"#utility.yul\":2028:2309   */\n      pop\n      pop\n      jump\t// out\n        /* \"#utility.yul\":2315:2444   */\n    tag_286:\n        /* \"#utility.yul\":2349:2355   */\n      0x00\n        /* \"#utility.yul\":2376:2396   */\n      tag_366\n      tag_274\n      jump\t// in\n    tag_366:\n        /* \"#utility.yul\":2366:2396   */\n      swap1\n      pop\n        /* \"#utility.yul\":2405:2438   */\n      tag_367\n        /* \"#utility.yul\":2433:2437   */\n      dup3\n        /* \"#utility.yul\":2425:2431   */\n      dup3\n        /* \"#utility.yul\":2405:2438   */\n      tag_285\n      jump\t// in\n    tag_367:\n        /* \"#utility.yul\":2315:2444   */\n      swap2\n      swap1\n      pop\n      jump\t// out\n        /* \"#utility.yul\":2450:2761   */\n    tag_287:\n        /* \"#utility.yul\":2527:2531   */\n      0x00\n        /* \"#utility.yul\":2617:2635   */\n      0xffffffffffffffff\n        /* \"#utility.yul\":2609:2615   */\n      dup3\n        /* \"#utility.yul\":2606:2636   */\n      gt\n        /* \"#utility.yul\":2603:2659   */\n      iszero\n      tag_369\n      jumpi\n        /* \"#utility.yul\":2639:2657   */\n      tag_370\n      tag_244\n      jump\t// in\n    tag_370:\n        /* \"#utility.yul\":2603:2659   */\n    tag_369:\n        /* \"#utility.yul\":2689:2693   */\n      0x20\n        /* \"#utility.yul\":2681:2687   */\n      dup3\n        /* \"#utility.yul\":2677:2694   */\n      mul\n        /* \"#utility.yul\":2669:2694   */\n      swap1\n      pop\n        /* \"#utility.yul\":2749:2753   */\n      0x20\n        /* \"#utility.yul\":2743:2747   */\n      dup2\n        /* \"#utility.yul\":2739:2754   */\n      add\n        /* \"#utility.yul\":2731:2754   */\n      swap1\n      pop\n        /* \"#utility.yul\":2450:2761   */\n      swap2\n      swap1\n      pop\n      jump\t// out\n        /* \"#utility.yul\":2767:2884   */\n    tag_288:\n        /* \"#utility.yul\":2876:2877   */\n      0x00\n        /* \"#utility.yul\":2873:2874   */\n      dup1\n        /* \"#utility.yul\":2866:2878   */\n      revert\n        /* \"#utility.yul\":2907:3617   */\n    tag_289:\n        /* \"#utility.yul\":3003:3008   */\n      0x00\n        /* \"#utility.yul\":3028:3109   */\n      tag_373\n        /* \"#utility.yul\":3044:3108   */\n      tag_374\n        /* \"#utility.yul\":3101:3107   */\n      dup5\n        /* \"#utility.yul\":3044:3108   */\n      tag_287\n      jump\t// in\n    tag_374:\n        /* \"#utility.yul\":3028:3109   */\n      tag_286\n      jump\t// in\n    tag_373:\n        /* \"#utility.yul\":3019:3109   */\n      swap1\n      pop\n        /* \"#utility.yul\":3129:3134   */\n      dup1\n        /* \"#utility.yul\":3158:3164   */\n      dup4\n        /* \"#utility.yul\":3151:3156   */\n      dup3\n        /* \"#utility.yul\":3144:3165   */\n      mstore\n        /* \"#utility.yul\":3192:3196   */\n      0x20\n        /* \"#utility.yul\":3185:3190   */\n      dup3\n        /* \"#utility.yul\":3181:3197   */\n      add\n        /* \"#utility.yul\":3174:3197   */\n      swap1\n      pop\n        /* \"#utility.yul\":3245:3249   */\n      0x20\n        /* \"#utility.yul\":3237:3243   */\n      dup5\n        /* \"#utility.yul\":3233:3250   */\n      mul\n        /* \"#utility.yul\":3225:3231   */\n      dup4\n        /* \"#utility.yul\":3221:3251   */\n      add\n        /* \"#utility.yul\":3274:3277   */\n      dup6\n        /* \"#utility.yul\":3266:3272   */\n      dup2\n        /* \"#utility.yul\":3263:3278   */\n      gt\n        /* \"#utility.yul\":3260:3382   */\n      iszero\n      tag_375\n      jumpi\n        /* \"#utility.yul\":3293:3372   */\n      tag_376\n      tag_288\n      jump\t// in\n    tag_376:\n        /* \"#utility.yul\":3260:3382   */\n    tag_375:\n        /* \"#utility.yul\":3408:3414   */\n      dup4\n        /* \"#utility.yul\":3391:3611   */\n    tag_377:\n        /* \"#utility.yul\":3425:3431   */\n      dup2\n        /* \"#utility.yul\":3420:3423   */\n      dup2\n        /* \"#utility.yul\":3417:3432   */\n      lt\n        /* \"#utility.yul\":3391:3611   */\n      iszero\n      tag_379\n      jumpi\n        /* \"#utility.yul\":3500:3503   */\n      dup1\n        /* \"#utility.yul\":3529:3566   */\n      tag_380\n        /* \"#utility.yul\":3562:3565   */\n      dup9\n        /* \"#utility.yul\":3550:3560   */\n      dup3\n        /* \"#utility.yul\":3529:3566   */\n      tag_279\n      jump\t// in\n    tag_380:\n        /* \"#utility.yul\":3524:3527   */\n      dup5\n        /* \"#utility.yul\":3517:3567   */\n      mstore\n        /* \"#utility.yul\":3596:3600   */\n      0x20\n        /* \"#utility.yul\":3591:3594   */\n      dup5\n        /* \"#utility.yul\":3587:3601   */\n      add\n        /* \"#utility.yul\":3580:3601   */\n      swap4\n      pop\n        /* \"#utility.yul\":3467:3611   */\n      pop\n        /* \"#utility.yul\":3451:3455   */\n      0x20\n        /* \"#utility.yul\":3446:3449   */\n      dup2\n        /* \"#utility.yul\":3442:3456   */\n      add\n        /* \"#utility.yul\":3435:3456   */\n      swap1\n      pop\n        /* \"#utility.yul\":3391:3611   */\n      jump(tag_377)\n    tag_379:\n        /* \"#utility.yul\":3395:3416   */\n      pop\n        /* \"#utility.yul\":3009:3617   */\n      pop\n      pop\n        /* \"#utility.yul\":2907:3617   */\n      swap4\n      swap3\n      pop\n      pop\n      pop\n      jump\t// out\n        /* \"#utility.yul\":3640:4010   */\n    tag_290:\n        /* \"#utility.yul\":3711:3716   */\n      0x00\n        /* \"#utility.yul\":3760:3763   */\n      dup3\n        /* \"#utility.yul\":3753:3757   */\n      0x1f\n        /* \"#utility.yul\":3745:3751   */\n      dup4\n        /* \"#utility.yul\":3741:3758   */\n      add\n        /* \"#utility.yul\":3737:3764   */\n      slt\n        /* \"#utility.yul\":3727:3849   */\n      tag_382\n      jumpi\n        /* \"#utility.yul\":3768:3847   */\n      tag_383\n      tag_283\n      jump\t// in\n    tag_383:\n        /* \"#utility.yul\":3727:3849   */\n    tag_382:\n        /* \"#utility.yul\":3885:3891   */\n      dup2\n        /* \"#utility.yul\":3872:3892   */\n      calldataload\n        /* \"#utility.yul\":3910:4004   */\n      tag_384\n        /* \"#utility.yul\":4000:4003   */\n      dup5\n        /* \"#utility.yul\":3992:3998   */\n      dup3\n        /* \"#utility.yul\":3985:3989   */\n      0x20\n        /* \"#utility.yul\":3977:3983   */\n      dup7\n        /* \"#utility.yul\":3973:3990   */\n      add\n        /* \"#utility.yul\":3910:4004   */\n      tag_289\n      jump\t// in\n    tag_384:\n        /* \"#utility.yul\":3901:4004   */\n      swap2\n      pop\n        /* \"#utility.yul\":3717:4010   */\n      pop\n        /* \"#utility.yul\":3640:4010   */\n      swap3\n      swap2\n      pop\n      pop\n      jump\t// out\n        /* \"#utility.yul\":4016:4700   */\n    tag_27:\n        /* \"#utility.yul\":4109:4115   */\n      0x00\n        /* \"#utility.yul\":4117:4123   */\n      dup1\n        /* \"#utility.yul\":4166:4168   */\n      0x40\n        /* \"#utility.yul\":4154:4163   */\n      dup4\n        /* \"#utility.yul\":4145:4152   */\n      dup6\n        /* \"#utility.yul\":4141:4164   */\n      sub\n        /* \"#utility.yul\":4137:4169   */\n      slt\n        /* \"#utility.yul\":4134:4253   */\n      iszero\n      tag_386\n      jumpi\n        /* \"#utility.yul\":4172:4251   */\n      tag_387\n      tag_275\n      jump\t// in\n    tag_387:\n        /* \"#utility.yul\":4134:4253   */\n    tag_386:\n        /* \"#utility.yul\":4292:4293   */\n      0x00\n        /* \"#utility.yul\":4317:4370   */\n      tag_388\n        /* \"#utility.yul\":4362:4369   */\n      dup6\n        /* \"#utility.yul\":4353:4359   */\n      dup3\n        /* \"#utility.yul\":4342:4351   */\n      dup7\n        /* \"#utility.yul\":4338:4360   */\n      add\n        /* \"#utility.yul\":4317:4370   */\n      tag_279\n      jump\t// in\n    tag_388:\n        /* \"#utility.yul\":4307:4370   */\n      swap3\n      pop\n        /* \"#utility.yul\":4263:4380   */\n      pop\n        /* \"#utility.yul\":4447:4449   */\n      0x20\n        /* \"#utility.yul\":4436:4445   */\n      dup4\n        /* \"#utility.yul\":4432:4450   */\n      add\n        /* \"#utility.yul\":4419:4451   */\n      calldataload\n        /* \"#utility.yul\":4478:4496   */\n      0xffffffffffffffff\n        /* \"#utility.yul\":4470:4476   */\n      dup2\n        /* \"#utility.yul\":4467:4497   */\n      gt\n        /* \"#utility.yul\":4464:4581   */\n      iszero\n      tag_389\n      jumpi\n        /* \"#utility.yul\":4500:4579   */\n      tag_390\n      tag_276\n      jump\t// in\n    tag_390:\n        /* \"#utility.yul\":4464:4581   */\n    tag_389:\n        /* \"#utility.yul\":4605:4683   */\n      tag_391\n        /* \"#utility.yul\":4675:4682   */\n      dup6\n        /* \"#utility.yul\":4666:4672   */\n      dup3\n        /* \"#utility.yul\":4655:4664   */\n      dup7\n        /* \"#utility.yul\":4651:4673   */\n      add\n        /* \"#utility.yul\":4605:4683   */\n      tag_290\n      jump\t// in\n    tag_391:\n        /* \"#utility.yul\":4595:4683   */\n      swap2\n      pop\n        /* \"#utility.yul\":4390:4693   */\n      pop\n        /* \"#utility.yul\":4016:4700   */\n      swap3\n      pop\n      swap3\n      swap1\n      pop\n      jump\t// out\n        /* \"#utility.yul\":4706:4824   */\n    tag_291:\n        /* \"#utility.yul\":4793:4817   */\n      tag_393\n        /* \"#utility.yul\":4811:4816   */\n      dup2\n        /* \"#utility.yul\":4793:4817   */\n      tag_277\n      jump\t// in\n    tag_393:\n        /* \"#utility.yul\":4788:4791   */\n      dup3\n        /* \"#utility.yul\":4781:4818   */\n      mstore\n        /* \"#utility.yul\":4706:4824   */\n      pop\n      pop\n      jump\t// out\n        /* \"#utility.yul\":4830:5052   */\n    tag_40:\n        /* \"#utility.yul\":4923:4927   */\n      0x00\n        /* \"#utility.yul\":4961:4963   */\n      0x20\n        /* \"#utility.yul\":4950:4959   */\n      dup3\n        /* \"#utility.yul\":4946:4964   */\n      add\n        /* \"#utility.yul\":4938:4964   */\n      swap1\n      pop\n        /* \"#utility.yul\":4974:5045   */\n      tag_395\n        /* \"#utility.yul\":5042:5043   */\n      0x00\n        /* \"#utility.yul\":5031:5040   */\n      dup4\n        /* \"#utility.yul\":5027:5044   */\n      add\n        /* \"#utility.yul\":5018:5024   */\n      dup5\n        /* \"#utility.yul\":4974:5045   */\n      tag_291\n      jump\t// in\n    tag_395:\n        /* \"#utility.yul\":4830:5052   */\n      swap3\n      swap2\n      pop\n      pop\n      jump\t// out\n        /* \"#utility.yul\":5058:5180   */\n    tag_292:\n        /* \"#utility.yul\":5131:5155   */\n      tag_397\n        /* \"#utility.yul\":5149:5154   */\n      dup2\n        /* \"#utility.yul\":5131:5155   */\n      tag_281\n      jump\t// in\n    tag_397:\n        /* \"#utility.yul\":5124:5129   */\n      dup2\n        /* \"#utility.yul\":5121:5156   */\n      eq\n        /* \"#utility.yul\":5111:5174   */\n      tag_398\n      jumpi\n        /* \"#utility.yul\":5170:5171   */\n      0x00\n        /* \"#utility.yul\":5167:5168   */\n      dup1\n        /* \"#utility.yul\":5160:5172   */\n      revert\n        /* \"#utility.yul\":5111:5174   */\n    tag_398:\n        /* \"#utility.yul\":5058:5180   */\n      pop\n      jump\t// out\n        /* \"#utility.yul\":5186:5325   */\n    tag_293:\n        /* \"#utility.yul\":5232:5237   */\n      0x00\n        /* \"#utility.yul\":5270:5276   */\n      dup2\n        /* \"#utility.yul\":5257:5277   */\n      calldataload\n        /* \"#utility.yul\":5248:5277   */\n      swap1\n      pop\n        /* \"#utility.yul\":5286:5319   */\n      tag_400\n        /* \"#utility.yul\":5313:5318   */\n      dup2\n        /* \"#utility.yul\":5286:5319   */\n      tag_292\n      jump\t// in\n    tag_400:\n        /* \"#utility.yul\":5186:5325   */\n      swap3\n      swap2\n      pop\n      pop\n      jump\t// out\n        /* \"#utility.yul\":5331:5660   */\n    tag_69:\n        /* \"#utility.yul\":5390:5396   */\n      0x00\n        /* \"#utility.yul\":5439:5441   */\n      0x20\n        /* \"#utility.yul\":5427:5436   */\n      dup3\n        /* \"#utility.yul\":5418:5425   */\n      dup5\n        /* \"#utility.yul\":5414:5437   */\n      sub\n        /* \"#utility.yul\":5410:5442   */\n      slt\n        /* \"#utility.yul\":5407:5526   */\n      iszero\n      tag_402\n      jumpi\n        /* \"#utility.yul\":5445:5524   */\n      tag_403\n      tag_275\n      jump\t// in\n    tag_403:\n        /* \"#utility.yul\":5407:5526   */\n    tag_402:\n        /* \"#utility.yul\":5565:5566   */\n      0x00\n        /* \"#utility.yul\":5590:5643   */\n      tag_404\n        /* \"#utility.yul\":5635:5642   */\n      dup5\n        /* \"#utility.yul\":5626:5632   */\n      dup3\n        /* \"#utility.yul\":5615:5624   */\n      dup6\n        /* \"#utility.yul\":5611:5633   */\n      add\n        /* \"#utility.yul\":5590:5643   */\n      tag_293\n      jump\t// in\n    tag_404:\n        /* \"#utility.yul\":5580:5643   */\n      swap2\n      pop\n        /* \"#utility.yul\":5536:5653   */\n      pop\n        /* \"#utility.yul\":5331:5660   */\n      swap3\n      swap2\n      pop\n      pop\n      jump\t// out\n        /* \"#utility.yul\":5666:5835   */\n    tag_294:\n        /* \"#utility.yul\":5750:5761   */\n      0x00\n        /* \"#utility.yul\":5784:5790   */\n      dup3\n        /* \"#utility.yul\":5779:5782   */\n      dup3\n        /* \"#utility.yul\":5772:5791   */\n      mstore\n        /* \"#utility.yul\":5824:5828   */\n      0x20\n        /* \"#utility.yul\":5819:5822   */\n      dup3\n        /* \"#utility.yul\":5815:5829   */\n      add\n        /* \"#utility.yul\":5800:5829   */\n      swap1\n      pop\n        /* \"#utility.yul\":5666:5835   */\n      swap3\n      swap2\n      pop\n      pop\n      jump\t// out\n        /* \"#utility.yul\":5841:6019   */\n    tag_295:\n        /* \"#utility.yul\":5981:6011   */\n      0x726f756e64206d7573742062652067726561746572207468616e203000000000\n        /* \"#utility.yul\":5977:5978   */\n      0x00\n        /* \"#utility.yul\":5969:5975   */\n      dup3\n        /* \"#utility.yul\":5965:5979   */\n      add\n        /* \"#utility.yul\":5958:6012   */\n      mstore\n        /* \"#utility.yul\":5841:6019   */\n      pop\n      jump\t// out\n        /* \"#utility.yul\":6025:6391   */\n    tag_296:\n        /* \"#utility.yul\":6167:6170   */\n      0x00\n        /* \"#utility.yul\":6188:6255   */\n      tag_408\n        /* \"#utility.yul\":6252:6254   */\n      0x1c\n        /* \"#utility.yul\":6247:6250   */\n      dup4\n        /* \"#utility.yul\":6188:6255   */\n      tag_294\n      jump\t// in\n    tag_408:\n        /* \"#utility.yul\":6181:6255   */\n      swap2\n      pop\n        /* \"#utility.yul\":6264:6357   */\n      tag_409\n        /* \"#utility.yul\":6353:6356   */\n      dup3\n        /* \"#utility.yul\":6264:6357   */\n      tag_295\n      jump\t// in\n    tag_409:\n        /* \"#utility.yul\":6382:6384   */\n      0x20\n        /* \"#utility.yul\":6377:6380   */\n      dup3\n        /* \"#utility.yul\":6373:6385   */\n      add\n        /* \"#utility.yul\":6366:6385   */\n      swap1\n      pop\n        /* \"#utility.yul\":6025:6391   */\n      swap2\n      swap1\n      pop\n      jump\t// out\n        /* \"#utility.yul\":6397:6816   */\n    tag_74:\n        /* \"#utility.yul\":6563:6567   */\n      0x00\n        /* \"#utility.yul\":6601:6603   */\n      0x20\n        /* \"#utility.yul\":6590:6599   */\n      dup3\n        /* \"#utility.yul\":6586:6604   */\n      add\n        /* \"#utility.yul\":6578:6604   */\n      swap1\n      pop\n        /* \"#utility.yul\":6650:6659   */\n      dup2\n        /* \"#utility.yul\":6644:6648   */\n      dup2\n        /* \"#utility.yul\":6640:6660   */\n      sub\n        /* \"#utility.yul\":6636:6637   */\n      0x00\n        /* \"#utility.yul\":6625:6634   */\n      dup4\n        /* \"#utility.yul\":6621:6638   */\n      add\n        /* \"#utility.yul\":6614:6661   */\n      mstore\n        /* \"#utility.yul\":6678:6809   */\n      tag_411\n        /* \"#utility.yul\":6804:6808   */\n      dup2\n        /* \"#utility.yul\":6678:6809   */\n      tag_296\n      jump\t// in\n    tag_411:\n        /* \"#utility.yul\":6670:6809   */\n      swap1\n      pop\n        /* \"#utility.yul\":6397:6816   */\n      swap2\n      swap1\n      pop\n      jump\t// out\n        /* \"#utility.yul\":6822:7050   */\n    tag_297:\n        /* \"#utility.yul\":6962:6996   */\n      0x726f756e64206d757374206265206c657373207468616e207468652063757272\n        /* \"#utility.yul\":6958:6959   */\n      0x00\n        /* \"#utility.yul\":6950:6956   */\n      dup3\n        /* \"#utility.yul\":6946:6960   */\n      add\n        /* \"#utility.yul\":6939:6997   */\n      mstore\n        /* \"#utility.yul\":7031:7042   */\n      0x656e7420726f756e640000000000000000000000000000000000000000000000\n        /* \"#utility.yul\":7026:7028   */\n      0x20\n        /* \"#utility.yul\":7018:7024   */\n      dup3\n        /* \"#utility.yul\":7014:7029   */\n      add\n        /* \"#utility.yul\":7007:7043   */\n      mstore\n        /* \"#utility.yul\":6822:7050   */\n      pop\n      jump\t// out\n        /* \"#utility.yul\":7056:7422   */\n    tag_298:\n        /* \"#utility.yul\":7198:7201   */\n      0x00\n        /* \"#utility.yul\":7219:7286   */\n      tag_414\n        /* \"#utility.yul\":7283:7285   */\n      0x29\n        /* \"#utility.yul\":7278:7281   */\n      dup4\n        /* \"#utility.yul\":7219:7286   */\n      tag_294\n      jump\t// in\n    tag_414:\n        /* \"#utility.yul\":7212:7286   */\n      swap2\n      pop\n        /* \"#utility.yul\":7295:7388   */\n      tag_415\n        /* \"#utility.yul\":7384:7387   */\n      dup3\n        /* \"#utility.yul\":7295:7388   */\n      tag_297\n      jump\t// in\n    tag_415:\n        /* \"#utility.yul\":7413:7415   */\n      0x40\n        /* \"#utility.yul\":7408:7411   */\n      dup3\n        /* \"#utility.yul\":7404:7416   */\n      add\n        /* \"#utility.yul\":7397:7416   */\n      swap1\n      pop\n        /* \"#utility.yul\":7056:7422   */\n      swap2\n      swap1\n      pop\n      jump\t// out\n        /* \"#utility.yul\":7428:7847   */\n    tag_77:\n        /* \"#utility.yul\":7594:7598   */\n      0x00\n        /* \"#utility.yul\":7632:7634   */\n      0x20\n        /* \"#utility.yul\":7621:7630   */\n      dup3\n        /* \"#utility.yul\":7617:7635   */\n      add\n        /* \"#utility.yul\":7609:7635   */\n      swap1\n      pop\n        /* \"#utility.yul\":7681:7690   */\n      dup2\n        /* \"#utility.yul\":7675:7679   */\n      dup2\n        /* \"#utility.yul\":7671:7691   */\n      sub\n        /* \"#utility.yul\":7667:7668   */\n      0x00\n        /* \"#utility.yul\":7656:7665   */\n      dup4\n        /* \"#utility.yul\":7652:7669   */\n      add\n        /* \"#utility.yul\":7645:7692   */\n      mstore\n        /* \"#utility.yul\":7709:7840   */\n      tag_417\n        /* \"#utility.yul\":7835:7839   */\n      dup2\n        /* \"#utility.yul\":7709:7840   */\n      tag_298\n      jump\t// in\n    tag_417:\n        /* \"#utility.yul\":7701:7840   */\n      swap1\n      pop\n        /* \"#utility.yul\":7428:7847   */\n      swap2\n      swap1\n      pop\n      jump\t// out\n        /* \"#utility.yul\":7853:8033   */\n    tag_81:\n        /* \"#utility.yul\":7901:7978   */\n      0x4e487b7100000000000000000000000000000000000000000000000000000000\n        /* \"#utility.yul\":7898:7899   */\n      0x00\n        /* \"#utility.yul\":7891:7979   */\n      mstore\n        /* \"#utility.yul\":7998:8002   */\n      0x32\n        /* \"#utility.yul\":7995:7996   */\n      0x04\n        /* \"#utility.yul\":7988:8003   */\n      mstore\n        /* \"#utility.yul\":8022:8026   */\n      0x24\n        /* \"#utility.yul\":8019:8020   */\n      0x00\n        /* \"#utility.yul\":8012:8027   */\n      revert\n        /* \"#utility.yul\":8039:8219   */\n    tag_299:\n        /* \"#utility.yul\":8087:8164   */\n      0x4e487b7100000000000000000000000000000000000000000000000000000000\n        /* \"#utility.yul\":8084:8085   */\n      0x00\n        /* \"#utility.yul\":8077:8165   */\n      mstore\n        /* \"#utility.yul\":8184:8188   */\n      0x12\n        /* \"#utility.yul\":8181:8182   */\n      0x04\n        /* \"#utility.yul\":8174:8189   */\n      mstore\n        /* \"#utility.yul\":8208:8212   */\n      0x24\n        /* \"#utility.yul\":8205:8206   */\n      0x00\n        /* \"#utility.yul\":8198:8213   */\n      revert\n        /* \"#utility.yul\":8225:8401   */\n    tag_84:\n        /* \"#utility.yul\":8257:8258   */\n      0x00\n        /* \"#utility.yul\":8274:8294   */\n      tag_421\n        /* \"#utility.yul\":8292:8293   */\n      dup3\n        /* \"#utility.yul\":8274:8294   */\n      tag_277\n      jump\t// in\n    tag_421:\n        /* \"#utility.yul\":8269:8294   */\n      swap2\n      pop\n        /* \"#utility.yul\":8308:8328   */\n      tag_422\n        /* \"#utility.yul\":8326:8327   */\n      dup4\n        /* \"#utility.yul\":8308:8328   */\n      tag_277\n      jump\t// in\n    tag_422:\n        /* \"#utility.yul\":8303:8328   */\n      swap3\n      pop\n        /* \"#utility.yul\":8347:8348   */\n      dup3\n        /* \"#utility.yul\":8337:8372   */\n      tag_423\n      jumpi\n        /* \"#utility.yul\":8352:8370   */\n      tag_424\n      tag_299\n      jump\t// in\n    tag_424:\n        /* \"#utility.yul\":8337:8372   */\n    tag_423:\n        /* \"#utility.yul\":8393:8394   */\n      dup3\n        /* \"#utility.yul\":8390:8391   */\n      dup3\n        /* \"#utility.yul\":8386:8395   */\n      mod\n        /* \"#utility.yul\":8381:8395   */\n      swap1\n      pop\n        /* \"#utility.yul\":8225:8401   */\n      swap3\n      swap2\n      pop\n      pop\n      jump\t// out\n        /* \"#utility.yul\":8407:8588   */\n    tag_300:\n        /* \"#utility.yul\":8547:8580   */\n      0x6f6e6c792056524620563220777261707065722063616e2066756c66696c6c00\n        /* \"#utility.yul\":8543:8544   */\n      0x00\n        /* \"#utility.yul\":8535:8541   */\n      dup3\n        /* \"#utility.yul\":8531:8545   */\n      add\n        /* \"#utility.yul\":8524:8581   */\n      mstore\n        /* \"#utility.yul\":8407:8588   */\n      pop\n      jump\t// out\n        /* \"#utility.yul\":8594:8960   */\n    tag_301:\n        /* \"#utility.yul\":8736:8739   */\n      0x00\n        /* \"#utility.yul\":8757:8824   */\n      tag_427\n        /* \"#utility.yul\":8821:8823   */\n      0x1f\n        /* \"#utility.yul\":8816:8819   */\n      dup4\n        /* \"#utility.yul\":8757:8824   */\n      tag_294\n      jump\t// in\n    tag_427:\n        /* \"#utility.yul\":8750:8824   */\n      swap2\n      pop\n        /* \"#utility.yul\":8833:8926   */\n      tag_428\n        /* \"#utility.yul\":8922:8925   */\n      dup3\n        /* \"#utility.yul\":8833:8926   */\n      tag_300\n      jump\t// in\n    tag_428:\n        /* \"#utility.yul\":8951:8953   */\n      0x20\n        /* \"#utility.yul\":8946:8949   */\n      dup3\n        /* \"#utility.yul\":8942:8954   */\n      add\n        /* \"#utility.yul\":8935:8954   */\n      swap1\n      pop\n        /* \"#utility.yul\":8594:8960   */\n      swap2\n      swap1\n      pop\n      jump\t// out\n        /* \"#utility.yul\":8966:9385   */\n    tag_91:\n        /* \"#utility.yul\":9132:9136   */\n      0x00\n        /* \"#utility.yul\":9170:9172   */\n      0x20\n        /* \"#utility.yul\":9159:9168   */\n      dup3\n        /* \"#utility.yul\":9155:9173   */\n      add\n        /* \"#utility.yul\":9147:9173   */\n      swap1\n      pop\n        /* \"#utility.yul\":9219:9228   */\n      dup2\n        /* \"#utility.yul\":9213:9217   */\n      dup2\n        /* \"#utility.yul\":9209:9229   */\n      sub\n        /* \"#utility.yul\":9205:9206   */\n      0x00\n        /* \"#utility.yul\":9194:9203   */\n      dup4\n        /* \"#utility.yul\":9190:9207   */\n      add\n        /* \"#utility.yul\":9183:9230   */\n      mstore\n        /* \"#utility.yul\":9247:9378   */\n      tag_430\n        /* \"#utility.yul\":9373:9377   */\n      dup2\n        /* \"#utility.yul\":9247:9378   */\n      tag_301\n      jump\t// in\n    tag_430:\n        /* \"#utility.yul\":9239:9378   */\n      swap1\n      pop\n        /* \"#utility.yul\":8966:9385   */\n      swap2\n      swap1\n      pop\n      jump\t// out\n        /* \"#utility.yul\":9391:9616   */\n    tag_302:\n        /* \"#utility.yul\":9531:9565   */\n      0x57696e6e6572206973206e6f7420796574206465636964656420666f72207468\n        /* \"#utility.yul\":9527:9528   */\n      0x00\n        /* \"#utility.yul\":9519:9525   */\n      dup3\n        /* \"#utility.yul\":9515:9529   */\n      add\n        /* \"#utility.yul\":9508:9566   */\n      mstore\n        /* \"#utility.yul\":9600:9608   */\n      0x6520647261770000000000000000000000000000000000000000000000000000\n        /* \"#utility.yul\":9595:9597   */\n      0x20\n        /* \"#utility.yul\":9587:9593   */\n      dup3\n        /* \"#utility.yul\":9583:9598   */\n      add\n        /* \"#utility.yul\":9576:9609   */\n      mstore\n        /* \"#utility.yul\":9391:9616   */\n      pop\n      jump\t// out\n        /* \"#utility.yul\":9622:9988   */\n    tag_303:\n        /* \"#utility.yul\":9764:9767   */\n      0x00\n        /* \"#utility.yul\":9785:9852   */\n      tag_433\n        /* \"#utility.yul\":9849:9851   */\n      0x26\n        /* \"#utility.yul\":9844:9847   */\n      dup4\n        /* \"#utility.yul\":9785:9852   */\n      tag_294\n      jump\t// in\n    tag_433:\n        /* \"#utility.yul\":9778:9852   */\n      swap2\n      pop\n        /* \"#utility.yul\":9861:9954   */\n      tag_434\n        /* \"#utility.yul\":9950:9953   */\n      dup3\n        /* \"#utility.yul\":9861:9954   */\n      tag_302\n      jump\t// in\n    tag_434:\n        /* \"#utility.yul\":9979:9981   */\n      0x40\n        /* \"#utility.yul\":9974:9977   */\n      dup3\n        /* \"#utility.yul\":9970:9982   */\n      add\n        /* \"#utility.yul\":9963:9982   */\n      swap1\n      pop\n        /* \"#utility.yul\":9622:9988   */\n      swap2\n      swap1\n      pop\n      jump\t// out\n        /* \"#utility.yul\":9994:10413   */\n    tag_98:\n        /* \"#utility.yul\":10160:10164   */\n      0x00\n        /* \"#utility.yul\":10198:10200   */\n      0x20\n        /* \"#utility.yul\":10187:10196   */\n      dup3\n        /* \"#utility.yul\":10183:10201   */\n      add\n        /* \"#utility.yul\":10175:10201   */\n      swap1\n      pop\n        /* \"#utility.yul\":10247:10256   */\n      dup2\n        /* \"#utility.yul\":10241:10245   */\n      dup2\n        /* \"#utility.yul\":10237:10257   */\n      sub\n        /* \"#utility.yul\":10233:10234   */\n      0x00\n        /* \"#utility.yul\":10222:10231   */\n      dup4\n        /* \"#utility.yul\":10218:10235   */\n      add\n        /* \"#utility.yul\":10211:10258   */\n      mstore\n        /* \"#utility.yul\":10275:10406   */\n      tag_436\n        /* \"#utility.yul\":10401:10405   */\n      dup2\n        /* \"#utility.yul\":10275:10406   */\n      tag_303\n      jump\t// in\n    tag_436:\n        /* \"#utility.yul\":10267:10406   */\n      swap1\n      pop\n        /* \"#utility.yul\":9994:10413   */\n      swap2\n      swap1\n      pop\n      jump\t// out\n        /* \"#utility.yul\":10419:10591   */\n    tag_304:\n        /* \"#utility.yul\":10559:10583   */\n      0x596f7520617265206e6f74207468652077696e6e657200000000000000000000\n        /* \"#utility.yul\":10555:10556   */\n      0x00\n        /* \"#utility.yul\":10547:10553   */\n      dup3\n        /* \"#utility.yul\":10543:10557   */\n      add\n        /* \"#utility.yul\":10536:10584   */\n      mstore\n        /* \"#utility.yul\":10419:10591   */\n      pop\n      jump\t// out\n        /* \"#utility.yul\":10597:10963   */\n    tag_305:\n        /* \"#utility.yul\":10739:10742   */\n      0x00\n        /* \"#utility.yul\":10760:10827   */\n      tag_439\n        /* \"#utility.yul\":10824:10826   */\n      0x16\n        /* \"#utility.yul\":10819:10822   */\n      dup4\n        /* \"#utility.yul\":10760:10827   */\n      tag_294\n      jump\t// in\n    tag_439:\n        /* \"#utility.yul\":10753:10827   */\n      swap2\n      pop\n        /* \"#utility.yul\":10836:10929   */\n      tag_440\n        /* \"#utility.yul\":10925:10928   */\n      dup3\n        /* \"#utility.yul\":10836:10929   */\n      tag_304\n      jump\t// in\n    tag_440:\n        /* \"#utility.yul\":10954:10956   */\n      0x20\n        /* \"#utility.yul\":10949:10952   */\n      dup3\n        /* \"#utility.yul\":10945:10957   */\n      add\n        /* \"#utility.yul\":10938:10957   */\n      swap1\n      pop\n        /* \"#utility.yul\":10597:10963   */\n      swap2\n      swap1\n      pop\n      jump\t// out\n        /* \"#utility.yul\":10969:11388   */\n    tag_101:\n        /* \"#utility.yul\":11135:11139   */\n      0x00\n        /* \"#utility.yul\":11173:11175   */\n      0x20\n        /* \"#utility.yul\":11162:11171   */\n      dup3\n        /* \"#utility.yul\":11158:11176   */\n      add\n        /* \"#utility.yul\":11150:11176   */\n      swap1\n      pop\n        /* \"#utility.yul\":11222:11231   */\n      dup2\n        /* \"#utility.yul\":11216:11220   */\n      dup2\n        /* \"#utility.yul\":11212:11232   */\n      sub\n        /* \"#utility.yul\":11208:11209   */\n      0x00\n        /* \"#utility.yul\":11197:11206   */\n      dup4\n        /* \"#utility.yul\":11193:11210   */\n      add\n        /* \"#utility.yul\":11186:11233   */\n      mstore\n        /* \"#utility.yul\":11250:11381   */\n      tag_442\n        /* \"#utility.yul\":11376:11380   */\n      dup2\n        /* \"#utility.yul\":11250:11381   */\n      tag_305\n      jump\t// in\n    tag_442:\n        /* \"#utility.yul\":11242:11381   */\n      swap1\n      pop\n        /* \"#utility.yul\":10969:11388   */\n      swap2\n      swap1\n      pop\n      jump\t// out\n        /* \"#utility.yul\":11394:11574   */\n    tag_306:\n        /* \"#utility.yul\":11442:11519   */\n      0x4e487b7100000000000000000000000000000000000000000000000000000000\n        /* \"#utility.yul\":11439:11440   */\n      0x00\n        /* \"#utility.yul\":11432:11520   */\n      mstore\n        /* \"#utility.yul\":11539:11543   */\n      0x11\n        /* \"#utility.yul\":11536:11537   */\n      0x04\n        /* \"#utility.yul\":11529:11544   */\n      mstore\n        /* \"#utility.yul\":11563:11567   */\n      0x24\n        /* \"#utility.yul\":11560:11561   */\n      0x00\n        /* \"#utility.yul\":11553:11568   */\n      revert\n        /* \"#utility.yul\":11580:11771   */\n    tag_109:\n        /* \"#utility.yul\":11620:11623   */\n      0x00\n        /* \"#utility.yul\":11639:11659   */\n      tag_445\n        /* \"#utility.yul\":11657:11658   */\n      dup3\n        /* \"#utility.yul\":11639:11659   */\n      tag_277\n      jump\t// in\n    tag_445:\n        /* \"#utility.yul\":11634:11659   */\n      swap2\n      pop\n        /* \"#utility.yul\":11673:11693   */\n      tag_446\n        /* \"#utility.yul\":11691:11692   */\n      dup4\n        /* \"#utility.yul\":11673:11693   */\n      tag_277\n      jump\t// in\n    tag_446:\n        /* \"#utility.yul\":11668:11693   */\n      swap3\n      pop\n        /* \"#utility.yul\":11716:11717   */\n      dup3\n        /* \"#utility.yul\":11713:11714   */\n      dup3\n        /* \"#utility.yul\":11709:11718   */\n      add\n        /* \"#utility.yul\":11702:11718   */\n      swap1\n      pop\n        /* \"#utility.yul\":11737:11740   */\n      dup1\n        /* \"#utility.yul\":11734:11735   */\n      dup3\n        /* \"#utility.yul\":11731:11741   */\n      gt\n        /* \"#utility.yul\":11728:11764   */\n      iszero\n      tag_447\n      jumpi\n        /* \"#utility.yul\":11744:11762   */\n      tag_448\n      tag_306\n      jump\t// in\n    tag_448:\n        /* \"#utility.yul\":11728:11764   */\n    tag_447:\n        /* \"#utility.yul\":11580:11771   */\n      swap3\n      swap2\n      pop\n      pop\n      jump\t// out\n        /* \"#utility.yul\":11777:12010   */\n    tag_111:\n        /* \"#utility.yul\":11816:11819   */\n      0x00\n        /* \"#utility.yul\":11839:11863   */\n      tag_450\n        /* \"#utility.yul\":11857:11862   */\n      dup3\n        /* \"#utility.yul\":11839:11863   */\n      tag_277\n      jump\t// in\n    tag_450:\n        /* \"#utility.yul\":11830:11863   */\n      swap2\n      pop\n        /* \"#utility.yul\":11885:11951   */\n      0xffffffffffffffffffffffffffffffffffffffffffffffffffffffffffffffff\n        /* \"#utility.yul\":11878:11883   */\n      dup3\n        /* \"#utility.yul\":11875:11952   */\n      sub\n        /* \"#utility.yul\":11872:11975   */\n      tag_451\n      jumpi\n        /* \"#utility.yul\":11955:11973   */\n      tag_452\n      tag_306\n      jump\t// in\n    tag_452:\n        /* \"#utility.yul\":11872:11975   */\n    tag_451:\n        /* \"#utility.yul\":12002:12003   */\n      0x01\n        /* \"#utility.yul\":11995:12000   */\n      dup3\n        /* \"#utility.yul\":11991:12004   */\n      add\n        /* \"#utility.yul\":11984:12004   */\n      swap1\n      pop\n        /* \"#utility.yul\":11777:12010   */\n      swap2\n      swap1\n      pop\n      jump\t// out\n        /* \"#utility.yul\":12016:12426   */\n    tag_113:\n        /* \"#utility.yul\":12056:12063   */\n      0x00\n        /* \"#utility.yul\":12079:12099   */\n      tag_454\n        /* \"#utility.yul\":12097:12098   */\n      dup3\n        /* \"#utility.yul\":12079:12099   */\n      tag_277\n      jump\t// in\n    tag_454:\n        /* \"#utility.yul\":12074:12099   */\n      swap2\n      pop\n        /* \"#utility.yul\":12113:12133   */\n      tag_455\n        /* \"#utility.yul\":12131:12132   */\n      dup4\n        /* \"#utility.yul\":12113:12133   */\n      tag_277\n      jump\t// in\n    tag_455:\n        /* \"#utility.yul\":12108:12133   */\n      swap3\n      pop\n        /* \"#utility.yul\":12168:12169   */\n      dup3\n        /* \"#utility.yul\":12165:12166   */\n      dup3\n        /* \"#utility.yul\":12161:12170   */\n      mul\n        /* \"#utility.yul\":12190:12220   */\n      tag_456\n        /* \"#utility.yul\":12208:12219   */\n      dup2\n        /* \"#utility.yul\":12190:12220   */\n      tag_277\n      jump\t// in\n    tag_456:\n        /* \"#utility.yul\":12179:12220   */\n      swap2\n      pop\n        /* \"#utility.yul\":12369:12370   */\n      dup3\n        /* \"#utility.yul\":12360:12367   */\n      dup3\n        /* \"#utility.yul\":12356:12371   */\n      div\n        /* \"#utility.yul\":12353:12354   */\n      dup5\n        /* \"#utility.yul\":12350:12372   */\n      eq\n        /* \"#utility.yul\":12330:12331   */\n      dup4\n        /* \"#utility.yul\":12323:12332   */\n      iszero\n        /* \"#utility.yul\":12303:12386   */\n      or\n        /* \"#utility.yul\":12280:12419   */\n      tag_457\n      jumpi\n        /* \"#utility.yul\":12399:12417   */\n      tag_458\n      tag_306\n      jump\t// in\n    tag_458:\n        /* \"#utility.yul\":12280:12419   */\n    tag_457:\n        /* \"#utility.yul\":12064:12426   */\n      pop\n        /* \"#utility.yul\":12016:12426   */\n      swap3\n      swap2\n      pop\n      pop\n      jump\t// out\n        /* \"#utility.yul\":12432:12617   */\n    tag_115:\n        /* \"#utility.yul\":12472:12473   */\n      0x00\n        /* \"#utility.yul\":12489:12509   */\n      tag_460\n        /* \"#utility.yul\":12507:12508   */\n      dup3\n        /* \"#utility.yul\":12489:12509   */\n      tag_277\n      jump\t// in\n    tag_460:\n        /* \"#utility.yul\":12484:12509   */\n      swap2\n      pop\n        /* \"#utility.yul\":12523:12543   */\n      tag_461\n        /* \"#utility.yul\":12541:12542   */\n      dup4\n        /* \"#utility.yul\":12523:12543   */\n      tag_277\n      jump\t// in\n    tag_461:\n        /* \"#utility.yul\":12518:12543   */\n      swap3\n      pop\n        /* \"#utility.yul\":12562:12563   */\n      dup3\n        /* \"#utility.yul\":12552:12587   */\n      tag_462\n      jumpi\n        /* \"#utility.yul\":12567:12585   */\n      tag_463\n      tag_299\n      jump\t// in\n    tag_463:\n        /* \"#utility.yul\":12552:12587   */\n    tag_462:\n        /* \"#utility.yul\":12609:12610   */\n      dup3\n        /* \"#utility.yul\":12606:12607   */\n      dup3\n        /* \"#utility.yul\":12602:12611   */\n      div\n        /* \"#utility.yul\":12597:12611   */\n      swap1\n      pop\n        /* \"#utility.yul\":12432:12617   */\n      swap3\n      swap2\n      pop\n      pop\n      jump\t// out\n        /* \"#utility.yul\":12623:12817   */\n    tag_138:\n        /* \"#utility.yul\":12663:12667   */\n      0x00\n        /* \"#utility.yul\":12683:12703   */\n      tag_465\n        /* \"#utility.yul\":12701:12702   */\n      dup3\n        /* \"#utility.yul\":12683:12703   */\n      tag_277\n      jump\t// in\n    tag_465:\n        /* \"#utility.yul\":12678:12703   */\n      swap2\n      pop\n        /* \"#utility.yul\":12717:12737   */\n      tag_466\n        /* \"#utility.yul\":12735:12736   */\n      dup4\n        /* \"#utility.yul\":12717:12737   */\n      tag_277\n      jump\t// in\n    tag_466:\n        /* \"#utility.yul\":12712:12737   */\n      swap3\n      pop\n        /* \"#utility.yul\":12761:12762   */\n      dup3\n        /* \"#utility.yul\":12758:12759   */\n      dup3\n        /* \"#utility.yul\":12754:12763   */\n      sub\n        /* \"#utility.yul\":12746:12763   */\n      swap1\n      pop\n        /* \"#utility.yul\":12785:12786   */\n      dup2\n        /* \"#utility.yul\":12779:12783   */\n      dup2\n        /* \"#utility.yul\":12776:12787   */\n      gt\n        /* \"#utility.yul\":12773:12810   */\n      iszero\n      tag_467\n      jumpi\n        /* \"#utility.yul\":12790:12808   */\n      tag_468\n      tag_306\n      jump\t// in\n    tag_468:\n        /* \"#utility.yul\":12773:12810   */\n    tag_467:\n        /* \"#utility.yul\":12623:12817   */\n      swap3\n      swap2\n      pop\n      pop\n      jump\t// out\n        /* \"#utility.yul\":12823:13066   */\n    tag_307:\n        /* \"#utility.yul\":12963:12997   */\n      0x4e756d626572206f66206d656d62657273206d7573742062652035206265666f\n        /* \"#utility.yul\":12959:12960   */\n      0x00\n        /* \"#utility.yul\":12951:12957   */\n      dup3\n        /* \"#utility.yul\":12947:12961   */\n      add\n        /* \"#utility.yul\":12940:12998   */\n      mstore\n        /* \"#utility.yul\":13032:13058   */\n      0x726520647261772063616e20626520706572666f726d65640000000000000000\n        /* \"#utility.yul\":13027:13029   */\n      0x20\n        /* \"#utility.yul\":13019:13025   */\n      dup3\n        /* \"#utility.yul\":13015:13030   */\n      add\n        /* \"#utility.yul\":13008:13059   */\n      mstore\n        /* \"#utility.yul\":12823:13066   */\n      pop\n      jump\t// out\n        /* \"#utility.yul\":13072:13438   */\n    tag_308:\n        /* \"#utility.yul\":13214:13217   */\n      0x00\n        /* \"#utility.yul\":13235:13302   */\n      tag_471\n        /* \"#utility.yul\":13299:13301   */\n      0x38\n        /* \"#utility.yul\":13294:13297   */\n      dup4\n        /* \"#utility.yul\":13235:13302   */\n      tag_294\n      jump\t// in\n    tag_471:\n        /* \"#utility.yul\":13228:13302   */\n      swap2\n      pop\n        /* \"#utility.yul\":13311:13404   */\n      tag_472\n        /* \"#utility.yul\":13400:13403   */\n      dup3\n        /* \"#utility.yul\":13311:13404   */\n      tag_307\n      jump\t// in\n    tag_472:\n        /* \"#utility.yul\":13429:13431   */\n      0x40\n        /* \"#utility.yul\":13424:13427   */\n      dup3\n        /* \"#utility.yul\":13420:13432   */\n      add\n        /* \"#utility.yul\":13413:13432   */\n      swap1\n      pop\n        /* \"#utility.yul\":13072:13438   */\n      swap2\n      swap1\n      pop\n      jump\t// out\n        /* \"#utility.yul\":13444:13863   */\n    tag_148:\n        /* \"#utility.yul\":13610:13614   */\n      0x00\n        /* \"#utility.yul\":13648:13650   */\n      0x20\n        /* \"#utility.yul\":13637:13646   */\n      dup3\n        /* \"#utility.yul\":13633:13651   */\n      add\n        /* \"#utility.yul\":13625:13651   */\n      swap1\n      pop\n        /* \"#utility.yul\":13697:13706   */\n      dup2\n        /* \"#utility.yul\":13691:13695   */\n      dup2\n        /* \"#utility.yul\":13687:13707   */\n      sub\n        /* \"#utility.yul\":13683:13684   */\n      0x00\n        /* \"#utility.yul\":13672:13681   */\n      dup4\n        /* \"#utility.yul\":13668:13685   */\n      add\n        /* \"#utility.yul\":13661:13708   */\n      mstore\n        /* \"#utility.yul\":13725:13856   */\n      tag_474\n        /* \"#utility.yul\":13851:13855   */\n      dup2\n        /* \"#utility.yul\":13725:13856   */\n      tag_308\n      jump\t// in\n    tag_474:\n        /* \"#utility.yul\":13717:13856   */\n      swap1\n      pop\n        /* \"#utility.yul\":13444:13863   */\n      swap2\n      swap1\n      pop\n      jump\t// out\n        /* \"#utility.yul\":13869:14041   */\n    tag_309:\n        /* \"#utility.yul\":14009:14033   */\n      0x4d7573742062652070726f706f736564206f776e657200000000000000000000\n        /* \"#utility.yul\":14005:14006   */\n      0x00\n        /* \"#utility.yul\":13997:14003   */\n      dup3\n        /* \"#utility.yul\":13993:14007   */\n      add\n        /* \"#utility.yul\":13986:14034   */\n      mstore\n        /* \"#utility.yul\":13869:14041   */\n      pop\n      jump\t// out\n        /* \"#utility.yul\":14047:14413   */\n    tag_310:\n        /* \"#utility.yul\":14189:14192   */\n      0x00\n        /* \"#utility.yul\":14210:14277   */\n      tag_477\n        /* \"#utility.yul\":14274:14276   */\n      0x16\n        /* \"#utility.yul\":14269:14272   */\n      dup4\n        /* \"#utility.yul\":14210:14277   */\n      tag_294\n      jump\t// in\n    tag_477:\n        /* \"#utility.yul\":14203:14277   */\n      swap2\n      pop\n        /* \"#utility.yul\":14286:14379   */\n      tag_478\n        /* \"#utility.yul\":14375:14378   */\n      dup3\n        /* \"#utility.yul\":14286:14379   */\n      tag_309\n      jump\t// in\n    tag_478:\n        /* \"#utility.yul\":14404:14406   */\n      0x20\n        /* \"#utility.yul\":14399:14402   */\n      dup3\n        /* \"#utility.yul\":14395:14407   */\n      add\n        /* \"#utility.yul\":14388:14407   */\n      swap1\n      pop\n        /* \"#utility.yul\":14047:14413   */\n      swap2\n      swap1\n      pop\n      jump\t// out\n        /* \"#utility.yul\":14419:14838   */\n    tag_161:\n        /* \"#utility.yul\":14585:14589   */\n      0x00\n        /* \"#utility.yul\":14623:14625   */\n      0x20\n        /* \"#utility.yul\":14612:14621   */\n      dup3\n        /* \"#utility.yul\":14608:14626   */\n      add\n        /* \"#utility.yul\":14600:14626   */\n      swap1\n      pop\n        /* \"#utility.yul\":14672:14681   */\n      dup2\n        /* \"#utility.yul\":14666:14670   */\n      dup2\n        /* \"#utility.yul\":14662:14682   */\n      sub\n        /* \"#utility.yul\":14658:14659   */\n      0x00\n        /* \"#utility.yul\":14647:14656   */\n      dup4\n        /* \"#utility.yul\":14643:14660   */\n      add\n        /* \"#utility.yul\":14636:14683   */\n      mstore\n        /* \"#utility.yul\":14700:14831   */\n      tag_480\n        /* \"#utility.yul\":14826:14830   */\n      dup2\n        /* \"#utility.yul\":14700:14831   */\n      tag_310\n      jump\t// in\n    tag_480:\n        /* \"#utility.yul\":14692:14831   */\n      swap1\n      pop\n        /* \"#utility.yul\":14419:14838   */\n      swap2\n      swap1\n      pop\n      jump\t// out\n        /* \"#utility.yul\":14844:14987   */\n    tag_311:\n        /* \"#utility.yul\":14901:14906   */\n      0x00\n        /* \"#utility.yul\":14932:14938   */\n      dup2\n        /* \"#utility.yul\":14926:14939   */\n      mload\n        /* \"#utility.yul\":14917:14939   */\n      swap1\n      pop\n        /* \"#utility.yul\":14948:14981   */\n      tag_482\n        /* \"#utility.yul\":14975:14980   */\n      dup2\n        /* \"#utility.yul\":14948:14981   */\n      tag_278\n      jump\t// in\n    tag_482:\n        /* \"#utility.yul\":14844:14987   */\n      swap3\n      swap2\n      pop\n      pop\n      jump\t// out\n        /* \"#utility.yul\":14993:15344   */\n    tag_175:\n        /* \"#utility.yul\":15063:15069   */\n      0x00\n        /* \"#utility.yul\":15112:15114   */\n      0x20\n        /* \"#utility.yul\":15100:15109   */\n      dup3\n        /* \"#utility.yul\":15091:15098   */\n      dup5\n        /* \"#utility.yul\":15087:15110   */\n      sub\n        /* \"#utility.yul\":15083:15115   */\n      slt\n        /* \"#utility.yul\":15080:15199   */\n      iszero\n      tag_484\n      jumpi\n        /* \"#utility.yul\":15118:15197   */\n      tag_485\n      tag_275\n      jump\t// in\n    tag_485:\n        /* \"#utility.yul\":15080:15199   */\n    tag_484:\n        /* \"#utility.yul\":15238:15239   */\n      0x00\n        /* \"#utility.yul\":15263:15327   */\n      tag_486\n        /* \"#utility.yul\":15319:15326   */\n      dup5\n        /* \"#utility.yul\":15310:15316   */\n      dup3\n        /* \"#utility.yul\":15299:15308   */\n      dup6\n        /* \"#utility.yul\":15295:15317   */\n      add\n        /* \"#utility.yul\":15263:15327   */\n      tag_311\n      jump\t// in\n    tag_486:\n        /* \"#utility.yul\":15253:15327   */\n      swap2\n      pop\n        /* \"#utility.yul\":15209:15337   */\n      pop\n        /* \"#utility.yul\":14993:15344   */\n      swap3\n      swap2\n      pop\n      pop\n      jump\t// out\n        /* \"#utility.yul\":15350:15682   */\n    tag_177:\n        /* \"#utility.yul\":15471:15475   */\n      0x00\n        /* \"#utility.yul\":15509:15511   */\n      0x40\n        /* \"#utility.yul\":15498:15507   */\n      dup3\n        /* \"#utility.yul\":15494:15512   */\n      add\n        /* \"#utility.yul\":15486:15512   */\n      swap1\n      pop\n        /* \"#utility.yul\":15522:15593   */\n      tag_488\n        /* \"#utility.yul\":15590:15591   */\n      0x00\n        /* \"#utility.yul\":15579:15588   */\n      dup4\n        /* \"#utility.yul\":15575:15592   */\n      add\n        /* \"#utility.yul\":15566:15572   */\n      dup6\n        /* \"#utility.yul\":15522:15593   */\n      tag_282\n      jump\t// in\n    tag_488:\n        /* \"#utility.yul\":15603:15675   */\n      tag_489\n        /* \"#utility.yul\":15671:15673   */\n      0x20\n        /* \"#utility.yul\":15660:15669   */\n      dup4\n        /* \"#utility.yul\":15656:15674   */\n      add\n        /* \"#utility.yul\":15647:15653   */\n      dup5\n        /* \"#utility.yul\":15603:15675   */\n      tag_291\n      jump\t// in\n    tag_489:\n        /* \"#utility.yul\":15350:15682   */\n      swap4\n      swap3\n      pop\n      pop\n      pop\n      jump\t// out\n        /* \"#utility.yul\":15688:15778   */\n    tag_312:\n        /* \"#utility.yul\":15722:15729   */\n      0x00\n        /* \"#utility.yul\":15765:15770   */\n      dup2\n        /* \"#utility.yul\":15758:15771   */\n      iszero\n        /* \"#utility.yul\":15751:15772   */\n      iszero\n        /* \"#utility.yul\":15740:15772   */\n      swap1\n      pop\n        /* \"#utility.yul\":15688:15778   */\n      swap2\n      swap1\n      pop\n      jump\t// out\n        /* \"#utility.yul\":15784:15900   */\n    tag_313:\n        /* \"#utility.yul\":15854:15875   */\n      tag_492\n        /* \"#utility.yul\":15869:15874   */\n      dup2\n        /* \"#utility.yul\":15854:15875   */\n      tag_312\n      jump\t// in\n    tag_492:\n        /* \"#utility.yul\":15847:15852   */\n      dup2\n        /* \"#utility.yul\":15844:15876   */\n      eq\n        /* \"#utility.yul\":15834:15894   */\n      tag_493\n      jumpi\n        /* \"#utility.yul\":15890:15891   */\n      0x00\n        /* \"#utility.yul\":15887:15888   */\n      dup1\n        /* \"#utility.yul\":15880:15892   */\n      revert\n        /* \"#utility.yul\":15834:15894   */\n    tag_493:\n        /* \"#utility.yul\":15784:15900   */\n      pop\n      jump\t// out\n        /* \"#utility.yul\":15906:16043   */\n    tag_314:\n        /* \"#utility.yul\":15960:15965   */\n      0x00\n        /* \"#utility.yul\":15991:15997   */\n      dup2\n        /* \"#utility.yul\":15985:15998   */\n      mload\n        /* \"#utility.yul\":15976:15998   */\n      swap1\n      pop\n        /* \"#utility.yul\":16007:16037   */\n      tag_495\n        /* \"#utility.yul\":16031:16036   */\n      dup2\n        /* \"#utility.yul\":16007:16037   */\n      tag_313\n      jump\t// in\n    tag_495:\n        /* \"#utility.yul\":15906:16043   */\n      swap3\n      swap2\n      pop\n      pop\n      jump\t// out\n        /* \"#utility.yul\":16049:16394   */\n    tag_181:\n        /* \"#utility.yul\":16116:16122   */\n      0x00\n        /* \"#utility.yul\":16165:16167   */\n      0x20\n        /* \"#utility.yul\":16153:16162   */\n      dup3\n        /* \"#utility.yul\":16144:16151   */\n      dup5\n        /* \"#utility.yul\":16140:16163   */\n      sub\n        /* \"#utility.yul\":16136:16168   */\n      slt\n        /* \"#utility.yul\":16133:16252   */\n      iszero\n      tag_497\n      jumpi\n        /* \"#utility.yul\":16171:16250   */\n      tag_498\n      tag_275\n      jump\t// in\n    tag_498:\n        /* \"#utility.yul\":16133:16252   */\n    tag_497:\n        /* \"#utility.yul\":16291:16292   */\n      0x00\n        /* \"#utility.yul\":16316:16377   */\n      tag_499\n        /* \"#utility.yul\":16369:16376   */\n      dup5\n        /* \"#utility.yul\":16360:16366   */\n      dup3\n        /* \"#utility.yul\":16349:16358   */\n      dup6\n        /* \"#utility.yul\":16345:16367   */\n      add\n        /* \"#utility.yul\":16316:16377   */\n      tag_314\n      jump\t// in\n    tag_499:\n        /* \"#utility.yul\":16306:16377   */\n      swap2\n      pop\n        /* \"#utility.yul\":16262:16387   */\n      pop\n        /* \"#utility.yul\":16049:16394   */\n      swap3\n      swap2\n      pop\n      pop\n      jump\t// out\n        /* \"#utility.yul\":16400:16568   */\n    tag_315:\n        /* \"#utility.yul\":16540:16560   */\n      0x556e61626c6520746f207472616e736665720000000000000000000000000000\n        /* \"#utility.yul\":16536:16537   */\n      0x00\n        /* \"#utility.yul\":16528:16534   */\n      dup3\n        /* \"#utility.yul\":16524:16538   */\n      add\n        /* \"#utility.yul\":16517:16561   */\n      mstore\n        /* \"#utility.yul\":16400:16568   */\n      pop\n      jump\t// out\n        /* \"#utility.yul\":16574:16940   */\n    tag_316:\n        /* \"#utility.yul\":16716:16719   */\n      0x00\n        /* \"#utility.yul\":16737:16804   */\n      tag_502\n        /* \"#utility.yul\":16801:16803   */\n      0x12\n        /* \"#utility.yul\":16796:16799   */\n      dup4\n        /* \"#utility.yul\":16737:16804   */\n      tag_294\n      jump\t// in\n    tag_502:\n        /* \"#utility.yul\":16730:16804   */\n      swap2\n      pop\n        /* \"#utility.yul\":16813:16906   */\n      tag_503\n        /* \"#utility.yul\":16902:16905   */\n      dup3\n        /* \"#utility.yul\":16813:16906   */\n      tag_315\n      jump\t// in\n    tag_503:\n        /* \"#utility.yul\":16931:16933   */\n      0x20\n        /* \"#utility.yul\":16926:16929   */\n      dup3\n        /* \"#utility.yul\":16922:16934   */\n      add\n        /* \"#utility.yul\":16915:16934   */\n      swap1\n      pop\n        /* \"#utility.yul\":16574:16940   */\n      swap2\n      swap1\n      pop\n      jump\t// out\n        /* \"#utility.yul\":16946:17365   */\n    tag_184:\n        /* \"#utility.yul\":17112:17116   */\n      0x00\n        /* \"#utility.yul\":17150:17152   */\n      0x20\n        /* \"#utility.yul\":17139:17148   */\n      dup3\n        /* \"#utility.yul\":17135:17153   */\n      add\n        /* \"#utility.yul\":17127:17153   */\n      swap1\n      pop\n        /* \"#utility.yul\":17199:17208   */\n      dup2\n        /* \"#utility.yul\":17193:17197   */\n      dup2\n        /* \"#utility.yul\":17189:17209   */\n      sub\n        /* \"#utility.yul\":17185:17186   */\n      0x00\n        /* \"#utility.yul\":17174:17183   */\n      dup4\n        /* \"#utility.yul\":17170:17187   */\n      add\n        /* \"#utility.yul\":17163:17210   */\n      mstore\n        /* \"#utility.yul\":17227:17358   */\n      tag_505\n        /* \"#utility.yul\":17353:17357   */\n      dup2\n        /* \"#utility.yul\":17227:17358   */\n      tag_316\n      jump\t// in\n    tag_505:\n        /* \"#utility.yul\":17219:17358   */\n      swap1\n      pop\n        /* \"#utility.yul\":16946:17365   */\n      swap2\n      swap1\n      pop\n      jump\t// out\n        /* \"#utility.yul\":17371:17660   */\n    tag_317:\n        /* \"#utility.yul\":17511:17545   */\n      0x4e756d626572206f66206d656d626572732061726520616c726561647920352e\n        /* \"#utility.yul\":17507:17508   */\n      0x00\n        /* \"#utility.yul\":17499:17505   */\n      dup3\n        /* \"#utility.yul\":17495:17509   */\n      add\n        /* \"#utility.yul\":17488:17546   */\n      mstore\n        /* \"#utility.yul\":17580:17614   */\n      0x20506c656173652074727920746f206a6f696e20696e206e65787420726f756e\n        /* \"#utility.yul\":17575:17577   */\n      0x20\n        /* \"#utility.yul\":17567:17573   */\n      dup3\n        /* \"#utility.yul\":17563:17578   */\n      add\n        /* \"#utility.yul\":17556:17615   */\n      mstore\n        /* \"#utility.yul\":17649:17652   */\n      0x6400000000000000000000000000000000000000000000000000000000000000\n        /* \"#utility.yul\":17644:17646   */\n      0x40\n        /* \"#utility.yul\":17636:17642   */\n      dup3\n        /* \"#utility.yul\":17632:17647   */\n      add\n        /* \"#utility.yul\":17625:17653   */\n      mstore\n        /* \"#utility.yul\":17371:17660   */\n      pop\n      jump\t// out\n        /* \"#utility.yul\":17666:18032   */\n    tag_318:\n        /* \"#utility.yul\":17808:17811   */\n      0x00\n        /* \"#utility.yul\":17829:17896   */\n      tag_508\n        /* \"#utility.yul\":17893:17895   */\n      0x41\n        /* \"#utility.yul\":17888:17891   */\n      dup4\n        /* \"#utility.yul\":17829:17896   */\n      tag_294\n      jump\t// in\n    tag_508:\n        /* \"#utility.yul\":17822:17896   */\n      swap2\n      pop\n        /* \"#utility.yul\":17905:17998   */\n      tag_509\n        /* \"#utility.yul\":17994:17997   */\n      dup3\n        /* \"#utility.yul\":17905:17998   */\n      tag_317\n      jump\t// in\n    tag_509:\n        /* \"#utility.yul\":18023:18025   */\n      0x60\n        /* \"#utility.yul\":18018:18021   */\n      dup3\n        /* \"#utility.yul\":18014:18026   */\n      add\n        /* \"#utility.yul\":18007:18026   */\n      swap1\n      pop\n        /* \"#utility.yul\":17666:18032   */\n      swap2\n      swap1\n      pop\n      jump\t// out\n        /* \"#utility.yul\":18038:18457   */\n    tag_188:\n        /* \"#utility.yul\":18204:18208   */\n      0x00\n        /* \"#utility.yul\":18242:18244   */\n      0x20\n        /* \"#utility.yul\":18231:18240   */\n      dup3\n        /* \"#utility.yul\":18227:18245   */\n      add\n        /* \"#utility.yul\":18219:18245   */\n      swap1\n      pop\n        /* \"#utility.yul\":18291:18300   */\n      dup2\n        /* \"#utility.yul\":18285:18289   */\n      dup2\n        /* \"#utility.yul\":18281:18301   */\n      sub\n        /* \"#utility.yul\":18277:18278   */\n      0x00\n        /* \"#utility.yul\":18266:18275   */\n      dup4\n        /* \"#utility.yul\":18262:18279   */\n      add\n        /* \"#utility.yul\":18255:18302   */\n      mstore\n        /* \"#utility.yul\":18319:18450   */\n      tag_511\n        /* \"#utility.yul\":18445:18449   */\n      dup2\n        /* \"#utility.yul\":18319:18450   */\n      tag_318\n      jump\t// in\n    tag_511:\n        /* \"#utility.yul\":18311:18450   */\n      swap1\n      pop\n        /* \"#utility.yul\":18038:18457   */\n      swap2\n      swap1\n      pop\n      jump\t// out\n        /* \"#utility.yul\":18463:18692   */\n    tag_319:\n        /* \"#utility.yul\":18603:18637   */\n      0x596f75206861766520616c7265616479207265676973746572656420666f7220\n        /* \"#utility.yul\":18599:18600   */\n      0x00\n        /* \"#utility.yul\":18591:18597   */\n      dup3\n        /* \"#utility.yul\":18587:18601   */\n      add\n        /* \"#utility.yul\":18580:18638   */\n      mstore\n        /* \"#utility.yul\":18672:18684   */\n      0x7468697320726f756e6400000000000000000000000000000000000000000000\n        /* \"#utility.yul\":18667:18669   */\n      0x20\n        /* \"#utility.yul\":18659:18665   */\n      dup3\n        /* \"#utility.yul\":18655:18670   */\n      add\n        /* \"#utility.yul\":18648:18685   */\n      mstore\n        /* \"#utility.yul\":18463:18692   */\n      pop\n      jump\t// out\n        /* \"#utility.yul\":18698:19064   */\n    tag_320:\n        /* \"#utility.yul\":18840:18843   */\n      0x00\n        /* \"#utility.yul\":18861:18928   */\n      tag_514\n        /* \"#utility.yul\":18925:18927   */\n      0x2a\n        /* \"#utility.yul\":18920:18923   */\n      dup4\n        /* \"#utility.yul\":18861:18928   */\n      tag_294\n      jump\t// in\n    tag_514:\n        /* \"#utility.yul\":18854:18928   */\n      swap2\n      pop\n        /* \"#utility.yul\":18937:19030   */\n      tag_515\n        /* \"#utility.yul\":19026:19029   */\n      dup3\n        /* \"#utility.yul\":18937:19030   */\n      tag_319\n      jump\t// in\n    tag_515:\n        /* \"#utility.yul\":19055:19057   */\n      0x40\n        /* \"#utility.yul\":19050:19053   */\n      dup3\n        /* \"#utility.yul\":19046:19058   */\n      add\n        /* \"#utility.yul\":19039:19058   */\n      swap1\n      pop\n        /* \"#utility.yul\":18698:19064   */\n      swap2\n      swap1\n      pop\n      jump\t// out\n        /* \"#utility.yul\":19070:19489   */\n    tag_197:\n        /* \"#utility.yul\":19236:19240   */\n      0x00\n        /* \"#utility.yul\":19274:19276   */\n      0x20\n        /* \"#utility.yul\":19263:19272   */\n      dup3\n        /* \"#utility.yul\":19259:19277   */\n      add\n        /* \"#utility.yul\":19251:19277   */\n      swap1\n      pop\n        /* \"#utility.yul\":19323:19332   */\n      dup2\n        /* \"#utility.yul\":19317:19321   */\n      dup2\n        /* \"#utility.yul\":19313:19333   */\n      sub\n        /* \"#utility.yul\":19309:19310   */\n      0x00\n        /* \"#utility.yul\":19298:19307   */\n      dup4\n        /* \"#utility.yul\":19294:19311   */\n      add\n        /* \"#utility.yul\":19287:19334   */\n      mstore\n        /* \"#utility.yul\":19351:19482   */\n      tag_517\n        /* \"#utility.yul\":19477:19481   */\n      dup2\n        /* \"#utility.yul\":19351:19482   */\n      tag_320\n      jump\t// in\n    tag_517:\n        /* \"#utility.yul\":19343:19482   */\n      swap1\n      pop\n        /* \"#utility.yul\":19070:19489   */\n      swap2\n      swap1\n      pop\n      jump\t// out\n        /* \"#utility.yul\":19495:19737   */\n    tag_321:\n        /* \"#utility.yul\":19635:19669   */\n      0x596f75206d75737420696e76657374206174206c6561737420302e3030312045\n        /* \"#utility.yul\":19631:19632   */\n      0x00\n        /* \"#utility.yul\":19623:19629   */\n      dup3\n        /* \"#utility.yul\":19619:19633   */\n      add\n        /* \"#utility.yul\":19612:19670   */\n      mstore\n        /* \"#utility.yul\":19704:19729   */\n      0x544820696e20746865206c6f747465727920726f756e64000000000000000000\n        /* \"#utility.yul\":19699:19701   */\n      0x20\n        /* \"#utility.yul\":19691:19697   */\n      dup3\n        /* \"#utility.yul\":19687:19702   */\n      add\n        /* \"#utility.yul\":19680:19730   */\n      mstore\n        /* \"#utility.yul\":19495:19737   */\n      pop\n      jump\t// out\n        /* \"#utility.yul\":19743:20109   */\n    tag_322:\n        /* \"#utility.yul\":19885:19888   */\n      0x00\n        /* \"#utility.yul\":19906:19973   */\n      tag_520\n        /* \"#utility.yul\":19970:19972   */\n      0x37\n        /* \"#utility.yul\":19965:19968   */\n      dup4\n        /* \"#utility.yul\":19906:19973   */\n      tag_294\n      jump\t// in\n    tag_520:\n        /* \"#utility.yul\":19899:19973   */\n      swap2\n      pop\n        /* \"#utility.yul\":19982:20075   */\n      tag_521\n        /* \"#utility.yul\":20071:20074   */\n      dup3\n        /* \"#utility.yul\":19982:20075   */\n      tag_321\n      jump\t// in\n    tag_521:\n        /* \"#utility.yul\":20100:20102   */\n      0x40\n        /* \"#utility.yul\":20095:20098   */\n      dup3\n        /* \"#utility.yul\":20091:20103   */\n      add\n        /* \"#utility.yul\":20084:20103   */\n      swap1\n      pop\n        /* \"#utility.yul\":19743:20109   */\n      swap2\n      swap1\n      pop\n      jump\t// out\n        /* \"#utility.yul\":20115:20534   */\n    tag_201:\n        /* \"#utility.yul\":20281:20285   */\n      0x00\n        /* \"#utility.yul\":20319:20321   */\n      0x20\n        /* \"#utility.yul\":20308:20317   */\n      dup3\n        /* \"#utility.yul\":20304:20322   */\n      add\n        /* \"#utility.yul\":20296:20322   */\n      swap1\n      pop\n        /* \"#utility.yul\":20368:20377   */\n      dup2\n        /* \"#utility.yul\":20362:20366   */\n      dup2\n        /* \"#utility.yul\":20358:20378   */\n      sub\n        /* \"#utility.yul\":20354:20355   */\n      0x00\n        /* \"#utility.yul\":20343:20352   */\n      dup4\n        /* \"#utility.yul\":20339:20356   */\n      add\n        /* \"#utility.yul\":20332:20379   */\n      mstore\n        /* \"#utility.yul\":20396:20527   */\n      tag_523\n        /* \"#utility.yul\":20522:20526   */\n      dup2\n        /* \"#utility.yul\":20396:20527   */\n      tag_322\n      jump\t// in\n    tag_523:\n        /* \"#utility.yul\":20388:20527   */\n      swap1\n      pop\n        /* \"#utility.yul\":20115:20534   */\n      swap2\n      swap1\n      pop\n      jump\t// out\n        /* \"#utility.yul\":20540:20707   */\n    tag_323:\n        /* \"#utility.yul\":20680:20699   */\n      0x72657175657374206e6f7420666f756e64000000000000000000000000000000\n        /* \"#utility.yul\":20676:20677   */\n      0x00\n        /* \"#utility.yul\":20668:20674   */\n      dup3\n        /* \"#utility.yul\":20664:20678   */\n      add\n        /* \"#utility.yul\":20657:20700   */\n      mstore\n        /* \"#utility.yul\":20540:20707   */\n      pop\n      jump\t// out\n        /* \"#utility.yul\":20713:21079   */\n    tag_324:\n        /* \"#utility.yul\":20855:20858   */\n      0x00\n        /* \"#utility.yul\":20876:20943   */\n      tag_526\n        /* \"#utility.yul\":20940:20942   */\n      0x11\n        /* \"#utility.yul\":20935:20938   */\n      dup4\n        /* \"#utility.yul\":20876:20943   */\n      tag_294\n      jump\t// in\n    tag_526:\n        /* \"#utility.yul\":20869:20943   */\n      swap2\n      pop\n        /* \"#utility.yul\":20952:21045   */\n      tag_527\n        /* \"#utility.yul\":21041:21044   */\n      dup3\n        /* \"#utility.yul\":20952:21045   */\n      tag_323\n      jump\t// in\n    tag_527:\n        /* \"#utility.yul\":21070:21072   */\n      0x20\n        /* \"#utility.yul\":21065:21068   */\n      dup3\n        /* \"#utility.yul\":21061:21073   */\n      add\n        /* \"#utility.yul\":21054:21073   */\n      swap1\n      pop\n        /* \"#utility.yul\":20713:21079   */\n      swap2\n      swap1\n      pop\n      jump\t// out\n        /* \"#utility.yul\":21085:21504   */\n    tag_225:\n        /* \"#utility.yul\":21251:21255   */\n      0x00\n        /* \"#utility.yul\":21289:21291   */\n      0x20\n        /* \"#utility.yul\":21278:21287   */\n      dup3\n        /* \"#utility.yul\":21274:21292   */\n      add\n        /* \"#utility.yul\":21266:21292   */\n      swap1\n      pop\n        /* \"#utility.yul\":21338:21347   */\n      dup2\n        /* \"#utility.yul\":21332:21336   */\n      dup2\n        /* \"#utility.yul\":21328:21348   */\n      sub\n        /* \"#utility.yul\":21324:21325   */\n      0x00\n        /* \"#utility.yul\":21313:21322   */\n      dup4\n        /* \"#utility.yul\":21309:21326   */\n      add\n        /* \"#utility.yul\":21302:21349   */\n      mstore\n        /* \"#utility.yul\":21366:21497   */\n      tag_529\n        /* \"#utility.yul\":21492:21496   */\n      dup2\n        /* \"#utility.yul\":21366:21497   */\n      tag_324\n      jump\t// in\n    tag_529:\n        /* \"#utility.yul\":21358:21497   */\n      swap1\n      pop\n        /* \"#utility.yul\":21085:21504   */\n      swap2\n      swap1\n      pop\n      jump\t// out\n        /* \"#utility.yul\":21510:21682   */\n    tag_325:\n        /* \"#utility.yul\":21650:21674   */\n      0x4f6e6c792063616c6c61626c65206279206f776e657200000000000000000000\n        /* \"#utility.yul\":21646:21647   */\n      0x00\n        /* \"#utility.yul\":21638:21644   */\n      dup3\n        /* \"#utility.yul\":21634:21648   */\n      add\n        /* \"#utility.yul\":21627:21675   */\n      mstore\n        /* \"#utility.yul\":21510:21682   */\n      pop\n      jump\t// out\n        /* \"#utility.yul\":21688:22054   */\n    tag_326:\n        /* \"#utility.yul\":21830:21833   */\n      0x00\n        /* \"#utility.yul\":21851:21918   */\n      tag_532\n        /* \"#utility.yul\":21915:21917   */\n      0x16\n        /* \"#utility.yul\":21910:21913   */\n      dup4\n        /* \"#utility.yul\":21851:21918   */\n      tag_294\n      jump\t// in\n    tag_532:\n        /* \"#utility.yul\":21844:21918   */\n      swap2\n      pop\n        /* \"#utility.yul\":21927:22020   */\n      tag_533\n        /* \"#utility.yul\":22016:22019   */\n      dup3\n        /* \"#utility.yul\":21927:22020   */\n      tag_325\n      jump\t// in\n    tag_533:\n        /* \"#utility.yul\":22045:22047   */\n      0x20\n        /* \"#utility.yul\":22040:22043   */\n      dup3\n        /* \"#utility.yul\":22036:22048   */\n      add\n        /* \"#utility.yul\":22029:22048   */\n      swap1\n      pop\n        /* \"#utility.yul\":21688:22054   */\n      swap2\n      swap1\n      pop\n      jump\t// out\n        /* \"#utility.yul\":22060:22479   */\n    tag_231:\n        /* \"#utility.yul\":22226:22230   */\n      0x00\n        /* \"#utility.yul\":22264:22266   */\n      0x20\n        /* \"#utility.yul\":22253:22262   */\n      dup3\n        /* \"#utility.yul\":22249:22267   */\n      add\n        /* \"#utility.yul\":22241:22267   */\n      swap1\n      pop\n        /* \"#utility.yul\":22313:22322   */\n      dup2\n        /* \"#utility.yul\":22307:22311   */\n      dup2\n        /* \"#utility.yul\":22303:22323   */\n      sub\n        /* \"#utility.yul\":22299:22300   */\n      0x00\n        /* \"#utility.yul\":22288:22297   */\n      dup4\n        /* \"#utility.yul\":22284:22301   */\n      add\n        /* \"#utility.yul\":22277:22324   */\n      mstore\n        /* \"#utility.yul\":22341:22472   */\n      tag_535\n        /* \"#utility.yul\":22467:22471   */\n      dup2\n        /* \"#utility.yul\":22341:22472   */\n      tag_326\n      jump\t// in\n    tag_535:\n        /* \"#utility.yul\":22333:22472   */\n      swap1\n      pop\n        /* \"#utility.yul\":22060:22479   */\n      swap2\n      swap1\n      pop\n      jump\t// out\n        /* \"#utility.yul\":22485:22578   */\n    tag_327:\n        /* \"#utility.yul\":22521:22528   */\n      0x00\n        /* \"#utility.yul\":22561:22571   */\n      0xffffffff\n        /* \"#utility.yul\":22554:22559   */\n      dup3\n        /* \"#utility.yul\":22550:22572   */\n      and\n        /* \"#utility.yul\":22539:22572   */\n      swap1\n      pop\n        /* \"#utility.yul\":22485:22578   */\n      swap2\n      swap1\n      pop\n      jump\t// out\n        /* \"#utility.yul\":22584:22699   */\n    tag_328:\n        /* \"#utility.yul\":22669:22692   */\n      tag_538\n        /* \"#utility.yul\":22686:22691   */\n      dup2\n        /* \"#utility.yul\":22669:22692   */\n      tag_327\n      jump\t// in\n    tag_538:\n        /* \"#utility.yul\":22664:22667   */\n      dup3\n        /* \"#utility.yul\":22657:22693   */\n      mstore\n        /* \"#utility.yul\":22584:22699   */\n      pop\n      pop\n      jump\t// out\n        /* \"#utility.yul\":22705:22923   */\n    tag_238:\n        /* \"#utility.yul\":22796:22800   */\n      0x00\n        /* \"#utility.yul\":22834:22836   */\n      0x20\n        /* \"#utility.yul\":22823:22832   */\n      dup3\n        /* \"#utility.yul\":22819:22837   */\n      add\n        /* \"#utility.yul\":22811:22837   */\n      swap1\n      pop\n        /* \"#utility.yul\":22847:22916   */\n      tag_540\n        /* \"#utility.yul\":22913:22914   */\n      0x00\n        /* \"#utility.yul\":22902:22911   */\n      dup4\n        /* \"#utility.yul\":22898:22915   */\n      add\n        /* \"#utility.yul\":22889:22895   */\n      dup5\n        /* \"#utility.yul\":22847:22916   */\n      tag_328\n      jump\t// in\n    tag_540:\n        /* \"#utility.yul\":22705:22923   */\n      swap3\n      swap2\n      pop\n      pop\n      jump\t// out\n        /* \"#utility.yul\":22929:23102   */\n    tag_329:\n        /* \"#utility.yul\":23069:23094   */\n      0x43616e6e6f74207472616e7366657220746f2073656c66000000000000000000\n        /* \"#utility.yul\":23065:23066   */\n      0x00\n        /* \"#utility.yul\":23057:23063   */\n      dup3\n        /* \"#utility.yul\":23053:23067   */\n      add\n        /* \"#utility.yul\":23046:23095   */\n      mstore\n        /* \"#utility.yul\":22929:23102   */\n      pop\n      jump\t// out\n        /* \"#utility.yul\":23108:23474   */\n    tag_330:\n        /* \"#utility.yul\":23250:23253   */\n      0x00\n        /* \"#utility.yul\":23271:23338   */\n      tag_543\n        /* \"#utility.yul\":23335:23337   */\n      0x17\n        /* \"#utility.yul\":23330:23333   */\n      dup4\n        /* \"#utility.yul\":23271:23338   */\n      tag_294\n      jump\t// in\n    tag_543:\n        /* \"#utility.yul\":23264:23338   */\n      swap2\n      pop\n        /* \"#utility.yul\":23347:23440   */\n      tag_544\n        /* \"#utility.yul\":23436:23439   */\n      dup3\n        /* \"#utility.yul\":23347:23440   */\n      tag_329\n      jump\t// in\n    tag_544:\n        /* \"#utility.yul\":23465:23467   */\n      0x20\n        /* \"#utility.yul\":23460:23463   */\n      dup3\n        /* \"#utility.yul\":23456:23468   */\n      add\n        /* \"#utility.yul\":23449:23468   */\n      swap1\n      pop\n        /* \"#utility.yul\":23108:23474   */\n      swap2\n      swap1\n      pop\n      jump\t// out\n        /* \"#utility.yul\":23480:23899   */\n    tag_251:\n        /* \"#utility.yul\":23646:23650   */\n      0x00\n        /* \"#utility.yul\":23684:23686   */\n      0x20\n        /* \"#utility.yul\":23673:23682   */\n      dup3\n        /* \"#utility.yul\":23669:23687   */\n      add\n        /* \"#utility.yul\":23661:23687   */\n      swap1\n      pop\n        /* \"#utility.yul\":23733:23742   */\n      dup2\n        /* \"#utility.yul\":23727:23731   */\n      dup2\n        /* \"#utility.yul\":23723:23743   */\n      sub\n        /* \"#utility.yul\":23719:23720   */\n      0x00\n        /* \"#utility.yul\":23708:23717   */\n      dup4\n        /* \"#utility.yul\":23704:23721   */\n      add\n        /* \"#utility.yul\":23697:23744   */\n      mstore\n        /* \"#utility.yul\":23761:23892   */\n      tag_546\n        /* \"#utility.yul\":23887:23891   */\n      dup2\n        /* \"#utility.yul\":23761:23892   */\n      tag_330\n      jump\t// in\n    tag_546:\n        /* \"#utility.yul\":23753:23892   */\n      swap1\n      pop\n        /* \"#utility.yul\":23480:23899   */\n      swap2\n      swap1\n      pop\n      jump\t// out\n        /* \"#utility.yul\":23905:23994   */\n    tag_331:\n        /* \"#utility.yul\":23941:23948   */\n      0x00\n        /* \"#utility.yul\":23981:23987   */\n      0xffff\n        /* \"#utility.yul\":23974:23979   */\n      dup3\n        /* \"#utility.yul\":23970:23988   */\n      and\n        /* \"#utility.yul\":23959:23988   */\n      swap1\n      pop\n        /* \"#utility.yul\":23905:23994   */\n      swap2\n      swap1\n      pop\n      jump\t// out\n        /* \"#utility.yul\":24000:24115   */\n    tag_332:\n        /* \"#utility.yul\":24085:24108   */\n      tag_549\n        /* \"#utility.yul\":24102:24107   */\n      dup2\n        /* \"#utility.yul\":24085:24108   */\n      tag_331\n      jump\t// in\n    tag_549:\n        /* \"#utility.yul\":24080:24083   */\n      dup3\n        /* \"#utility.yul\":24073:24109   */\n      mstore\n        /* \"#utility.yul\":24000:24115   */\n      pop\n      pop\n      jump\t// out\n        /* \"#utility.yul\":24121:24551   */\n    tag_258:\n        /* \"#utility.yul\":24264:24268   */\n      0x00\n        /* \"#utility.yul\":24302:24304   */\n      0x60\n        /* \"#utility.yul\":24291:24300   */\n      dup3\n        /* \"#utility.yul\":24287:24305   */\n      add\n        /* \"#utility.yul\":24279:24305   */\n      swap1\n      pop\n        /* \"#utility.yul\":24315:24384   */\n      tag_551\n        /* \"#utility.yul\":24381:24382   */\n      0x00\n        /* \"#utility.yul\":24370:24379   */\n      dup4\n        /* \"#utility.yul\":24366:24383   */\n      add\n        /* \"#utility.yul\":24357:24363   */\n      dup7\n        /* \"#utility.yul\":24315:24384   */\n      tag_328\n      jump\t// in\n    tag_551:\n        /* \"#utility.yul\":24394:24464   */\n      tag_552\n        /* \"#utility.yul\":24460:24462   */\n      0x20\n        /* \"#utility.yul\":24449:24458   */\n      dup4\n        /* \"#utility.yul\":24445:24463   */\n      add\n        /* \"#utility.yul\":24436:24442   */\n      dup6\n        /* \"#utility.yul\":24394:24464   */\n      tag_332\n      jump\t// in\n    tag_552:\n        /* \"#utility.yul\":24474:24544   */\n      tag_553\n        /* \"#utility.yul\":24540:24542   */\n      0x40\n        /* \"#utility.yul\":24529:24538   */\n      dup4\n        /* \"#utility.yul\":24525:24543   */\n      add\n        /* \"#utility.yul\":24516:24522   */\n      dup5\n        /* \"#utility.yul\":24474:24544   */\n      tag_328\n      jump\t// in\n    tag_553:\n        /* \"#utility.yul\":24121:24551   */\n      swap5\n      swap4\n      pop\n      pop\n      pop\n      pop\n      jump\t// out\n        /* \"#utility.yul\":24557:24655   */\n    tag_333:\n        /* \"#utility.yul\":24608:24614   */\n      0x00\n        /* \"#utility.yul\":24642:24647   */\n      dup2\n        /* \"#utility.yul\":24636:24648   */\n      mload\n        /* \"#utility.yul\":24626:24648   */\n      swap1\n      pop\n        /* \"#utility.yul\":24557:24655   */\n      swap2\n      swap1\n      pop\n      jump\t// out\n        /* \"#utility.yul\":24661:24829   */\n    tag_334:\n        /* \"#utility.yul\":24744:24755   */\n      0x00\n        /* \"#utility.yul\":24778:24784   */\n      dup3\n        /* \"#utility.yul\":24773:24776   */\n      dup3\n        /* \"#utility.yul\":24766:24785   */\n      mstore\n        /* \"#utility.yul\":24818:24822   */\n      0x20\n        /* \"#utility.yul\":24813:24816   */\n      dup3\n        /* \"#utility.yul\":24809:24823   */\n      add\n        /* \"#utility.yul\":24794:24823   */\n      swap1\n      pop\n        /* \"#utility.yul\":24661:24829   */\n      swap3\n      swap2\n      pop\n      pop\n      jump\t// out\n        /* \"#utility.yul\":24835:25081   */\n    tag_335:\n        /* \"#utility.yul\":24916:24917   */\n      0x00\n        /* \"#utility.yul\":24926:25039   */\n    tag_557:\n        /* \"#utility.yul\":24940:24946   */\n      dup4\n        /* \"#utility.yul\":24937:24938   */\n      dup2\n        /* \"#utility.yul\":24934:24947   */\n      lt\n        /* \"#utility.yul\":24926:25039   */\n      iszero\n      tag_559\n      jumpi\n        /* \"#utility.yul\":25025:25026   */\n      dup1\n        /* \"#utility.yul\":25020:25023   */\n      dup3\n        /* \"#utility.yul\":25016:25027   */\n      add\n        /* \"#utility.yul\":25010:25028   */\n      mload\n        /* \"#utility.yul\":25006:25007   */\n      dup2\n        /* \"#utility.yul\":25001:25004   */\n      dup5\n        /* \"#utility.yul\":24997:25008   */\n      add\n        /* \"#utility.yul\":24990:25029   */\n      mstore\n        /* \"#utility.yul\":24962:24964   */\n      0x20\n        /* \"#utility.yul\":24959:24960   */\n      dup2\n        /* \"#utility.yul\":24955:24965   */\n      add\n        /* \"#utility.yul\":24950:24965   */\n      swap1\n      pop\n        /* \"#utility.yul\":24926:25039   */\n      jump(tag_557)\n    tag_559:\n        /* \"#utility.yul\":25073:25074   */\n      0x00\n        /* \"#utility.yul\":25064:25070   */\n      dup5\n        /* \"#utility.yul\":25059:25062   */\n      dup5\n        /* \"#utility.yul\":25055:25071   */\n      add\n        /* \"#utility.yul\":25048:25075   */\n      mstore\n        /* \"#utility.yul\":24897:25081   */\n      pop\n        /* \"#utility.yul\":24835:25081   */\n      pop\n      pop\n      pop\n      jump\t// out\n        /* \"#utility.yul\":25087:25460   */\n    tag_336:\n        /* \"#utility.yul\":25173:25176   */\n      0x00\n        /* \"#utility.yul\":25201:25239   */\n      tag_561\n        /* \"#utility.yul\":25233:25238   */\n      dup3\n        /* \"#utility.yul\":25201:25239   */\n      tag_333\n      jump\t// in\n    tag_561:\n        /* \"#utility.yul\":25255:25325   */\n      tag_562\n        /* \"#utility.yul\":25318:25324   */\n      dup2\n        /* \"#utility.yul\":25313:25316   */\n      dup6\n        /* \"#utility.yul\":25255:25325   */\n      tag_334\n      jump\t// in\n    tag_562:\n        /* \"#utility.yul\":25248:25325   */\n      swap4\n      pop\n        /* \"#utility.yul\":25334:25399   */\n      tag_563\n        /* \"#utility.yul\":25392:25398   */\n      dup2\n        /* \"#utility.yul\":25387:25390   */\n      dup6\n        /* \"#utility.yul\":25380:25384   */\n      0x20\n        /* \"#utility.yul\":25373:25378   */\n      dup7\n        /* \"#utility.yul\":25369:25385   */\n      add\n        /* \"#utility.yul\":25334:25399   */\n      tag_335\n      jump\t// in\n    tag_563:\n        /* \"#utility.yul\":25424:25453   */\n      tag_564\n        /* \"#utility.yul\":25446:25452   */\n      dup2\n        /* \"#utility.yul\":25424:25453   */\n      tag_284\n      jump\t// in\n    tag_564:\n        /* \"#utility.yul\":25419:25422   */\n      dup5\n        /* \"#utility.yul\":25415:25454   */\n      add\n        /* \"#utility.yul\":25408:25454   */\n      swap2\n      pop\n        /* \"#utility.yul\":25177:25460   */\n      pop\n        /* \"#utility.yul\":25087:25460   */\n      swap3\n      swap2\n      pop\n      pop\n      jump\t// out\n        /* \"#utility.yul\":25466:25995   */\n    tag_260:\n        /* \"#utility.yul\":25633:25637   */\n      0x00\n        /* \"#utility.yul\":25671:25673   */\n      0x60\n        /* \"#utility.yul\":25660:25669   */\n      dup3\n        /* \"#utility.yul\":25656:25674   */\n      add\n        /* \"#utility.yul\":25648:25674   */\n      swap1\n      pop\n        /* \"#utility.yul\":25684:25755   */\n      tag_566\n        /* \"#utility.yul\":25752:25753   */\n      0x00\n        /* \"#utility.yul\":25741:25750   */\n      dup4\n        /* \"#utility.yul\":25737:25754   */\n      add\n        /* \"#utility.yul\":25728:25734   */\n      dup7\n        /* \"#utility.yul\":25684:25755   */\n      tag_282\n      jump\t// in\n    tag_566:\n        /* \"#utility.yul\":25765:25837   */\n      tag_567\n        /* \"#utility.yul\":25833:25835   */\n      0x20\n        /* \"#utility.yul\":25822:25831   */\n      dup4\n        /* \"#utility.yul\":25818:25836   */\n      add\n        /* \"#utility.yul\":25809:25815   */\n      dup6\n        /* \"#utility.yul\":25765:25837   */\n      tag_291\n      jump\t// in\n    tag_567:\n        /* \"#utility.yul\":25884:25893   */\n      dup2\n        /* \"#utility.yul\":25878:25882   */\n      dup2\n        /* \"#utility.yul\":25874:25894   */\n      sub\n        /* \"#utility.yul\":25869:25871   */\n      0x40\n        /* \"#utility.yul\":25858:25867   */\n      dup4\n        /* \"#utility.yul\":25854:25872   */\n      add\n        /* \"#utility.yul\":25847:25895   */\n      mstore\n        /* \"#utility.yul\":25912:25988   */\n      tag_568\n        /* \"#utility.yul\":25983:25987   */\n      dup2\n        /* \"#utility.yul\":25974:25980   */\n      dup5\n        /* \"#utility.yul\":25912:25988   */\n      tag_336\n      jump\t// in\n    tag_568:\n        /* \"#utility.yul\":25904:25988   */\n      swap1\n      pop\n        /* \"#utility.yul\":25466:25995   */\n      swap5\n      swap4\n      pop\n      pop\n      pop\n      pop\n      jump\t// out\n\n    auxdata: 0xa264697066735822122082974b4f3e1c3763a8dfe0189c5629e8204f7b0757a7f065d0b17dff6db74ec864736f6c63430008120033\n}\n",
				"bytecode": {
					"linkReferences": {},
					"object": "60c0604052620186a0600560006101000a81548163ffffffff021916908363ffffffff1602179055506003600560046101000a81548161ffff021916908361ffff1602179055506001600560066101000a81548163ffffffff021916908363ffffffff16021790555073779877a7b0d9e8603169ddbd7836e478b46247896005600a6101000a81548173ffffffffffffffffffffffffffffffffffffffff021916908373ffffffffffffffffffffffffffffffffffffffff16021790555073ab18414cd93297b0d12ac29e63ca20f515b3db46600660006101000a81548173ffffffffffffffffffffffffffffffffffffffff021916908373ffffffffffffffffffffffffffffffffffffffff1602179055503480156200011f57600080fd5b50338060006005600a9054906101000a900473ffffffffffffffffffffffffffffffffffffffff16600660009054906101000a900473ffffffffffffffffffffffffffffffffffffffff168173ffffffffffffffffffffffffffffffffffffffff1660808173ffffffffffffffffffffffffffffffffffffffff16815250508073ffffffffffffffffffffffffffffffffffffffff1660a08173ffffffffffffffffffffffffffffffffffffffff16815250505050600073ffffffffffffffffffffffffffffffffffffffff168273ffffffffffffffffffffffffffffffffffffffff160362000246576040517f08c379a00000000000000000000000000000000000000000000000000000000081526004016200023d906200055f565b60405180910390fd5b816000806101000a81548173ffffffffffffffffffffffffffffffffffffffff021916908373ffffffffffffffffffffffffffffffffffffffff160217905550600073ffffffffffffffffffffffffffffffffffffffff168173ffffffffffffffffffffffffffffffffffffffff1614620002cd57620002cc81620003cf60201b60201c565b5b50505060016008819055506000600a60006008548152602001908152602001600020905060005b6005811015620003c75760006040518060400160405280600073ffffffffffffffffffffffffffffffffffffffff168152602001600081525090508260000181908060018154018082558091505060019003906000526020600020906002020160009091909190915060008201518160000160006101000a81548173ffffffffffffffffffffffffffffffffffffffff021916908373ffffffffffffffffffffffffffffffffffffffff160217905550602082015181600101555050508080620003be90620005ba565b915050620002f4565b505062000679565b3373ffffffffffffffffffffffffffffffffffffffff168173ffffffffffffffffffffffffffffffffffffffff160362000440576040517f08c379a0000000000000000000000000000000000000000000000000000000008152600401620004379062000657565b60405180910390fd5b80600160006101000a81548173ffffffffffffffffffffffffffffffffffffffff021916908373ffffffffffffffffffffffffffffffffffffffff1602179055508073ffffffffffffffffffffffffffffffffffffffff1660008054906101000a900473ffffffffffffffffffffffffffffffffffffffff1673ffffffffffffffffffffffffffffffffffffffff167fed8889f560326eb138920d842192f0eb3dd22b4f139c87a2c57538e05bae127860405160405180910390a350565b600082825260208201905092915050565b7f43616e6e6f7420736574206f776e657220746f207a65726f0000000000000000600082015250565b600062000547601883620004fe565b915062000554826200050f565b602082019050919050565b600060208201905081810360008301526200057a8162000538565b9050919050565b7f4e487b7100000000000000000000000000000000000000000000000000000000600052601160045260246000fd5b6000819050919050565b6000620005c782620005b0565b91507fffffffffffffffffffffffffffffffffffffffffffffffffffffffffffffffff8203620005fc57620005fb62000581565b5b600182019050919050565b7f43616e6e6f74207472616e7366657220746f2073656c66000000000000000000600082015250565b60006200063f601783620004fe565b91506200064c8262000607565b602082019050919050565b60006020820190508181036000830152620006728162000630565b9050919050565b60805160a0516125c6620006bb6000396000818161043501528181611244015281816115450152818161156601526116860152600061150901526125c66000f3fe6080604052600436106100c25760003560e01c80638a19c8bc1161007f5780638da5cb5b116100595780638da5cb5b146102425780638dc654a21461026d578063b688a36314610284578063f2fde38b1461028e576100c2565b80638a19c8bc146101af5780638a82c3e9146101da5780638b7afe2e14610217576100c2565b806318854939146100c75780631fe543e314610104578063289af10c1461012d5780633ccfd60b146101565780634cdb5d401461016d57806379ba509714610198575b600080fd5b3480156100d357600080fd5b506100ee60048036038101906100e991906117d0565b6102b7565b6040516100fb919061183e565b60405180910390f35b34801561011057600080fd5b5061012b600480360381019061012691906119b2565b610433565b005b34801561013957600080fd5b50610154600480360381019061014f91906117d0565b6104cf565b005b34801561016257600080fd5b5061016b610697565b005b34801561017957600080fd5b50610182610897565b60405161018f9190611a1d565b60405180910390f35b3480156101a457600080fd5b506101ad610a5e565b005b3480156101bb57600080fd5b506101c4610bf3565b6040516101d19190611a1d565b60405180910390f35b3480156101e657600080fd5b5061020160048036038101906101fc91906117d0565b610bf9565b60405161020e9190611a1d565b60405180910390f35b34801561022357600080fd5b5061022c610c1d565b6040516102399190611a1d565b60405180910390f35b34801561024e57600080fd5b50610257610c2d565b604051610264919061183e565b60405180910390f35b34801561027957600080fd5b50610282610c56565b005b61028c610dbe565b005b34801561029a57600080fd5b506102b560048036038101906102b09190611a64565b611091565b005b60008082116102fb576040517f08c379a00000000000000000000000000000000000000000000000000000000081526004016102f290611aee565b60405180910390fd5b600854821061033f576040517f08c379a000000000000000000000000000000000000000000000000000000000815260040161033690611b80565b60405180910390fd5b60006009600084815260200190815260200160002054905060006002600083815260200190815260200160002090508060010160009054906101000a900460ff16156104275760008160020160008154811061039e5761039d611ba0565b5b9060005260206000200154905060006005826103ba9190611bfe565b90506000600a600088815260200190815260200160002090508060000182815481106103e9576103e8611ba0565b5b906000526020600020906002020160000160009054906101000a900473ffffffffffffffffffffffffffffffffffffffff169550505050505061042e565b6000925050505b919050565b7f000000000000000000000000000000000000000000000000000000000000000073ffffffffffffffffffffffffffffffffffffffff163373ffffffffffffffffffffffffffffffffffffffff16146104c1576040517f08c379a00000000000000000000000000000000000000000000000000000000081526004016104b890611c7b565b60405180910390fd5b6104cb82826110a5565b5050565b60006104da826102b7565b9050600073ffffffffffffffffffffffffffffffffffffffff168173ffffffffffffffffffffffffffffffffffffffff160361054b576040517f08c379a000000000000000000000000000000000000000000000000000000000815260040161054290611d0d565b60405180910390fd5b3373ffffffffffffffffffffffffffffffffffffffff168173ffffffffffffffffffffffffffffffffffffffff16146105b9576040517f08c379a00000000000000000000000000000000000000000000000000000000081526004016105b090611d79565b60405180910390fd5b6000600a600084815260200190815260200160002090506000805b6005811015610625578260000181815481106105f3576105f2611ba0565b5b906000526020600020906002020160010154826106109190611dc8565b9150808061061d90611dfc565b9150506105d4565b5060003390506000600a60098461063c9190611e44565b6106469190611e86565b90508173ffffffffffffffffffffffffffffffffffffffff166108fc829081150290604051600060405180830381858888f1935050505015801561068e573d6000803e3d6000fd5b50505050505050565b6000600a60006008548152602001908152602001600020905060005b6005811015610892573373ffffffffffffffffffffffffffffffffffffffff168260000182815481106106e9576106e8611ba0565b5b906000526020600020906002020160000160009054906101000a900473ffffffffffffffffffffffffffffffffffffffff1673ffffffffffffffffffffffffffffffffffffffff160361087f5760006005600484600001848154811061075257610751611ba0565b5b90600052602060002090600202016001015461076e9190611e44565b6107789190611e86565b90506000339050600084600001848154811061079757610796611ba0565b5b906000526020600020906002020160000160006101000a81548173ffffffffffffffffffffffffffffffffffffffff021916908373ffffffffffffffffffffffffffffffffffffffff16021790555060008460000184815481106107fe576107fd611ba0565b5b90600052602060002090600202016001018190555060018460010160008282546108289190611eb7565b925050819055508073ffffffffffffffffffffffffffffffffffffffff166108fc839081150290604051600060405180830381858888f19350505050158015610875573d6000803e3d6000fd5b5050505050610895565b808061088a90611dfc565b9150506106b3565b50505b565b60006108a161115c565b6000600a6000600854815260200190815260200160002090506005816001015414610901576040517f08c379a00000000000000000000000000000000000000000000000000000000081526004016108f890611f5d565b60405180910390fd5b600061090b6111ec565b90508060096000600854815260200190815260200160002081905550600760085490806001815401808255809150506001900390600052602060002001600090919091909150556001600860008282546109659190611dc8565b92505081905550600a60006008548152602001908152602001600020915060005b6005811015610a555760006040518060400160405280600073ffffffffffffffffffffffffffffffffffffffff168152602001600081525090508360000181908060018154018082558091505060019003906000526020600020906002020160009091909190915060008201518160000160006101000a81548173ffffffffffffffffffffffffffffffffffffffff021916908373ffffffffffffffffffffffffffffffffffffffff160217905550602082015181600101555050508080610a4d90611dfc565b915050610986565b50809250505090565b600160009054906101000a900473ffffffffffffffffffffffffffffffffffffffff1673ffffffffffffffffffffffffffffffffffffffff163373ffffffffffffffffffffffffffffffffffffffff1614610aee576040517f08c379a0000000000000000000000000000000000000000000000000000000008152600401610ae590611fc9565b60405180910390fd5b60008060009054906101000a900473ffffffffffffffffffffffffffffffffffffffff169050336000806101000a81548173ffffffffffffffffffffffffffffffffffffffff021916908373ffffffffffffffffffffffffffffffffffffffff1602179055506000600160006101000a81548173ffffffffffffffffffffffffffffffffffffffff021916908373ffffffffffffffffffffffffffffffffffffffff1602179055503373ffffffffffffffffffffffffffffffffffffffff168173ffffffffffffffffffffffffffffffffffffffff167f8be0079c531659141344cd1fd0a4f28419497f9722a3daafe3b4186f6b6457e060405160405180910390a350565b60085481565b60078181548110610c0957600080fd5b906000526020600020016000915090505481565b6000610c2761115c565b47905090565b60008060009054906101000a900473ffffffffffffffffffffffffffffffffffffffff16905090565b610c5e61115c565b60006005600a9054906101000a900473ffffffffffffffffffffffffffffffffffffffff1690508073ffffffffffffffffffffffffffffffffffffffff1663a9059cbb338373ffffffffffffffffffffffffffffffffffffffff166370a08231306040518263ffffffff1660e01b8152600401610cdb919061183e565b602060405180830381865afa158015610cf8573d6000803e3d6000fd5b505050506040513d601f19601f82011682018060405250810190610d1c9190611ffe565b6040518363ffffffff1660e01b8152600401610d3992919061202b565b6020604051808303816000875af1158015610d58573d6000803e3d6000fd5b505050506040513d601f19601f82011682018060405250810190610d7c919061208c565b610dbb576040517f08c379a0000000000000000000000000000000000000000000000000000000008152600401610db290612105565b60405180910390fd5b50565b6000600a6000600854815260200190815260200160002090506005816001015410610e1e576040517f08c379a0000000000000000000000000000000000000000000000000000000008152600401610e15906121bd565b60405180910390fd5b60005b6005811015610ef257816000018181548110610e4057610e3f611ba0565b5b906000526020600020906002020160000160009054906101000a900473ffffffffffffffffffffffffffffffffffffffff1673ffffffffffffffffffffffffffffffffffffffff163373ffffffffffffffffffffffffffffffffffffffff1603610edf576040517f08c379a0000000000000000000000000000000000000000000000000000000008152600401610ed69061224f565b60405180910390fd5b8080610eea90611dfc565b915050610e21565b5066038d7ea4c68000341015610f3d576040517f08c379a0000000000000000000000000000000000000000000000000000000008152600401610f34906122e1565b60405180910390fd5b60005b600581101561108c57600073ffffffffffffffffffffffffffffffffffffffff16826000018281548110610f7757610f76611ba0565b5b906000526020600020906002020160000160009054906101000a900473ffffffffffffffffffffffffffffffffffffffff1673ffffffffffffffffffffffffffffffffffffffff16036110795733826000018281548110610fdb57610fda611ba0565b5b906000526020600020906002020160000160006101000a81548173ffffffffffffffffffffffffffffffffffffffff021916908373ffffffffffffffffffffffffffffffffffffffff1602179055503482600001828154811061104157611040611ba0565b5b906000526020600020906002020160010181905550600182600101600082825461106b9190611dc8565b92505081905550505061108f565b808061108490611dfc565b915050610f40565b50505b565b61109961115c565b6110a2816113d9565b50565b60006002600084815260200190815260200160002060000154116110fe576040517f08c379a00000000000000000000000000000000000000000000000000000000081526004016110f59061234d565b60405180910390fd5b60016002600084815260200190815260200160002060010160006101000a81548160ff0219169083151502179055508060026000848152602001908152602001600020600201908051906020019061115792919061171c565b505050565b60008054906101000a900473ffffffffffffffffffffffffffffffffffffffff1673ffffffffffffffffffffffffffffffffffffffff163373ffffffffffffffffffffffffffffffffffffffff16146111ea576040517f08c379a00000000000000000000000000000000000000000000000000000000081526004016111e1906123b9565b60405180910390fd5b565b60006111f661115c565b611235600560009054906101000a900463ffffffff16600560049054906101000a900461ffff16600560069054906101000a900463ffffffff16611505565b905060405180606001604052807f000000000000000000000000000000000000000000000000000000000000000073ffffffffffffffffffffffffffffffffffffffff16634306d354600560009054906101000a900463ffffffff166040518263ffffffff1660e01b81526004016112ad91906123f8565b602060405180830381865afa1580156112ca573d6000803e3d6000fd5b505050506040513d601f19601f820116820180604052508101906112ee9190611ffe565b8152602001600015158152602001600067ffffffffffffffff8111156113175761131661186f565b5b6040519080825280602002602001820160405280156113455781602001602082028036833780820191505090505b50815250600260008381526020019081526020016000206000820151816000015560208201518160010160006101000a81548160ff02191690831515021790555060408201518160020190805190602001906113a292919061171c565b5090505060038190806001815401808255809150506001900390600052602060002001600090919091909150558060048190555090565b3373ffffffffffffffffffffffffffffffffffffffff168173ffffffffffffffffffffffffffffffffffffffff1603611447576040517f08c379a000000000000000000000000000000000000000000000000000000000815260040161143e9061245f565b60405180910390fd5b80600160006101000a81548173ffffffffffffffffffffffffffffffffffffffff021916908373ffffffffffffffffffffffffffffffffffffffff1602179055508073ffffffffffffffffffffffffffffffffffffffff1660008054906101000a900473ffffffffffffffffffffffffffffffffffffffff1673ffffffffffffffffffffffffffffffffffffffff167fed8889f560326eb138920d842192f0eb3dd22b4f139c87a2c57538e05bae127860405160405180910390a350565b60007f000000000000000000000000000000000000000000000000000000000000000073ffffffffffffffffffffffffffffffffffffffff16634000aea07f00000000000000000000000000000000000000000000000000000000000000007f000000000000000000000000000000000000000000000000000000000000000073ffffffffffffffffffffffffffffffffffffffff16634306d354886040518263ffffffff1660e01b81526004016115bd91906123f8565b602060405180830381865afa1580156115da573d6000803e3d6000fd5b505050506040513d601f19601f820116820180604052508101906115fe9190611ffe565b8787876040516020016116139392919061249c565b6040516020818303038152906040526040518463ffffffff1660e01b815260040161164093929190612552565b6020604051808303816000875af115801561165f573d6000803e3d6000fd5b505050506040513d601f19601f82011682018060405250810190611683919061208c565b507f000000000000000000000000000000000000000000000000000000000000000073ffffffffffffffffffffffffffffffffffffffff1663fc2a88c36040518163ffffffff1660e01b8152600401602060405180830381865afa1580156116ef573d6000803e3d6000fd5b505050506040513d601f19601f820116820180604052508101906117139190611ffe565b90509392505050565b828054828255906000526020600020908101928215611758579160200282015b8281111561175757825182559160200191906001019061173c565b5b5090506117659190611769565b5090565b5b8082111561178257600081600090555060010161176a565b5090565b6000604051905090565b600080fd5b600080fd5b6000819050919050565b6117ad8161179a565b81146117b857600080fd5b50565b6000813590506117ca816117a4565b92915050565b6000602082840312156117e6576117e5611790565b5b60006117f4848285016117bb565b91505092915050565b600073ffffffffffffffffffffffffffffffffffffffff82169050919050565b6000611828826117fd565b9050919050565b6118388161181d565b82525050565b6000602082019050611853600083018461182f565b92915050565b600080fd5b6000601f19601f8301169050919050565b7f4e487b7100000000000000000000000000000000000000000000000000000000600052604160045260246000fd5b6118a78261185e565b810181811067ffffffffffffffff821117156118c6576118c561186f565b5b80604052505050565b60006118d9611786565b90506118e5828261189e565b919050565b600067ffffffffffffffff8211156119055761190461186f565b5b602082029050602081019050919050565b600080fd5b600061192e611929846118ea565b6118cf565b9050808382526020820190506020840283018581111561195157611950611916565b5b835b8181101561197a578061196688826117bb565b845260208401935050602081019050611953565b5050509392505050565b600082601f83011261199957611998611859565b5b81356119a984826020860161191b565b91505092915050565b600080604083850312156119c9576119c8611790565b5b60006119d7858286016117bb565b925050602083013567ffffffffffffffff8111156119f8576119f7611795565b5b611a0485828601611984565b9150509250929050565b611a178161179a565b82525050565b6000602082019050611a326000830184611a0e565b92915050565b611a418161181d565b8114611a4c57600080fd5b50565b600081359050611a5e81611a38565b92915050565b600060208284031215611a7a57611a79611790565b5b6000611a8884828501611a4f565b91505092915050565b600082825260208201905092915050565b7f726f756e64206d7573742062652067726561746572207468616e203000000000600082015250565b6000611ad8601c83611a91565b9150611ae382611aa2565b602082019050919050565b60006020820190508181036000830152611b0781611acb565b9050919050565b7f726f756e64206d757374206265206c657373207468616e20746865206375727260008201527f656e7420726f756e640000000000000000000000000000000000000000000000602082015250565b6000611b6a602983611a91565b9150611b7582611b0e565b604082019050919050565b60006020820190508181036000830152611b9981611b5d565b9050919050565b7f4e487b7100000000000000000000000000000000000000000000000000000000600052603260045260246000fd5b7f4e487b7100000000000000000000000000000000000000000000000000000000600052601260045260246000fd5b6000611c098261179a565b9150611c148361179a565b925082611c2457611c23611bcf565b5b828206905092915050565b7f6f6e6c792056524620563220777261707065722063616e2066756c66696c6c00600082015250565b6000611c65601f83611a91565b9150611c7082611c2f565b602082019050919050565b60006020820190508181036000830152611c9481611c58565b9050919050565b7f57696e6e6572206973206e6f7420796574206465636964656420666f7220746860008201527f6520647261770000000000000000000000000000000000000000000000000000602082015250565b6000611cf7602683611a91565b9150611d0282611c9b565b604082019050919050565b60006020820190508181036000830152611d2681611cea565b9050919050565b7f596f7520617265206e6f74207468652077696e6e657200000000000000000000600082015250565b6000611d63601683611a91565b9150611d6e82611d2d565b602082019050919050565b60006020820190508181036000830152611d9281611d56565b9050919050565b7f4e487b7100000000000000000000000000000000000000000000000000000000600052601160045260246000fd5b6000611dd38261179a565b9150611dde8361179a565b9250828201905080821115611df657611df5611d99565b5b92915050565b6000611e078261179a565b91507fffffffffffffffffffffffffffffffffffffffffffffffffffffffffffffffff8203611e3957611e38611d99565b5b600182019050919050565b6000611e4f8261179a565b9150611e5a8361179a565b9250828202611e688161179a565b91508282048414831517611e7f57611e7e611d99565b5b5092915050565b6000611e918261179a565b9150611e9c8361179a565b925082611eac57611eab611bcf565b5b828204905092915050565b6000611ec28261179a565b9150611ecd8361179a565b9250828203905081811115611ee557611ee4611d99565b5b92915050565b7f4e756d626572206f66206d656d62657273206d7573742062652035206265666f60008201527f726520647261772063616e20626520706572666f726d65640000000000000000602082015250565b6000611f47603883611a91565b9150611f5282611eeb565b604082019050919050565b60006020820190508181036000830152611f7681611f3a565b9050919050565b7f4d7573742062652070726f706f736564206f776e657200000000000000000000600082015250565b6000611fb3601683611a91565b9150611fbe82611f7d565b602082019050919050565b60006020820190508181036000830152611fe281611fa6565b9050919050565b600081519050611ff8816117a4565b92915050565b60006020828403121561201457612013611790565b5b600061202284828501611fe9565b91505092915050565b6000604082019050612040600083018561182f565b61204d6020830184611a0e565b9392505050565b60008115159050919050565b61206981612054565b811461207457600080fd5b50565b60008151905061208681612060565b92915050565b6000602082840312156120a2576120a1611790565b5b60006120b084828501612077565b91505092915050565b7f556e61626c6520746f207472616e736665720000000000000000000000000000600082015250565b60006120ef601283611a91565b91506120fa826120b9565b602082019050919050565b6000602082019050818103600083015261211e816120e2565b9050919050565b7f4e756d626572206f66206d656d626572732061726520616c726561647920352e60008201527f20506c656173652074727920746f206a6f696e20696e206e65787420726f756e60208201527f6400000000000000000000000000000000000000000000000000000000000000604082015250565b60006121a7604183611a91565b91506121b282612125565b606082019050919050565b600060208201905081810360008301526121d68161219a565b9050919050565b7f596f75206861766520616c7265616479207265676973746572656420666f722060008201527f7468697320726f756e6400000000000000000000000000000000000000000000602082015250565b6000612239602a83611a91565b9150612244826121dd565b604082019050919050565b600060208201905081810360008301526122688161222c565b9050919050565b7f596f75206d75737420696e76657374206174206c6561737420302e303031204560008201527f544820696e20746865206c6f747465727920726f756e64000000000000000000602082015250565b60006122cb603783611a91565b91506122d68261226f565b604082019050919050565b600060208201905081810360008301526122fa816122be565b9050919050565b7f72657175657374206e6f7420666f756e64000000000000000000000000000000600082015250565b6000612337601183611a91565b915061234282612301565b602082019050919050565b600060208201905081810360008301526123668161232a565b9050919050565b7f4f6e6c792063616c6c61626c65206279206f776e657200000000000000000000600082015250565b60006123a3601683611a91565b91506123ae8261236d565b602082019050919050565b600060208201905081810360008301526123d281612396565b9050919050565b600063ffffffff82169050919050565b6123f2816123d9565b82525050565b600060208201905061240d60008301846123e9565b92915050565b7f43616e6e6f74207472616e7366657220746f2073656c66000000000000000000600082015250565b6000612449601783611a91565b915061245482612413565b602082019050919050565b600060208201905081810360008301526124788161243c565b9050919050565b600061ffff82169050919050565b6124968161247f565b82525050565b60006060820190506124b160008301866123e9565b6124be602083018561248d565b6124cb60408301846123e9565b949350505050565b600081519050919050565b600082825260208201905092915050565b60005b8381101561250d5780820151818401526020810190506124f2565b60008484015250505050565b6000612524826124d3565b61252e81856124de565b935061253e8185602086016124ef565b6125478161185e565b840191505092915050565b6000606082019050612567600083018661182f565b6125746020830185611a0e565b81810360408301526125868184612519565b905094935050505056fea264697066735822122082974b4f3e1c3763a8dfe0189c5629e8204f7b0757a7f065d0b17dff6db74ec864736f6c63430008120033",
					"opcodes": "PUSH1 0xC0 PUSH1 0x40 MSTORE PUSH3 0x186A0 PUSH1 0x5 PUSH1 0x0 PUSH2 0x100 EXP DUP2 SLOAD DUP2 PUSH4 0xFFFFFFFF MUL NOT AND SWAP1 DUP4 PUSH4 0xFFFFFFFF AND MUL OR SWAP1 SSTORE POP PUSH1 0x3 PUSH1 0x5 PUSH1 0x4 PUSH2 0x100 EXP DUP2 SLOAD DUP2 PUSH2 0xFFFF MUL NOT AND SWAP1 DUP4 PUSH2 0xFFFF AND MUL OR SWAP1 SSTORE POP PUSH1 0x1 PUSH1 0x5 PUSH1 0x6 PUSH2 0x100 EXP DUP2 SLOAD DUP2 PUSH4 0xFFFFFFFF MUL NOT AND SWAP1 DUP4 PUSH4 0xFFFFFFFF AND MUL OR SWAP1 SSTORE POP PUSH20 0x779877A7B0D9E8603169DDBD7836E478B4624789 PUSH1 0x5 PUSH1 0xA PUSH2 0x100 EXP DUP2 SLOAD DUP2 PUSH20 0xFFFFFFFFFFFFFFFFFFFFFFFFFFFFFFFFFFFFFFFF MUL NOT AND SWAP1 DUP4 PUSH20 0xFFFFFFFFFFFFFFFFFFFFFFFFFFFFFFFFFFFFFFFF AND MUL OR SWAP1 SSTORE POP PUSH20 0xAB18414CD93297B0D12AC29E63CA20F515B3DB46 PUSH1 0x6 PUSH1 0x0 PUSH2 0x100 EXP DUP2 SLOAD DUP2 PUSH20 0xFFFFFFFFFFFFFFFFFFFFFFFFFFFFFFFFFFFFFFFF MUL NOT AND SWAP1 DUP4 PUSH20 0xFFFFFFFFFFFFFFFFFFFFFFFFFFFFFFFFFFFFFFFF AND MUL OR SWAP1 SSTORE POP CALLVALUE DUP1 ISZERO PUSH3 0x11F JUMPI PUSH1 0x0 DUP1 REVERT JUMPDEST POP CALLER DUP1 PUSH1 0x0 PUSH1 0x5 PUSH1 0xA SWAP1 SLOAD SWAP1 PUSH2 0x100 EXP SWAP1 DIV PUSH20 0xFFFFFFFFFFFFFFFFFFFFFFFFFFFFFFFFFFFFFFFF AND PUSH1 0x6 PUSH1 0x0 SWAP1 SLOAD SWAP1 PUSH2 0x100 EXP SWAP1 DIV PUSH20 0xFFFFFFFFFFFFFFFFFFFFFFFFFFFFFFFFFFFFFFFF AND DUP2 PUSH20 0xFFFFFFFFFFFFFFFFFFFFFFFFFFFFFFFFFFFFFFFF AND PUSH1 0x80 DUP2 PUSH20 0xFFFFFFFFFFFFFFFFFFFFFFFFFFFFFFFFFFFFFFFF AND DUP2 MSTORE POP POP DUP1 PUSH20 0xFFFFFFFFFFFFFFFFFFFFFFFFFFFFFFFFFFFFFFFF AND PUSH1 0xA0 DUP2 PUSH20 0xFFFFFFFFFFFFFFFFFFFFFFFFFFFFFFFFFFFFFFFF AND DUP2 MSTORE POP POP POP POP PUSH1 0x0 PUSH20 0xFFFFFFFFFFFFFFFFFFFFFFFFFFFFFFFFFFFFFFFF AND DUP3 PUSH20 0xFFFFFFFFFFFFFFFFFFFFFFFFFFFFFFFFFFFFFFFF AND SUB PUSH3 0x246 JUMPI PUSH1 0x40 MLOAD PUSH32 0x8C379A000000000000000000000000000000000000000000000000000000000 DUP2 MSTORE PUSH1 0x4 ADD PUSH3 0x23D SWAP1 PUSH3 0x55F JUMP JUMPDEST PUSH1 0x40 MLOAD DUP1 SWAP2 SUB SWAP1 REVERT JUMPDEST DUP2 PUSH1 0x0 DUP1 PUSH2 0x100 EXP DUP2 SLOAD DUP2 PUSH20 0xFFFFFFFFFFFFFFFFFFFFFFFFFFFFFFFFFFFFFFFF MUL NOT AND SWAP1 DUP4 PUSH20 0xFFFFFFFFFFFFFFFFFFFFFFFFFFFFFFFFFFFFFFFF AND MUL OR SWAP1 SSTORE POP PUSH1 0x0 PUSH20 0xFFFFFFFFFFFFFFFFFFFFFFFFFFFFFFFFFFFFFFFF AND DUP2 PUSH20 0xFFFFFFFFFFFFFFFFFFFFFFFFFFFFFFFFFFFFFFFF AND EQ PUSH3 0x2CD JUMPI PUSH3 0x2CC DUP2 PUSH3 0x3CF PUSH1 0x20 SHL PUSH1 0x20 SHR JUMP JUMPDEST JUMPDEST POP POP POP PUSH1 0x1 PUSH1 0x8 DUP2 SWAP1 SSTORE POP PUSH1 0x0 PUSH1 0xA PUSH1 0x0 PUSH1 0x8 SLOAD DUP2 MSTORE PUSH1 0x20 ADD SWAP1 DUP2 MSTORE PUSH1 0x20 ADD PUSH1 0x0 KECCAK256 SWAP1 POP PUSH1 0x0 JUMPDEST PUSH1 0x5 DUP2 LT ISZERO PUSH3 0x3C7 JUMPI PUSH1 0x0 PUSH1 0x40 MLOAD DUP1 PUSH1 0x40 ADD PUSH1 0x40 MSTORE DUP1 PUSH1 0x0 PUSH20 0xFFFFFFFFFFFFFFFFFFFFFFFFFFFFFFFFFFFFFFFF AND DUP2 MSTORE PUSH1 0x20 ADD PUSH1 0x0 DUP2 MSTORE POP SWAP1 POP DUP3 PUSH1 0x0 ADD DUP2 SWAP1 DUP1 PUSH1 0x1 DUP2 SLOAD ADD DUP1 DUP3 SSTORE DUP1 SWAP2 POP POP PUSH1 0x1 SWAP1 SUB SWAP1 PUSH1 0x0 MSTORE PUSH1 0x20 PUSH1 0x0 KECCAK256 SWAP1 PUSH1 0x2 MUL ADD PUSH1 0x0 SWAP1 SWAP2 SWAP1 SWAP2 SWAP1 SWAP2 POP PUSH1 0x0 DUP3 ADD MLOAD DUP2 PUSH1 0x0 ADD PUSH1 0x0 PUSH2 0x100 EXP DUP2 SLOAD DUP2 PUSH20 0xFFFFFFFFFFFFFFFFFFFFFFFFFFFFFFFFFFFFFFFF MUL NOT AND SWAP1 DUP4 PUSH20 0xFFFFFFFFFFFFFFFFFFFFFFFFFFFFFFFFFFFFFFFF AND MUL OR SWAP1 SSTORE POP PUSH1 0x20 DUP3 ADD MLOAD DUP2 PUSH1 0x1 ADD SSTORE POP POP POP DUP1 DUP1 PUSH3 0x3BE SWAP1 PUSH3 0x5BA JUMP JUMPDEST SWAP2 POP POP PUSH3 0x2F4 JUMP JUMPDEST POP POP PUSH3 0x679 JUMP JUMPDEST CALLER PUSH20 0xFFFFFFFFFFFFFFFFFFFFFFFFFFFFFFFFFFFFFFFF AND DUP2 PUSH20 0xFFFFFFFFFFFFFFFFFFFFFFFFFFFFFFFFFFFFFFFF AND SUB PUSH3 0x440 JUMPI PUSH1 0x40 MLOAD PUSH32 0x8C379A000000000000000000000000000000000000000000000000000000000 DUP2 MSTORE PUSH1 0x4 ADD PUSH3 0x437 SWAP1 PUSH3 0x657 JUMP JUMPDEST PUSH1 0x40 MLOAD DUP1 SWAP2 SUB SWAP1 REVERT JUMPDEST DUP1 PUSH1 0x1 PUSH1 0x0 PUSH2 0x100 EXP DUP2 SLOAD DUP2 PUSH20 0xFFFFFFFFFFFFFFFFFFFFFFFFFFFFFFFFFFFFFFFF MUL NOT AND SWAP1 DUP4 PUSH20 0xFFFFFFFFFFFFFFFFFFFFFFFFFFFFFFFFFFFFFFFF AND MUL OR SWAP1 SSTORE POP DUP1 PUSH20 0xFFFFFFFFFFFFFFFFFFFFFFFFFFFFFFFFFFFFFFFF AND PUSH1 0x0 DUP1 SLOAD SWAP1 PUSH2 0x100 EXP SWAP1 DIV PUSH20 0xFFFFFFFFFFFFFFFFFFFFFFFFFFFFFFFFFFFFFFFF AND PUSH20 0xFFFFFFFFFFFFFFFFFFFFFFFFFFFFFFFFFFFFFFFF AND PUSH32 0xED8889F560326EB138920D842192F0EB3DD22B4F139C87A2C57538E05BAE1278 PUSH1 0x40 MLOAD PUSH1 0x40 MLOAD DUP1 SWAP2 SUB SWAP1 LOG3 POP JUMP JUMPDEST PUSH1 0x0 DUP3 DUP3 MSTORE PUSH1 0x20 DUP3 ADD SWAP1 POP SWAP3 SWAP2 POP POP JUMP JUMPDEST PUSH32 0x43616E6E6F7420736574206F776E657220746F207A65726F0000000000000000 PUSH1 0x0 DUP3 ADD MSTORE POP JUMP JUMPDEST PUSH1 0x0 PUSH3 0x547 PUSH1 0x18 DUP4 PUSH3 0x4FE JUMP JUMPDEST SWAP2 POP PUSH3 0x554 DUP3 PUSH3 0x50F JUMP JUMPDEST PUSH1 0x20 DUP3 ADD SWAP1 POP SWAP2 SWAP1 POP JUMP JUMPDEST PUSH1 0x0 PUSH1 0x20 DUP3 ADD SWAP1 POP DUP2 DUP2 SUB PUSH1 0x0 DUP4 ADD MSTORE PUSH3 0x57A DUP2 PUSH3 0x538 JUMP JUMPDEST SWAP1 POP SWAP2 SWAP1 POP JUMP JUMPDEST PUSH32 0x4E487B7100000000000000000000000000000000000000000000000000000000 PUSH1 0x0 MSTORE PUSH1 0x11 PUSH1 0x4 MSTORE PUSH1 0x24 PUSH1 0x0 REVERT JUMPDEST PUSH1 0x0 DUP2 SWAP1 POP SWAP2 SWAP1 POP JUMP JUMPDEST PUSH1 0x0 PUSH3 0x5C7 DUP3 PUSH3 0x5B0 JUMP JUMPDEST SWAP2 POP PUSH32 0xFFFFFFFFFFFFFFFFFFFFFFFFFFFFFFFFFFFFFFFFFFFFFFFFFFFFFFFFFFFFFFFF DUP3 SUB PUSH3 0x5FC JUMPI PUSH3 0x5FB PUSH3 0x581 JUMP JUMPDEST JUMPDEST PUSH1 0x1 DUP3 ADD SWAP1 POP SWAP2 SWAP1 POP JUMP JUMPDEST PUSH32 0x43616E6E6F74207472616E7366657220746F2073656C66000000000000000000 PUSH1 0x0 DUP3 ADD MSTORE POP JUMP JUMPDEST PUSH1 0x0 PUSH3 0x63F PUSH1 0x17 DUP4 PUSH3 0x4FE JUMP JUMPDEST SWAP2 POP PUSH3 0x64C DUP3 PUSH3 0x607 JUMP JUMPDEST PUSH1 0x20 DUP3 ADD SWAP1 POP SWAP2 SWAP1 POP JUMP JUMPDEST PUSH1 0x0 PUSH1 0x20 DUP3 ADD SWAP1 POP DUP2 DUP2 SUB PUSH1 0x0 DUP4 ADD MSTORE PUSH3 0x672 DUP2 PUSH3 0x630 JUMP JUMPDEST SWAP1 POP SWAP2 SWAP1 POP JUMP JUMPDEST PUSH1 0x80 MLOAD PUSH1 0xA0 MLOAD PUSH2 0x25C6 PUSH3 0x6BB PUSH1 0x0 CODECOPY PUSH1 0x0 DUP2 DUP2 PUSH2 0x435 ADD MSTORE DUP2 DUP2 PUSH2 0x1244 ADD MSTORE DUP2 DUP2 PUSH2 0x1545 ADD MSTORE DUP2 DUP2 PUSH2 0x1566 ADD MSTORE PUSH2 0x1686 ADD MSTORE PUSH1 0x0 PUSH2 0x1509 ADD MSTORE PUSH2 0x25C6 PUSH1 0x0 RETURN INVALID PUSH1 0x80 PUSH1 0x40 MSTORE PUSH1 0x4 CALLDATASIZE LT PUSH2 0xC2 JUMPI PUSH1 0x0 CALLDATALOAD PUSH1 0xE0 SHR DUP1 PUSH4 0x8A19C8BC GT PUSH2 0x7F JUMPI DUP1 PUSH4 0x8DA5CB5B GT PUSH2 0x59 JUMPI DUP1 PUSH4 0x8DA5CB5B EQ PUSH2 0x242 JUMPI DUP1 PUSH4 0x8DC654A2 EQ PUSH2 0x26D JUMPI DUP1 PUSH4 0xB688A363 EQ PUSH2 0x284 JUMPI DUP1 PUSH4 0xF2FDE38B EQ PUSH2 0x28E JUMPI PUSH2 0xC2 JUMP JUMPDEST DUP1 PUSH4 0x8A19C8BC EQ PUSH2 0x1AF JUMPI DUP1 PUSH4 0x8A82C3E9 EQ PUSH2 0x1DA JUMPI DUP1 PUSH4 0x8B7AFE2E EQ PUSH2 0x217 JUMPI PUSH2 0xC2 JUMP JUMPDEST DUP1 PUSH4 0x18854939 EQ PUSH2 0xC7 JUMPI DUP1 PUSH4 0x1FE543E3 EQ PUSH2 0x104 JUMPI DUP1 PUSH4 0x289AF10C EQ PUSH2 0x12D JUMPI DUP1 PUSH4 0x3CCFD60B EQ PUSH2 0x156 JUMPI DUP1 PUSH4 0x4CDB5D40 EQ PUSH2 0x16D JUMPI DUP1 PUSH4 0x79BA5097 EQ PUSH2 0x198 JUMPI JUMPDEST PUSH1 0x0 DUP1 REVERT JUMPDEST CALLVALUE DUP1 ISZERO PUSH2 0xD3 JUMPI PUSH1 0x0 DUP1 REVERT JUMPDEST POP PUSH2 0xEE PUSH1 0x4 DUP1 CALLDATASIZE SUB DUP2 ADD SWAP1 PUSH2 0xE9 SWAP2 SWAP1 PUSH2 0x17D0 JUMP JUMPDEST PUSH2 0x2B7 JUMP JUMPDEST PUSH1 0x40 MLOAD PUSH2 0xFB SWAP2 SWAP1 PUSH2 0x183E JUMP JUMPDEST PUSH1 0x40 MLOAD DUP1 SWAP2 SUB SWAP1 RETURN JUMPDEST CALLVALUE DUP1 ISZERO PUSH2 0x110 JUMPI PUSH1 0x0 DUP1 REVERT JUMPDEST POP PUSH2 0x12B PUSH1 0x4 DUP1 CALLDATASIZE SUB DUP2 ADD SWAP1 PUSH2 0x126 SWAP2 SWAP1 PUSH2 0x19B2 JUMP JUMPDEST PUSH2 0x433 JUMP JUMPDEST STOP JUMPDEST CALLVALUE DUP1 ISZERO PUSH2 0x139 JUMPI PUSH1 0x0 DUP1 REVERT JUMPDEST POP PUSH2 0x154 PUSH1 0x4 DUP1 CALLDATASIZE SUB DUP2 ADD SWAP1 PUSH2 0x14F SWAP2 SWAP1 PUSH2 0x17D0 JUMP JUMPDEST PUSH2 0x4CF JUMP JUMPDEST STOP JUMPDEST CALLVALUE DUP1 ISZERO PUSH2 0x162 JUMPI PUSH1 0x0 DUP1 REVERT JUMPDEST POP PUSH2 0x16B PUSH2 0x697 JUMP JUMPDEST STOP JUMPDEST CALLVALUE DUP1 ISZERO PUSH2 0x179 JUMPI PUSH1 0x0 DUP1 REVERT JUMPDEST POP PUSH2 0x182 PUSH2 0x897 JUMP JUMPDEST PUSH1 0x40 MLOAD PUSH2 0x18F SWAP2 SWAP1 PUSH2 0x1A1D JUMP JUMPDEST PUSH1 0x40 MLOAD DUP1 SWAP2 SUB SWAP1 RETURN JUMPDEST CALLVALUE DUP1 ISZERO PUSH2 0x1A4 JUMPI PUSH1 0x0 DUP1 REVERT JUMPDEST POP PUSH2 0x1AD PUSH2 0xA5E JUMP JUMPDEST STOP JUMPDEST CALLVALUE DUP1 ISZERO PUSH2 0x1BB JUMPI PUSH1 0x0 DUP1 REVERT JUMPDEST POP PUSH2 0x1C4 PUSH2 0xBF3 JUMP JUMPDEST PUSH1 0x40 MLOAD PUSH2 0x1D1 SWAP2 SWAP1 PUSH2 0x1A1D JUMP JUMPDEST PUSH1 0x40 MLOAD DUP1 SWAP2 SUB SWAP1 RETURN JUMPDEST CALLVALUE DUP1 ISZERO PUSH2 0x1E6 JUMPI PUSH1 0x0 DUP1 REVERT JUMPDEST POP PUSH2 0x201 PUSH1 0x4 DUP1 CALLDATASIZE SUB DUP2 ADD SWAP1 PUSH2 0x1FC SWAP2 SWAP1 PUSH2 0x17D0 JUMP JUMPDEST PUSH2 0xBF9 JUMP JUMPDEST PUSH1 0x40 MLOAD PUSH2 0x20E SWAP2 SWAP1 PUSH2 0x1A1D JUMP JUMPDEST PUSH1 0x40 MLOAD DUP1 SWAP2 SUB SWAP1 RETURN JUMPDEST CALLVALUE DUP1 ISZERO PUSH2 0x223 JUMPI PUSH1 0x0 DUP1 REVERT JUMPDEST POP PUSH2 0x22C PUSH2 0xC1D JUMP JUMPDEST PUSH1 0x40 MLOAD PUSH2 0x239 SWAP2 SWAP1 PUSH2 0x1A1D JUMP JUMPDEST PUSH1 0x40 MLOAD DUP1 SWAP2 SUB SWAP1 RETURN JUMPDEST CALLVALUE DUP1 ISZERO PUSH2 0x24E JUMPI PUSH1 0x0 DUP1 REVERT JUMPDEST POP PUSH2 0x257 PUSH2 0xC2D JUMP JUMPDEST PUSH1 0x40 MLOAD PUSH2 0x264 SWAP2 SWAP1 PUSH2 0x183E JUMP JUMPDEST PUSH1 0x40 MLOAD DUP1 SWAP2 SUB SWAP1 RETURN JUMPDEST CALLVALUE DUP1 ISZERO PUSH2 0x279 JUMPI PUSH1 0x0 DUP1 REVERT JUMPDEST POP PUSH2 0x282 PUSH2 0xC56 JUMP JUMPDEST STOP JUMPDEST PUSH2 0x28C PUSH2 0xDBE JUMP JUMPDEST STOP JUMPDEST CALLVALUE DUP1 ISZERO PUSH2 0x29A JUMPI PUSH1 0x0 DUP1 REVERT JUMPDEST POP PUSH2 0x2B5 PUSH1 0x4 DUP1 CALLDATASIZE SUB DUP2 ADD SWAP1 PUSH2 0x2B0 SWAP2 SWAP1 PUSH2 0x1A64 JUMP JUMPDEST PUSH2 0x1091 JUMP JUMPDEST STOP JUMPDEST PUSH1 0x0 DUP1 DUP3 GT PUSH2 0x2FB JUMPI PUSH1 0x40 MLOAD PUSH32 0x8C379A000000000000000000000000000000000000000000000000000000000 DUP2 MSTORE PUSH1 0x4 ADD PUSH2 0x2F2 SWAP1 PUSH2 0x1AEE JUMP JUMPDEST PUSH1 0x40 MLOAD DUP1 SWAP2 SUB SWAP1 REVERT JUMPDEST PUSH1 0x8 SLOAD DUP3 LT PUSH2 0x33F JUMPI PUSH1 0x40 MLOAD PUSH32 0x8C379A000000000000000000000000000000000000000000000000000000000 DUP2 MSTORE PUSH1 0x4 ADD PUSH2 0x336 SWAP1 PUSH2 0x1B80 JUMP JUMPDEST PUSH1 0x40 MLOAD DUP1 SWAP2 SUB SWAP1 REVERT JUMPDEST PUSH1 0x0 PUSH1 0x9 PUSH1 0x0 DUP5 DUP2 MSTORE PUSH1 0x20 ADD SWAP1 DUP2 MSTORE PUSH1 0x20 ADD PUSH1 0x0 KECCAK256 SLOAD SWAP1 POP PUSH1 0x0 PUSH1 0x2 PUSH1 0x0 DUP4 DUP2 MSTORE PUSH1 0x20 ADD SWAP1 DUP2 MSTORE PUSH1 0x20 ADD PUSH1 0x0 KECCAK256 SWAP1 POP DUP1 PUSH1 0x1 ADD PUSH1 0x0 SWAP1 SLOAD SWAP1 PUSH2 0x100 EXP SWAP1 DIV PUSH1 0xFF AND ISZERO PUSH2 0x427 JUMPI PUSH1 0x0 DUP2 PUSH1 0x2 ADD PUSH1 0x0 DUP2 SLOAD DUP2 LT PUSH2 0x39E JUMPI PUSH2 0x39D PUSH2 0x1BA0 JUMP JUMPDEST JUMPDEST SWAP1 PUSH1 0x0 MSTORE PUSH1 0x20 PUSH1 0x0 KECCAK256 ADD SLOAD SWAP1 POP PUSH1 0x0 PUSH1 0x5 DUP3 PUSH2 0x3BA SWAP2 SWAP1 PUSH2 0x1BFE JUMP JUMPDEST SWAP1 POP PUSH1 0x0 PUSH1 0xA PUSH1 0x0 DUP9 DUP2 MSTORE PUSH1 0x20 ADD SWAP1 DUP2 MSTORE PUSH1 0x20 ADD PUSH1 0x0 KECCAK256 SWAP1 POP DUP1 PUSH1 0x0 ADD DUP3 DUP2 SLOAD DUP2 LT PUSH2 0x3E9 JUMPI PUSH2 0x3E8 PUSH2 0x1BA0 JUMP JUMPDEST JUMPDEST SWAP1 PUSH1 0x0 MSTORE PUSH1 0x20 PUSH1 0x0 KECCAK256 SWAP1 PUSH1 0x2 MUL ADD PUSH1 0x0 ADD PUSH1 0x0 SWAP1 SLOAD SWAP1 PUSH2 0x100 EXP SWAP1 DIV PUSH20 0xFFFFFFFFFFFFFFFFFFFFFFFFFFFFFFFFFFFFFFFF AND SWAP6 POP POP POP POP POP POP PUSH2 0x42E JUMP JUMPDEST PUSH1 0x0 SWAP3 POP POP POP JUMPDEST SWAP2 SWAP1 POP JUMP JUMPDEST PUSH32 0x0 PUSH20 0xFFFFFFFFFFFFFFFFFFFFFFFFFFFFFFFFFFFFFFFF AND CALLER PUSH20 0xFFFFFFFFFFFFFFFFFFFFFFFFFFFFFFFFFFFFFFFF AND EQ PUSH2 0x4C1 JUMPI PUSH1 0x40 MLOAD PUSH32 0x8C379A000000000000000000000000000000000000000000000000000000000 DUP2 MSTORE PUSH1 0x4 ADD PUSH2 0x4B8 SWAP1 PUSH2 0x1C7B JUMP JUMPDEST PUSH1 0x40 MLOAD DUP1 SWAP2 SUB SWAP1 REVERT JUMPDEST PUSH2 0x4CB DUP3 DUP3 PUSH2 0x10A5 JUMP JUMPDEST POP POP JUMP JUMPDEST PUSH1 0x0 PUSH2 0x4DA DUP3 PUSH2 0x2B7 JUMP JUMPDEST SWAP1 POP PUSH1 0x0 PUSH20 0xFFFFFFFFFFFFFFFFFFFFFFFFFFFFFFFFFFFFFFFF AND DUP2 PUSH20 0xFFFFFFFFFFFFFFFFFFFFFFFFFFFFFFFFFFFFFFFF AND SUB PUSH2 0x54B JUMPI PUSH1 0x40 MLOAD PUSH32 0x8C379A000000000000000000000000000000000000000000000000000000000 DUP2 MSTORE PUSH1 0x4 ADD PUSH2 0x542 SWAP1 PUSH2 0x1D0D JUMP JUMPDEST PUSH1 0x40 MLOAD DUP1 SWAP2 SUB SWAP1 REVERT JUMPDEST CALLER PUSH20 0xFFFFFFFFFFFFFFFFFFFFFFFFFFFFFFFFFFFFFFFF AND DUP2 PUSH20 0xFFFFFFFFFFFFFFFFFFFFFFFFFFFFFFFFFFFFFFFF AND EQ PUSH2 0x5B9 JUMPI PUSH1 0x40 MLOAD PUSH32 0x8C379A000000000000000000000000000000000000000000000000000000000 DUP2 MSTORE PUSH1 0x4 ADD PUSH2 0x5B0 SWAP1 PUSH2 0x1D79 JUMP JUMPDEST PUSH1 0x40 MLOAD DUP1 SWAP2 SUB SWAP1 REVERT JUMPDEST PUSH1 0x0 PUSH1 0xA PUSH1 0x0 DUP5 DUP2 MSTORE PUSH1 0x20 ADD SWAP1 DUP2 MSTORE PUSH1 0x20 ADD PUSH1 0x0 KECCAK256 SWAP1 POP PUSH1 0x0 DUP1 JUMPDEST PUSH1 0x5 DUP2 LT ISZERO PUSH2 0x625 JUMPI DUP3 PUSH1 0x0 ADD DUP2 DUP2 SLOAD DUP2 LT PUSH2 0x5F3 JUMPI PUSH2 0x5F2 PUSH2 0x1BA0 JUMP JUMPDEST JUMPDEST SWAP1 PUSH1 0x0 MSTORE PUSH1 0x20 PUSH1 0x0 KECCAK256 SWAP1 PUSH1 0x2 MUL ADD PUSH1 0x1 ADD SLOAD DUP3 PUSH2 0x610 SWAP2 SWAP1 PUSH2 0x1DC8 JUMP JUMPDEST SWAP2 POP DUP1 DUP1 PUSH2 0x61D SWAP1 PUSH2 0x1DFC JUMP JUMPDEST SWAP2 POP POP PUSH2 0x5D4 JUMP JUMPDEST POP PUSH1 0x0 CALLER SWAP1 POP PUSH1 0x0 PUSH1 0xA PUSH1 0x9 DUP5 PUSH2 0x63C SWAP2 SWAP1 PUSH2 0x1E44 JUMP JUMPDEST PUSH2 0x646 SWAP2 SWAP1 PUSH2 0x1E86 JUMP JUMPDEST SWAP1 POP DUP2 PUSH20 0xFFFFFFFFFFFFFFFFFFFFFFFFFFFFFFFFFFFFFFFF AND PUSH2 0x8FC DUP3 SWAP1 DUP2 ISZERO MUL SWAP1 PUSH1 0x40 MLOAD PUSH1 0x0 PUSH1 0x40 MLOAD DUP1 DUP4 SUB DUP2 DUP6 DUP9 DUP9 CALL SWAP4 POP POP POP POP ISZERO DUP1 ISZERO PUSH2 0x68E JUMPI RETURNDATASIZE PUSH1 0x0 DUP1 RETURNDATACOPY RETURNDATASIZE PUSH1 0x0 REVERT JUMPDEST POP POP POP POP POP POP POP JUMP JUMPDEST PUSH1 0x0 PUSH1 0xA PUSH1 0x0 PUSH1 0x8 SLOAD DUP2 MSTORE PUSH1 0x20 ADD SWAP1 DUP2 MSTORE PUSH1 0x20 ADD PUSH1 0x0 KECCAK256 SWAP1 POP PUSH1 0x0 JUMPDEST PUSH1 0x5 DUP2 LT ISZERO PUSH2 0x892 JUMPI CALLER PUSH20 0xFFFFFFFFFFFFFFFFFFFFFFFFFFFFFFFFFFFFFFFF AND DUP3 PUSH1 0x0 ADD DUP3 DUP2 SLOAD DUP2 LT PUSH2 0x6E9 JUMPI PUSH2 0x6E8 PUSH2 0x1BA0 JUMP JUMPDEST JUMPDEST SWAP1 PUSH1 0x0 MSTORE PUSH1 0x20 PUSH1 0x0 KECCAK256 SWAP1 PUSH1 0x2 MUL ADD PUSH1 0x0 ADD PUSH1 0x0 SWAP1 SLOAD SWAP1 PUSH2 0x100 EXP SWAP1 DIV PUSH20 0xFFFFFFFFFFFFFFFFFFFFFFFFFFFFFFFFFFFFFFFF AND PUSH20 0xFFFFFFFFFFFFFFFFFFFFFFFFFFFFFFFFFFFFFFFF AND SUB PUSH2 0x87F JUMPI PUSH1 0x0 PUSH1 0x5 PUSH1 0x4 DUP5 PUSH1 0x0 ADD DUP5 DUP2 SLOAD DUP2 LT PUSH2 0x752 JUMPI PUSH2 0x751 PUSH2 0x1BA0 JUMP JUMPDEST JUMPDEST SWAP1 PUSH1 0x0 MSTORE PUSH1 0x20 PUSH1 0x0 KECCAK256 SWAP1 PUSH1 0x2 MUL ADD PUSH1 0x1 ADD SLOAD PUSH2 0x76E SWAP2 SWAP1 PUSH2 0x1E44 JUMP JUMPDEST PUSH2 0x778 SWAP2 SWAP1 PUSH2 0x1E86 JUMP JUMPDEST SWAP1 POP PUSH1 0x0 CALLER SWAP1 POP PUSH1 0x0 DUP5 PUSH1 0x0 ADD DUP5 DUP2 SLOAD DUP2 LT PUSH2 0x797 JUMPI PUSH2 0x796 PUSH2 0x1BA0 JUMP JUMPDEST JUMPDEST SWAP1 PUSH1 0x0 MSTORE PUSH1 0x20 PUSH1 0x0 KECCAK256 SWAP1 PUSH1 0x2 MUL ADD PUSH1 0x0 ADD PUSH1 0x0 PUSH2 0x100 EXP DUP2 SLOAD DUP2 PUSH20 0xFFFFFFFFFFFFFFFFFFFFFFFFFFFFFFFFFFFFFFFF MUL NOT AND SWAP1 DUP4 PUSH20 0xFFFFFFFFFFFFFFFFFFFFFFFFFFFFFFFFFFFFFFFF AND MUL OR SWAP1 SSTORE POP PUSH1 0x0 DUP5 PUSH1 0x0 ADD DUP5 DUP2 SLOAD DUP2 LT PUSH2 0x7FE JUMPI PUSH2 0x7FD PUSH2 0x1BA0 JUMP JUMPDEST JUMPDEST SWAP1 PUSH1 0x0 MSTORE PUSH1 0x20 PUSH1 0x0 KECCAK256 SWAP1 PUSH1 0x2 MUL ADD PUSH1 0x1 ADD DUP2 SWAP1 SSTORE POP PUSH1 0x1 DUP5 PUSH1 0x1 ADD PUSH1 0x0 DUP3 DUP3 SLOAD PUSH2 0x828 SWAP2 SWAP1 PUSH2 0x1EB7 JUMP JUMPDEST SWAP3 POP POP DUP2 SWAP1 SSTORE POP DUP1 PUSH20 0xFFFFFFFFFFFFFFFFFFFFFFFFFFFFFFFFFFFFFFFF AND PUSH2 0x8FC DUP4 SWAP1 DUP2 ISZERO MUL SWAP1 PUSH1 0x40 MLOAD PUSH1 0x0 PUSH1 0x40 MLOAD DUP1 DUP4 SUB DUP2 DUP6 DUP9 DUP9 CALL SWAP4 POP POP POP POP ISZERO DUP1 ISZERO PUSH2 0x875 JUMPI RETURNDATASIZE PUSH1 0x0 DUP1 RETURNDATACOPY RETURNDATASIZE PUSH1 0x0 REVERT JUMPDEST POP POP POP POP POP PUSH2 0x895 JUMP JUMPDEST DUP1 DUP1 PUSH2 0x88A SWAP1 PUSH2 0x1DFC JUMP JUMPDEST SWAP2 POP POP PUSH2 0x6B3 JUMP JUMPDEST POP POP JUMPDEST JUMP JUMPDEST PUSH1 0x0 PUSH2 0x8A1 PUSH2 0x115C JUMP JUMPDEST PUSH1 0x0 PUSH1 0xA PUSH1 0x0 PUSH1 0x8 SLOAD DUP2 MSTORE PUSH1 0x20 ADD SWAP1 DUP2 MSTORE PUSH1 0x20 ADD PUSH1 0x0 KECCAK256 SWAP1 POP PUSH1 0x5 DUP2 PUSH1 0x1 ADD SLOAD EQ PUSH2 0x901 JUMPI PUSH1 0x40 MLOAD PUSH32 0x8C379A000000000000000000000000000000000000000000000000000000000 DUP2 MSTORE PUSH1 0x4 ADD PUSH2 0x8F8 SWAP1 PUSH2 0x1F5D JUMP JUMPDEST PUSH1 0x40 MLOAD DUP1 SWAP2 SUB SWAP1 REVERT JUMPDEST PUSH1 0x0 PUSH2 0x90B PUSH2 0x11EC JUMP JUMPDEST SWAP1 POP DUP1 PUSH1 0x9 PUSH1 0x0 PUSH1 0x8 SLOAD DUP2 MSTORE PUSH1 0x20 ADD SWAP1 DUP2 MSTORE PUSH1 0x20 ADD PUSH1 0x0 KECCAK256 DUP2 SWAP1 SSTORE POP PUSH1 0x7 PUSH1 0x8 SLOAD SWAP1 DUP1 PUSH1 0x1 DUP2 SLOAD ADD DUP1 DUP3 SSTORE DUP1 SWAP2 POP POP PUSH1 0x1 SWAP1 SUB SWAP1 PUSH1 0x0 MSTORE PUSH1 0x20 PUSH1 0x0 KECCAK256 ADD PUSH1 0x0 SWAP1 SWAP2 SWAP1 SWAP2 SWAP1 SWAP2 POP SSTORE PUSH1 0x1 PUSH1 0x8 PUSH1 0x0 DUP3 DUP3 SLOAD PUSH2 0x965 SWAP2 SWAP1 PUSH2 0x1DC8 JUMP JUMPDEST SWAP3 POP POP DUP2 SWAP1 SSTORE POP PUSH1 0xA PUSH1 0x0 PUSH1 0x8 SLOAD DUP2 MSTORE PUSH1 0x20 ADD SWAP1 DUP2 MSTORE PUSH1 0x20 ADD PUSH1 0x0 KECCAK256 SWAP2 POP PUSH1 0x0 JUMPDEST PUSH1 0x5 DUP2 LT ISZERO PUSH2 0xA55 JUMPI PUSH1 0x0 PUSH1 0x40 MLOAD DUP1 PUSH1 0x40 ADD PUSH1 0x40 MSTORE DUP1 PUSH1 0x0 PUSH20 0xFFFFFFFFFFFFFFFFFFFFFFFFFFFFFFFFFFFFFFFF AND DUP2 MSTORE PUSH1 0x20 ADD PUSH1 0x0 DUP2 MSTORE POP SWAP1 POP DUP4 PUSH1 0x0 ADD DUP2 SWAP1 DUP1 PUSH1 0x1 DUP2 SLOAD ADD DUP1 DUP3 SSTORE DUP1 SWAP2 POP POP PUSH1 0x1 SWAP1 SUB SWAP1 PUSH1 0x0 MSTORE PUSH1 0x20 PUSH1 0x0 KECCAK256 SWAP1 PUSH1 0x2 MUL ADD PUSH1 0x0 SWAP1 SWAP2 SWAP1 SWAP2 SWAP1 SWAP2 POP PUSH1 0x0 DUP3 ADD MLOAD DUP2 PUSH1 0x0 ADD PUSH1 0x0 PUSH2 0x100 EXP DUP2 SLOAD DUP2 PUSH20 0xFFFFFFFFFFFFFFFFFFFFFFFFFFFFFFFFFFFFFFFF MUL NOT AND SWAP1 DUP4 PUSH20 0xFFFFFFFFFFFFFFFFFFFFFFFFFFFFFFFFFFFFFFFF AND MUL OR SWAP1 SSTORE POP PUSH1 0x20 DUP3 ADD MLOAD DUP2 PUSH1 0x1 ADD SSTORE POP POP POP DUP1 DUP1 PUSH2 0xA4D SWAP1 PUSH2 0x1DFC JUMP JUMPDEST SWAP2 POP POP PUSH2 0x986 JUMP JUMPDEST POP DUP1 SWAP3 POP POP POP SWAP1 JUMP JUMPDEST PUSH1 0x1 PUSH1 0x0 SWAP1 SLOAD SWAP1 PUSH2 0x100 EXP SWAP1 DIV PUSH20 0xFFFFFFFFFFFFFFFFFFFFFFFFFFFFFFFFFFFFFFFF AND PUSH20 0xFFFFFFFFFFFFFFFFFFFFFFFFFFFFFFFFFFFFFFFF AND CALLER PUSH20 0xFFFFFFFFFFFFFFFFFFFFFFFFFFFFFFFFFFFFFFFF AND EQ PUSH2 0xAEE JUMPI PUSH1 0x40 MLOAD PUSH32 0x8C379A000000000000000000000000000000000000000000000000000000000 DUP2 MSTORE PUSH1 0x4 ADD PUSH2 0xAE5 SWAP1 PUSH2 0x1FC9 JUMP JUMPDEST PUSH1 0x40 MLOAD DUP1 SWAP2 SUB SWAP1 REVERT JUMPDEST PUSH1 0x0 DUP1 PUSH1 0x0 SWAP1 SLOAD SWAP1 PUSH2 0x100 EXP SWAP1 DIV PUSH20 0xFFFFFFFFFFFFFFFFFFFFFFFFFFFFFFFFFFFFFFFF AND SWAP1 POP CALLER PUSH1 0x0 DUP1 PUSH2 0x100 EXP DUP2 SLOAD DUP2 PUSH20 0xFFFFFFFFFFFFFFFFFFFFFFFFFFFFFFFFFFFFFFFF MUL NOT AND SWAP1 DUP4 PUSH20 0xFFFFFFFFFFFFFFFFFFFFFFFFFFFFFFFFFFFFFFFF AND MUL OR SWAP1 SSTORE POP PUSH1 0x0 PUSH1 0x1 PUSH1 0x0 PUSH2 0x100 EXP DUP2 SLOAD DUP2 PUSH20 0xFFFFFFFFFFFFFFFFFFFFFFFFFFFFFFFFFFFFFFFF MUL NOT AND SWAP1 DUP4 PUSH20 0xFFFFFFFFFFFFFFFFFFFFFFFFFFFFFFFFFFFFFFFF AND MUL OR SWAP1 SSTORE POP CALLER PUSH20 0xFFFFFFFFFFFFFFFFFFFFFFFFFFFFFFFFFFFFFFFF AND DUP2 PUSH20 0xFFFFFFFFFFFFFFFFFFFFFFFFFFFFFFFFFFFFFFFF AND PUSH32 0x8BE0079C531659141344CD1FD0A4F28419497F9722A3DAAFE3B4186F6B6457E0 PUSH1 0x40 MLOAD PUSH1 0x40 MLOAD DUP1 SWAP2 SUB SWAP1 LOG3 POP JUMP JUMPDEST PUSH1 0x8 SLOAD DUP2 JUMP JUMPDEST PUSH1 0x7 DUP2 DUP2 SLOAD DUP2 LT PUSH2 0xC09 JUMPI PUSH1 0x0 DUP1 REVERT JUMPDEST SWAP1 PUSH1 0x0 MSTORE PUSH1 0x20 PUSH1 0x0 KECCAK256 ADD PUSH1 0x0 SWAP2 POP SWAP1 POP SLOAD DUP2 JUMP JUMPDEST PUSH1 0x0 PUSH2 0xC27 PUSH2 0x115C JUMP JUMPDEST SELFBALANCE SWAP1 POP SWAP1 JUMP JUMPDEST PUSH1 0x0 DUP1 PUSH1 0x0 SWAP1 SLOAD SWAP1 PUSH2 0x100 EXP SWAP1 DIV PUSH20 0xFFFFFFFFFFFFFFFFFFFFFFFFFFFFFFFFFFFFFFFF AND SWAP1 POP SWAP1 JUMP JUMPDEST PUSH2 0xC5E PUSH2 0x115C JUMP JUMPDEST PUSH1 0x0 PUSH1 0x5 PUSH1 0xA SWAP1 SLOAD SWAP1 PUSH2 0x100 EXP SWAP1 DIV PUSH20 0xFFFFFFFFFFFFFFFFFFFFFFFFFFFFFFFFFFFFFFFF AND SWAP1 POP DUP1 PUSH20 0xFFFFFFFFFFFFFFFFFFFFFFFFFFFFFFFFFFFFFFFF AND PUSH4 0xA9059CBB CALLER DUP4 PUSH20 0xFFFFFFFFFFFFFFFFFFFFFFFFFFFFFFFFFFFFFFFF AND PUSH4 0x70A08231 ADDRESS PUSH1 0x40 MLOAD DUP3 PUSH4 0xFFFFFFFF AND PUSH1 0xE0 SHL DUP2 MSTORE PUSH1 0x4 ADD PUSH2 0xCDB SWAP2 SWAP1 PUSH2 0x183E JUMP JUMPDEST PUSH1 0x20 PUSH1 0x40 MLOAD DUP1 DUP4 SUB DUP2 DUP7 GAS STATICCALL ISZERO DUP1 ISZERO PUSH2 0xCF8 JUMPI RETURNDATASIZE PUSH1 0x0 DUP1 RETURNDATACOPY RETURNDATASIZE PUSH1 0x0 REVERT JUMPDEST POP POP POP POP PUSH1 0x40 MLOAD RETURNDATASIZE PUSH1 0x1F NOT PUSH1 0x1F DUP3 ADD AND DUP3 ADD DUP1 PUSH1 0x40 MSTORE POP DUP2 ADD SWAP1 PUSH2 0xD1C SWAP2 SWAP1 PUSH2 0x1FFE JUMP JUMPDEST PUSH1 0x40 MLOAD DUP4 PUSH4 0xFFFFFFFF AND PUSH1 0xE0 SHL DUP2 MSTORE PUSH1 0x4 ADD PUSH2 0xD39 SWAP3 SWAP2 SWAP1 PUSH2 0x202B JUMP JUMPDEST PUSH1 0x20 PUSH1 0x40 MLOAD DUP1 DUP4 SUB DUP2 PUSH1 0x0 DUP8 GAS CALL ISZERO DUP1 ISZERO PUSH2 0xD58 JUMPI RETURNDATASIZE PUSH1 0x0 DUP1 RETURNDATACOPY RETURNDATASIZE PUSH1 0x0 REVERT JUMPDEST POP POP POP POP PUSH1 0x40 MLOAD RETURNDATASIZE PUSH1 0x1F NOT PUSH1 0x1F DUP3 ADD AND DUP3 ADD DUP1 PUSH1 0x40 MSTORE POP DUP2 ADD SWAP1 PUSH2 0xD7C SWAP2 SWAP1 PUSH2 0x208C JUMP JUMPDEST PUSH2 0xDBB JUMPI PUSH1 0x40 MLOAD PUSH32 0x8C379A000000000000000000000000000000000000000000000000000000000 DUP2 MSTORE PUSH1 0x4 ADD PUSH2 0xDB2 SWAP1 PUSH2 0x2105 JUMP JUMPDEST PUSH1 0x40 MLOAD DUP1 SWAP2 SUB SWAP1 REVERT JUMPDEST POP JUMP JUMPDEST PUSH1 0x0 PUSH1 0xA PUSH1 0x0 PUSH1 0x8 SLOAD DUP2 MSTORE PUSH1 0x20 ADD SWAP1 DUP2 MSTORE PUSH1 0x20 ADD PUSH1 0x0 KECCAK256 SWAP1 POP PUSH1 0x5 DUP2 PUSH1 0x1 ADD SLOAD LT PUSH2 0xE1E JUMPI PUSH1 0x40 MLOAD PUSH32 0x8C379A000000000000000000000000000000000000000000000000000000000 DUP2 MSTORE PUSH1 0x4 ADD PUSH2 0xE15 SWAP1 PUSH2 0x21BD JUMP JUMPDEST PUSH1 0x40 MLOAD DUP1 SWAP2 SUB SWAP1 REVERT JUMPDEST PUSH1 0x0 JUMPDEST PUSH1 0x5 DUP2 LT ISZERO PUSH2 0xEF2 JUMPI DUP2 PUSH1 0x0 ADD DUP2 DUP2 SLOAD DUP2 LT PUSH2 0xE40 JUMPI PUSH2 0xE3F PUSH2 0x1BA0 JUMP JUMPDEST JUMPDEST SWAP1 PUSH1 0x0 MSTORE PUSH1 0x20 PUSH1 0x0 KECCAK256 SWAP1 PUSH1 0x2 MUL ADD PUSH1 0x0 ADD PUSH1 0x0 SWAP1 SLOAD SWAP1 PUSH2 0x100 EXP SWAP1 DIV PUSH20 0xFFFFFFFFFFFFFFFFFFFFFFFFFFFFFFFFFFFFFFFF AND PUSH20 0xFFFFFFFFFFFFFFFFFFFFFFFFFFFFFFFFFFFFFFFF AND CALLER PUSH20 0xFFFFFFFFFFFFFFFFFFFFFFFFFFFFFFFFFFFFFFFF AND SUB PUSH2 0xEDF JUMPI PUSH1 0x40 MLOAD PUSH32 0x8C379A000000000000000000000000000000000000000000000000000000000 DUP2 MSTORE PUSH1 0x4 ADD PUSH2 0xED6 SWAP1 PUSH2 0x224F JUMP JUMPDEST PUSH1 0x40 MLOAD DUP1 SWAP2 SUB SWAP1 REVERT JUMPDEST DUP1 DUP1 PUSH2 0xEEA SWAP1 PUSH2 0x1DFC JUMP JUMPDEST SWAP2 POP POP PUSH2 0xE21 JUMP JUMPDEST POP PUSH7 0x38D7EA4C68000 CALLVALUE LT ISZERO PUSH2 0xF3D JUMPI PUSH1 0x40 MLOAD PUSH32 0x8C379A000000000000000000000000000000000000000000000000000000000 DUP2 MSTORE PUSH1 0x4 ADD PUSH2 0xF34 SWAP1 PUSH2 0x22E1 JUMP JUMPDEST PUSH1 0x40 MLOAD DUP1 SWAP2 SUB SWAP1 REVERT JUMPDEST PUSH1 0x0 JUMPDEST PUSH1 0x5 DUP2 LT ISZERO PUSH2 0x108C JUMPI PUSH1 0x0 PUSH20 0xFFFFFFFFFFFFFFFFFFFFFFFFFFFFFFFFFFFFFFFF AND DUP3 PUSH1 0x0 ADD DUP3 DUP2 SLOAD DUP2 LT PUSH2 0xF77 JUMPI PUSH2 0xF76 PUSH2 0x1BA0 JUMP JUMPDEST JUMPDEST SWAP1 PUSH1 0x0 MSTORE PUSH1 0x20 PUSH1 0x0 KECCAK256 SWAP1 PUSH1 0x2 MUL ADD PUSH1 0x0 ADD PUSH1 0x0 SWAP1 SLOAD SWAP1 PUSH2 0x100 EXP SWAP1 DIV PUSH20 0xFFFFFFFFFFFFFFFFFFFFFFFFFFFFFFFFFFFFFFFF AND PUSH20 0xFFFFFFFFFFFFFFFFFFFFFFFFFFFFFFFFFFFFFFFF AND SUB PUSH2 0x1079 JUMPI CALLER DUP3 PUSH1 0x0 ADD DUP3 DUP2 SLOAD DUP2 LT PUSH2 0xFDB JUMPI PUSH2 0xFDA PUSH2 0x1BA0 JUMP JUMPDEST JUMPDEST SWAP1 PUSH1 0x0 MSTORE PUSH1 0x20 PUSH1 0x0 KECCAK256 SWAP1 PUSH1 0x2 MUL ADD PUSH1 0x0 ADD PUSH1 0x0 PUSH2 0x100 EXP DUP2 SLOAD DUP2 PUSH20 0xFFFFFFFFFFFFFFFFFFFFFFFFFFFFFFFFFFFFFFFF MUL NOT AND SWAP1 DUP4 PUSH20 0xFFFFFFFFFFFFFFFFFFFFFFFFFFFFFFFFFFFFFFFF AND MUL OR SWAP1 SSTORE POP CALLVALUE DUP3 PUSH1 0x0 ADD DUP3 DUP2 SLOAD DUP2 LT PUSH2 0x1041 JUMPI PUSH2 0x1040 PUSH2 0x1BA0 JUMP JUMPDEST JUMPDEST SWAP1 PUSH1 0x0 MSTORE PUSH1 0x20 PUSH1 0x0 KECCAK256 SWAP1 PUSH1 0x2 MUL ADD PUSH1 0x1 ADD DUP2 SWAP1 SSTORE POP PUSH1 0x1 DUP3 PUSH1 0x1 ADD PUSH1 0x0 DUP3 DUP3 SLOAD PUSH2 0x106B SWAP2 SWAP1 PUSH2 0x1DC8 JUMP JUMPDEST SWAP3 POP POP DUP2 SWAP1 SSTORE POP POP POP PUSH2 0x108F JUMP JUMPDEST DUP1 DUP1 PUSH2 0x1084 SWAP1 PUSH2 0x1DFC JUMP JUMPDEST SWAP2 POP POP PUSH2 0xF40 JUMP JUMPDEST POP POP JUMPDEST JUMP JUMPDEST PUSH2 0x1099 PUSH2 0x115C JUMP JUMPDEST PUSH2 0x10A2 DUP2 PUSH2 0x13D9 JUMP JUMPDEST POP JUMP JUMPDEST PUSH1 0x0 PUSH1 0x2 PUSH1 0x0 DUP5 DUP2 MSTORE PUSH1 0x20 ADD SWAP1 DUP2 MSTORE PUSH1 0x20 ADD PUSH1 0x0 KECCAK256 PUSH1 0x0 ADD SLOAD GT PUSH2 0x10FE JUMPI PUSH1 0x40 MLOAD PUSH32 0x8C379A000000000000000000000000000000000000000000000000000000000 DUP2 MSTORE PUSH1 0x4 ADD PUSH2 0x10F5 SWAP1 PUSH2 0x234D JUMP JUMPDEST PUSH1 0x40 MLOAD DUP1 SWAP2 SUB SWAP1 REVERT JUMPDEST PUSH1 0x1 PUSH1 0x2 PUSH1 0x0 DUP5 DUP2 MSTORE PUSH1 0x20 ADD SWAP1 DUP2 MSTORE PUSH1 0x20 ADD PUSH1 0x0 KECCAK256 PUSH1 0x1 ADD PUSH1 0x0 PUSH2 0x100 EXP DUP2 SLOAD DUP2 PUSH1 0xFF MUL NOT AND SWAP1 DUP4 ISZERO ISZERO MUL OR SWAP1 SSTORE POP DUP1 PUSH1 0x2 PUSH1 0x0 DUP5 DUP2 MSTORE PUSH1 0x20 ADD SWAP1 DUP2 MSTORE PUSH1 0x20 ADD PUSH1 0x0 KECCAK256 PUSH1 0x2 ADD SWAP1 DUP1 MLOAD SWAP1 PUSH1 0x20 ADD SWAP1 PUSH2 0x1157 SWAP3 SWAP2 SWAP1 PUSH2 0x171C JUMP JUMPDEST POP POP POP JUMP JUMPDEST PUSH1 0x0 DUP1 SLOAD SWAP1 PUSH2 0x100 EXP SWAP1 DIV PUSH20 0xFFFFFFFFFFFFFFFFFFFFFFFFFFFFFFFFFFFFFFFF AND PUSH20 0xFFFFFFFFFFFFFFFFFFFFFFFFFFFFFFFFFFFFFFFF AND CALLER PUSH20 0xFFFFFFFFFFFFFFFFFFFFFFFFFFFFFFFFFFFFFFFF AND EQ PUSH2 0x11EA JUMPI PUSH1 0x40 MLOAD PUSH32 0x8C379A000000000000000000000000000000000000000000000000000000000 DUP2 MSTORE PUSH1 0x4 ADD PUSH2 0x11E1 SWAP1 PUSH2 0x23B9 JUMP JUMPDEST PUSH1 0x40 MLOAD DUP1 SWAP2 SUB SWAP1 REVERT JUMPDEST JUMP JUMPDEST PUSH1 0x0 PUSH2 0x11F6 PUSH2 0x115C JUMP JUMPDEST PUSH2 0x1235 PUSH1 0x5 PUSH1 0x0 SWAP1 SLOAD SWAP1 PUSH2 0x100 EXP SWAP1 DIV PUSH4 0xFFFFFFFF AND PUSH1 0x5 PUSH1 0x4 SWAP1 SLOAD SWAP1 PUSH2 0x100 EXP SWAP1 DIV PUSH2 0xFFFF AND PUSH1 0x5 PUSH1 0x6 SWAP1 SLOAD SWAP1 PUSH2 0x100 EXP SWAP1 DIV PUSH4 0xFFFFFFFF AND PUSH2 0x1505 JUMP JUMPDEST SWAP1 POP PUSH1 0x40 MLOAD DUP1 PUSH1 0x60 ADD PUSH1 0x40 MSTORE DUP1 PUSH32 0x0 PUSH20 0xFFFFFFFFFFFFFFFFFFFFFFFFFFFFFFFFFFFFFFFF AND PUSH4 0x4306D354 PUSH1 0x5 PUSH1 0x0 SWAP1 SLOAD SWAP1 PUSH2 0x100 EXP SWAP1 DIV PUSH4 0xFFFFFFFF AND PUSH1 0x40 MLOAD DUP3 PUSH4 0xFFFFFFFF AND PUSH1 0xE0 SHL DUP2 MSTORE PUSH1 0x4 ADD PUSH2 0x12AD SWAP2 SWAP1 PUSH2 0x23F8 JUMP JUMPDEST PUSH1 0x20 PUSH1 0x40 MLOAD DUP1 DUP4 SUB DUP2 DUP7 GAS STATICCALL ISZERO DUP1 ISZERO PUSH2 0x12CA JUMPI RETURNDATASIZE PUSH1 0x0 DUP1 RETURNDATACOPY RETURNDATASIZE PUSH1 0x0 REVERT JUMPDEST POP POP POP POP PUSH1 0x40 MLOAD RETURNDATASIZE PUSH1 0x1F NOT PUSH1 0x1F DUP3 ADD AND DUP3 ADD DUP1 PUSH1 0x40 MSTORE POP DUP2 ADD SWAP1 PUSH2 0x12EE SWAP2 SWAP1 PUSH2 0x1FFE JUMP JUMPDEST DUP2 MSTORE PUSH1 0x20 ADD PUSH1 0x0 ISZERO ISZERO DUP2 MSTORE PUSH1 0x20 ADD PUSH1 0x0 PUSH8 0xFFFFFFFFFFFFFFFF DUP2 GT ISZERO PUSH2 0x1317 JUMPI PUSH2 0x1316 PUSH2 0x186F JUMP JUMPDEST JUMPDEST PUSH1 0x40 MLOAD SWAP1 DUP1 DUP3 MSTORE DUP1 PUSH1 0x20 MUL PUSH1 0x20 ADD DUP3 ADD PUSH1 0x40 MSTORE DUP1 ISZERO PUSH2 0x1345 JUMPI DUP2 PUSH1 0x20 ADD PUSH1 0x20 DUP3 MUL DUP1 CALLDATASIZE DUP4 CALLDATACOPY DUP1 DUP3 ADD SWAP2 POP POP SWAP1 POP JUMPDEST POP DUP2 MSTORE POP PUSH1 0x2 PUSH1 0x0 DUP4 DUP2 MSTORE PUSH1 0x20 ADD SWAP1 DUP2 MSTORE PUSH1 0x20 ADD PUSH1 0x0 KECCAK256 PUSH1 0x0 DUP3 ADD MLOAD DUP2 PUSH1 0x0 ADD SSTORE PUSH1 0x20 DUP3 ADD MLOAD DUP2 PUSH1 0x1 ADD PUSH1 0x0 PUSH2 0x100 EXP DUP2 SLOAD DUP2 PUSH1 0xFF MUL NOT AND SWAP1 DUP4 ISZERO ISZERO MUL OR SWAP1 SSTORE POP PUSH1 0x40 DUP3 ADD MLOAD DUP2 PUSH1 0x2 ADD SWAP1 DUP1 MLOAD SWAP1 PUSH1 0x20 ADD SWAP1 PUSH2 0x13A2 SWAP3 SWAP2 SWAP1 PUSH2 0x171C JUMP JUMPDEST POP SWAP1 POP POP PUSH1 0x3 DUP2 SWAP1 DUP1 PUSH1 0x1 DUP2 SLOAD ADD DUP1 DUP3 SSTORE DUP1 SWAP2 POP POP PUSH1 0x1 SWAP1 SUB SWAP1 PUSH1 0x0 MSTORE PUSH1 0x20 PUSH1 0x0 KECCAK256 ADD PUSH1 0x0 SWAP1 SWAP2 SWAP1 SWAP2 SWAP1 SWAP2 POP SSTORE DUP1 PUSH1 0x4 DUP2 SWAP1 SSTORE POP SWAP1 JUMP JUMPDEST CALLER PUSH20 0xFFFFFFFFFFFFFFFFFFFFFFFFFFFFFFFFFFFFFFFF AND DUP2 PUSH20 0xFFFFFFFFFFFFFFFFFFFFFFFFFFFFFFFFFFFFFFFF AND SUB PUSH2 0x1447 JUMPI PUSH1 0x40 MLOAD PUSH32 0x8C379A000000000000000000000000000000000000000000000000000000000 DUP2 MSTORE PUSH1 0x4 ADD PUSH2 0x143E SWAP1 PUSH2 0x245F JUMP JUMPDEST PUSH1 0x40 MLOAD DUP1 SWAP2 SUB SWAP1 REVERT JUMPDEST DUP1 PUSH1 0x1 PUSH1 0x0 PUSH2 0x100 EXP DUP2 SLOAD DUP2 PUSH20 0xFFFFFFFFFFFFFFFFFFFFFFFFFFFFFFFFFFFFFFFF MUL NOT AND SWAP1 DUP4 PUSH20 0xFFFFFFFFFFFFFFFFFFFFFFFFFFFFFFFFFFFFFFFF AND MUL OR SWAP1 SSTORE POP DUP1 PUSH20 0xFFFFFFFFFFFFFFFFFFFFFFFFFFFFFFFFFFFFFFFF AND PUSH1 0x0 DUP1 SLOAD SWAP1 PUSH2 0x100 EXP SWAP1 DIV PUSH20 0xFFFFFFFFFFFFFFFFFFFFFFFFFFFFFFFFFFFFFFFF AND PUSH20 0xFFFFFFFFFFFFFFFFFFFFFFFFFFFFFFFFFFFFFFFF AND PUSH32 0xED8889F560326EB138920D842192F0EB3DD22B4F139C87A2C57538E05BAE1278 PUSH1 0x40 MLOAD PUSH1 0x40 MLOAD DUP1 SWAP2 SUB SWAP1 LOG3 POP JUMP JUMPDEST PUSH1 0x0 PUSH32 0x0 PUSH20 0xFFFFFFFFFFFFFFFFFFFFFFFFFFFFFFFFFFFFFFFF AND PUSH4 0x4000AEA0 PUSH32 0x0 PUSH32 0x0 PUSH20 0xFFFFFFFFFFFFFFFFFFFFFFFFFFFFFFFFFFFFFFFF AND PUSH4 0x4306D354 DUP9 PUSH1 0x40 MLOAD DUP3 PUSH4 0xFFFFFFFF AND PUSH1 0xE0 SHL DUP2 MSTORE PUSH1 0x4 ADD PUSH2 0x15BD SWAP2 SWAP1 PUSH2 0x23F8 JUMP JUMPDEST PUSH1 0x20 PUSH1 0x40 MLOAD DUP1 DUP4 SUB DUP2 DUP7 GAS STATICCALL ISZERO DUP1 ISZERO PUSH2 0x15DA JUMPI RETURNDATASIZE PUSH1 0x0 DUP1 RETURNDATACOPY RETURNDATASIZE PUSH1 0x0 REVERT JUMPDEST POP POP POP POP PUSH1 0x40 MLOAD RETURNDATASIZE PUSH1 0x1F NOT PUSH1 0x1F DUP3 ADD AND DUP3 ADD DUP1 PUSH1 0x40 MSTORE POP DUP2 ADD SWAP1 PUSH2 0x15FE SWAP2 SWAP1 PUSH2 0x1FFE JUMP JUMPDEST DUP8 DUP8 DUP8 PUSH1 0x40 MLOAD PUSH1 0x20 ADD PUSH2 0x1613 SWAP4 SWAP3 SWAP2 SWAP1 PUSH2 0x249C JUMP JUMPDEST PUSH1 0x40 MLOAD PUSH1 0x20 DUP2 DUP4 SUB SUB DUP2 MSTORE SWAP1 PUSH1 0x40 MSTORE PUSH1 0x40 MLOAD DUP5 PUSH4 0xFFFFFFFF AND PUSH1 0xE0 SHL DUP2 MSTORE PUSH1 0x4 ADD PUSH2 0x1640 SWAP4 SWAP3 SWAP2 SWAP1 PUSH2 0x2552 JUMP JUMPDEST PUSH1 0x20 PUSH1 0x40 MLOAD DUP1 DUP4 SUB DUP2 PUSH1 0x0 DUP8 GAS CALL ISZERO DUP1 ISZERO PUSH2 0x165F JUMPI RETURNDATASIZE PUSH1 0x0 DUP1 RETURNDATACOPY RETURNDATASIZE PUSH1 0x0 REVERT JUMPDEST POP POP POP POP PUSH1 0x40 MLOAD RETURNDATASIZE PUSH1 0x1F NOT PUSH1 0x1F DUP3 ADD AND DUP3 ADD DUP1 PUSH1 0x40 MSTORE POP DUP2 ADD SWAP1 PUSH2 0x1683 SWAP2 SWAP1 PUSH2 0x208C JUMP JUMPDEST POP PUSH32 0x0 PUSH20 0xFFFFFFFFFFFFFFFFFFFFFFFFFFFFFFFFFFFFFFFF AND PUSH4 0xFC2A88C3 PUSH1 0x40 MLOAD DUP2 PUSH4 0xFFFFFFFF AND PUSH1 0xE0 SHL DUP2 MSTORE PUSH1 0x4 ADD PUSH1 0x20 PUSH1 0x40 MLOAD DUP1 DUP4 SUB DUP2 DUP7 GAS STATICCALL ISZERO DUP1 ISZERO PUSH2 0x16EF JUMPI RETURNDATASIZE PUSH1 0x0 DUP1 RETURNDATACOPY RETURNDATASIZE PUSH1 0x0 REVERT JUMPDEST POP POP POP POP PUSH1 0x40 MLOAD RETURNDATASIZE PUSH1 0x1F NOT PUSH1 0x1F DUP3 ADD AND DUP3 ADD DUP1 PUSH1 0x40 MSTORE POP DUP2 ADD SWAP1 PUSH2 0x1713 SWAP2 SWAP1 PUSH2 0x1FFE JUMP JUMPDEST SWAP1 POP SWAP4 SWAP3 POP POP POP JUMP JUMPDEST DUP3 DUP1 SLOAD DUP3 DUP3 SSTORE SWAP1 PUSH1 0x0 MSTORE PUSH1 0x20 PUSH1 0x0 KECCAK256 SWAP1 DUP2 ADD SWAP3 DUP3 ISZERO PUSH2 0x1758 JUMPI SWAP2 PUSH1 0x20 MUL DUP3 ADD JUMPDEST DUP3 DUP2 GT ISZERO PUSH2 0x1757 JUMPI DUP3 MLOAD DUP3 SSTORE SWAP2 PUSH1 0x20 ADD SWAP2 SWAP1 PUSH1 0x1 ADD SWAP1 PUSH2 0x173C JUMP JUMPDEST JUMPDEST POP SWAP1 POP PUSH2 0x1765 SWAP2 SWAP1 PUSH2 0x1769 JUMP JUMPDEST POP SWAP1 JUMP JUMPDEST JUMPDEST DUP1 DUP3 GT ISZERO PUSH2 0x1782 JUMPI PUSH1 0x0 DUP2 PUSH1 0x0 SWAP1 SSTORE POP PUSH1 0x1 ADD PUSH2 0x176A JUMP JUMPDEST POP SWAP1 JUMP JUMPDEST PUSH1 0x0 PUSH1 0x40 MLOAD SWAP1 POP SWAP1 JUMP JUMPDEST PUSH1 0x0 DUP1 REVERT JUMPDEST PUSH1 0x0 DUP1 REVERT JUMPDEST PUSH1 0x0 DUP2 SWAP1 POP SWAP2 SWAP1 POP JUMP JUMPDEST PUSH2 0x17AD DUP2 PUSH2 0x179A JUMP JUMPDEST DUP2 EQ PUSH2 0x17B8 JUMPI PUSH1 0x0 DUP1 REVERT JUMPDEST POP JUMP JUMPDEST PUSH1 0x0 DUP2 CALLDATALOAD SWAP1 POP PUSH2 0x17CA DUP2 PUSH2 0x17A4 JUMP JUMPDEST SWAP3 SWAP2 POP POP JUMP JUMPDEST PUSH1 0x0 PUSH1 0x20 DUP3 DUP5 SUB SLT ISZERO PUSH2 0x17E6 JUMPI PUSH2 0x17E5 PUSH2 0x1790 JUMP JUMPDEST JUMPDEST PUSH1 0x0 PUSH2 0x17F4 DUP5 DUP3 DUP6 ADD PUSH2 0x17BB JUMP JUMPDEST SWAP2 POP POP SWAP3 SWAP2 POP POP JUMP JUMPDEST PUSH1 0x0 PUSH20 0xFFFFFFFFFFFFFFFFFFFFFFFFFFFFFFFFFFFFFFFF DUP3 AND SWAP1 POP SWAP2 SWAP1 POP JUMP JUMPDEST PUSH1 0x0 PUSH2 0x1828 DUP3 PUSH2 0x17FD JUMP JUMPDEST SWAP1 POP SWAP2 SWAP1 POP JUMP JUMPDEST PUSH2 0x1838 DUP2 PUSH2 0x181D JUMP JUMPDEST DUP3 MSTORE POP POP JUMP JUMPDEST PUSH1 0x0 PUSH1 0x20 DUP3 ADD SWAP1 POP PUSH2 0x1853 PUSH1 0x0 DUP4 ADD DUP5 PUSH2 0x182F JUMP JUMPDEST SWAP3 SWAP2 POP POP JUMP JUMPDEST PUSH1 0x0 DUP1 REVERT JUMPDEST PUSH1 0x0 PUSH1 0x1F NOT PUSH1 0x1F DUP4 ADD AND SWAP1 POP SWAP2 SWAP1 POP JUMP JUMPDEST PUSH32 0x4E487B7100000000000000000000000000000000000000000000000000000000 PUSH1 0x0 MSTORE PUSH1 0x41 PUSH1 0x4 MSTORE PUSH1 0x24 PUSH1 0x0 REVERT JUMPDEST PUSH2 0x18A7 DUP3 PUSH2 0x185E JUMP JUMPDEST DUP2 ADD DUP2 DUP2 LT PUSH8 0xFFFFFFFFFFFFFFFF DUP3 GT OR ISZERO PUSH2 0x18C6 JUMPI PUSH2 0x18C5 PUSH2 0x186F JUMP JUMPDEST JUMPDEST DUP1 PUSH1 0x40 MSTORE POP POP POP JUMP JUMPDEST PUSH1 0x0 PUSH2 0x18D9 PUSH2 0x1786 JUMP JUMPDEST SWAP1 POP PUSH2 0x18E5 DUP3 DUP3 PUSH2 0x189E JUMP JUMPDEST SWAP2 SWAP1 POP JUMP JUMPDEST PUSH1 0x0 PUSH8 0xFFFFFFFFFFFFFFFF DUP3 GT ISZERO PUSH2 0x1905 JUMPI PUSH2 0x1904 PUSH2 0x186F JUMP JUMPDEST JUMPDEST PUSH1 0x20 DUP3 MUL SWAP1 POP PUSH1 0x20 DUP2 ADD SWAP1 POP SWAP2 SWAP1 POP JUMP JUMPDEST PUSH1 0x0 DUP1 REVERT JUMPDEST PUSH1 0x0 PUSH2 0x192E PUSH2 0x1929 DUP5 PUSH2 0x18EA JUMP JUMPDEST PUSH2 0x18CF JUMP JUMPDEST SWAP1 POP DUP1 DUP4 DUP3 MSTORE PUSH1 0x20 DUP3 ADD SWAP1 POP PUSH1 0x20 DUP5 MUL DUP4 ADD DUP6 DUP2 GT ISZERO PUSH2 0x1951 JUMPI PUSH2 0x1950 PUSH2 0x1916 JUMP JUMPDEST JUMPDEST DUP4 JUMPDEST DUP2 DUP2 LT ISZERO PUSH2 0x197A JUMPI DUP1 PUSH2 0x1966 DUP9 DUP3 PUSH2 0x17BB JUMP JUMPDEST DUP5 MSTORE PUSH1 0x20 DUP5 ADD SWAP4 POP POP PUSH1 0x20 DUP2 ADD SWAP1 POP PUSH2 0x1953 JUMP JUMPDEST POP POP POP SWAP4 SWAP3 POP POP POP JUMP JUMPDEST PUSH1 0x0 DUP3 PUSH1 0x1F DUP4 ADD SLT PUSH2 0x1999 JUMPI PUSH2 0x1998 PUSH2 0x1859 JUMP JUMPDEST JUMPDEST DUP2 CALLDATALOAD PUSH2 0x19A9 DUP5 DUP3 PUSH1 0x20 DUP7 ADD PUSH2 0x191B JUMP JUMPDEST SWAP2 POP POP SWAP3 SWAP2 POP POP JUMP JUMPDEST PUSH1 0x0 DUP1 PUSH1 0x40 DUP4 DUP6 SUB SLT ISZERO PUSH2 0x19C9 JUMPI PUSH2 0x19C8 PUSH2 0x1790 JUMP JUMPDEST JUMPDEST PUSH1 0x0 PUSH2 0x19D7 DUP6 DUP3 DUP7 ADD PUSH2 0x17BB JUMP JUMPDEST SWAP3 POP POP PUSH1 0x20 DUP4 ADD CALLDATALOAD PUSH8 0xFFFFFFFFFFFFFFFF DUP2 GT ISZERO PUSH2 0x19F8 JUMPI PUSH2 0x19F7 PUSH2 0x1795 JUMP JUMPDEST JUMPDEST PUSH2 0x1A04 DUP6 DUP3 DUP7 ADD PUSH2 0x1984 JUMP JUMPDEST SWAP2 POP POP SWAP3 POP SWAP3 SWAP1 POP JUMP JUMPDEST PUSH2 0x1A17 DUP2 PUSH2 0x179A JUMP JUMPDEST DUP3 MSTORE POP POP JUMP JUMPDEST PUSH1 0x0 PUSH1 0x20 DUP3 ADD SWAP1 POP PUSH2 0x1A32 PUSH1 0x0 DUP4 ADD DUP5 PUSH2 0x1A0E JUMP JUMPDEST SWAP3 SWAP2 POP POP JUMP JUMPDEST PUSH2 0x1A41 DUP2 PUSH2 0x181D JUMP JUMPDEST DUP2 EQ PUSH2 0x1A4C JUMPI PUSH1 0x0 DUP1 REVERT JUMPDEST POP JUMP JUMPDEST PUSH1 0x0 DUP2 CALLDATALOAD SWAP1 POP PUSH2 0x1A5E DUP2 PUSH2 0x1A38 JUMP JUMPDEST SWAP3 SWAP2 POP POP JUMP JUMPDEST PUSH1 0x0 PUSH1 0x20 DUP3 DUP5 SUB SLT ISZERO PUSH2 0x1A7A JUMPI PUSH2 0x1A79 PUSH2 0x1790 JUMP JUMPDEST JUMPDEST PUSH1 0x0 PUSH2 0x1A88 DUP5 DUP3 DUP6 ADD PUSH2 0x1A4F JUMP JUMPDEST SWAP2 POP POP SWAP3 SWAP2 POP POP JUMP JUMPDEST PUSH1 0x0 DUP3 DUP3 MSTORE PUSH1 0x20 DUP3 ADD SWAP1 POP SWAP3 SWAP2 POP POP JUMP JUMPDEST PUSH32 0x726F756E64206D7573742062652067726561746572207468616E203000000000 PUSH1 0x0 DUP3 ADD MSTORE POP JUMP JUMPDEST PUSH1 0x0 PUSH2 0x1AD8 PUSH1 0x1C DUP4 PUSH2 0x1A91 JUMP JUMPDEST SWAP2 POP PUSH2 0x1AE3 DUP3 PUSH2 0x1AA2 JUMP JUMPDEST PUSH1 0x20 DUP3 ADD SWAP1 POP SWAP2 SWAP1 POP JUMP JUMPDEST PUSH1 0x0 PUSH1 0x20 DUP3 ADD SWAP1 POP DUP2 DUP2 SUB PUSH1 0x0 DUP4 ADD MSTORE PUSH2 0x1B07 DUP2 PUSH2 0x1ACB JUMP JUMPDEST SWAP1 POP SWAP2 SWAP1 POP JUMP JUMPDEST PUSH32 0x726F756E64206D757374206265206C657373207468616E207468652063757272 PUSH1 0x0 DUP3 ADD MSTORE PUSH32 0x656E7420726F756E640000000000000000000000000000000000000000000000 PUSH1 0x20 DUP3 ADD MSTORE POP JUMP JUMPDEST PUSH1 0x0 PUSH2 0x1B6A PUSH1 0x29 DUP4 PUSH2 0x1A91 JUMP JUMPDEST SWAP2 POP PUSH2 0x1B75 DUP3 PUSH2 0x1B0E JUMP JUMPDEST PUSH1 0x40 DUP3 ADD SWAP1 POP SWAP2 SWAP1 POP JUMP JUMPDEST PUSH1 0x0 PUSH1 0x20 DUP3 ADD SWAP1 POP DUP2 DUP2 SUB PUSH1 0x0 DUP4 ADD MSTORE PUSH2 0x1B99 DUP2 PUSH2 0x1B5D JUMP JUMPDEST SWAP1 POP SWAP2 SWAP1 POP JUMP JUMPDEST PUSH32 0x4E487B7100000000000000000000000000000000000000000000000000000000 PUSH1 0x0 MSTORE PUSH1 0x32 PUSH1 0x4 MSTORE PUSH1 0x24 PUSH1 0x0 REVERT JUMPDEST PUSH32 0x4E487B7100000000000000000000000000000000000000000000000000000000 PUSH1 0x0 MSTORE PUSH1 0x12 PUSH1 0x4 MSTORE PUSH1 0x24 PUSH1 0x0 REVERT JUMPDEST PUSH1 0x0 PUSH2 0x1C09 DUP3 PUSH2 0x179A JUMP JUMPDEST SWAP2 POP PUSH2 0x1C14 DUP4 PUSH2 0x179A JUMP JUMPDEST SWAP3 POP DUP3 PUSH2 0x1C24 JUMPI PUSH2 0x1C23 PUSH2 0x1BCF JUMP JUMPDEST JUMPDEST DUP3 DUP3 MOD SWAP1 POP SWAP3 SWAP2 POP POP JUMP JUMPDEST PUSH32 0x6F6E6C792056524620563220777261707065722063616E2066756C66696C6C00 PUSH1 0x0 DUP3 ADD MSTORE POP JUMP JUMPDEST PUSH1 0x0 PUSH2 0x1C65 PUSH1 0x1F DUP4 PUSH2 0x1A91 JUMP JUMPDEST SWAP2 POP PUSH2 0x1C70 DUP3 PUSH2 0x1C2F JUMP JUMPDEST PUSH1 0x20 DUP3 ADD SWAP1 POP SWAP2 SWAP1 POP JUMP JUMPDEST PUSH1 0x0 PUSH1 0x20 DUP3 ADD SWAP1 POP DUP2 DUP2 SUB PUSH1 0x0 DUP4 ADD MSTORE PUSH2 0x1C94 DUP2 PUSH2 0x1C58 JUMP JUMPDEST SWAP1 POP SWAP2 SWAP1 POP JUMP JUMPDEST PUSH32 0x57696E6E6572206973206E6F7420796574206465636964656420666F72207468 PUSH1 0x0 DUP3 ADD MSTORE PUSH32 0x6520647261770000000000000000000000000000000000000000000000000000 PUSH1 0x20 DUP3 ADD MSTORE POP JUMP JUMPDEST PUSH1 0x0 PUSH2 0x1CF7 PUSH1 0x26 DUP4 PUSH2 0x1A91 JUMP JUMPDEST SWAP2 POP PUSH2 0x1D02 DUP3 PUSH2 0x1C9B JUMP JUMPDEST PUSH1 0x40 DUP3 ADD SWAP1 POP SWAP2 SWAP1 POP JUMP JUMPDEST PUSH1 0x0 PUSH1 0x20 DUP3 ADD SWAP1 POP DUP2 DUP2 SUB PUSH1 0x0 DUP4 ADD MSTORE PUSH2 0x1D26 DUP2 PUSH2 0x1CEA JUMP JUMPDEST SWAP1 POP SWAP2 SWAP1 POP JUMP JUMPDEST PUSH32 0x596F7520617265206E6F74207468652077696E6E657200000000000000000000 PUSH1 0x0 DUP3 ADD MSTORE POP JUMP JUMPDEST PUSH1 0x0 PUSH2 0x1D63 PUSH1 0x16 DUP4 PUSH2 0x1A91 JUMP JUMPDEST SWAP2 POP PUSH2 0x1D6E DUP3 PUSH2 0x1D2D JUMP JUMPDEST PUSH1 0x20 DUP3 ADD SWAP1 POP SWAP2 SWAP1 POP JUMP JUMPDEST PUSH1 0x0 PUSH1 0x20 DUP3 ADD SWAP1 POP DUP2 DUP2 SUB PUSH1 0x0 DUP4 ADD MSTORE PUSH2 0x1D92 DUP2 PUSH2 0x1D56 JUMP JUMPDEST SWAP1 POP SWAP2 SWAP1 POP JUMP JUMPDEST PUSH32 0x4E487B7100000000000000000000000000000000000000000000000000000000 PUSH1 0x0 MSTORE PUSH1 0x11 PUSH1 0x4 MSTORE PUSH1 0x24 PUSH1 0x0 REVERT JUMPDEST PUSH1 0x0 PUSH2 0x1DD3 DUP3 PUSH2 0x179A JUMP JUMPDEST SWAP2 POP PUSH2 0x1DDE DUP4 PUSH2 0x179A JUMP JUMPDEST SWAP3 POP DUP3 DUP3 ADD SWAP1 POP DUP1 DUP3 GT ISZERO PUSH2 0x1DF6 JUMPI PUSH2 0x1DF5 PUSH2 0x1D99 JUMP JUMPDEST JUMPDEST SWAP3 SWAP2 POP POP JUMP JUMPDEST PUSH1 0x0 PUSH2 0x1E07 DUP3 PUSH2 0x179A JUMP JUMPDEST SWAP2 POP PUSH32 0xFFFFFFFFFFFFFFFFFFFFFFFFFFFFFFFFFFFFFFFFFFFFFFFFFFFFFFFFFFFFFFFF DUP3 SUB PUSH2 0x1E39 JUMPI PUSH2 0x1E38 PUSH2 0x1D99 JUMP JUMPDEST JUMPDEST PUSH1 0x1 DUP3 ADD SWAP1 POP SWAP2 SWAP1 POP JUMP JUMPDEST PUSH1 0x0 PUSH2 0x1E4F DUP3 PUSH2 0x179A JUMP JUMPDEST SWAP2 POP PUSH2 0x1E5A DUP4 PUSH2 0x179A JUMP JUMPDEST SWAP3 POP DUP3 DUP3 MUL PUSH2 0x1E68 DUP2 PUSH2 0x179A JUMP JUMPDEST SWAP2 POP DUP3 DUP3 DIV DUP5 EQ DUP4 ISZERO OR PUSH2 0x1E7F JUMPI PUSH2 0x1E7E PUSH2 0x1D99 JUMP JUMPDEST JUMPDEST POP SWAP3 SWAP2 POP POP JUMP JUMPDEST PUSH1 0x0 PUSH2 0x1E91 DUP3 PUSH2 0x179A JUMP JUMPDEST SWAP2 POP PUSH2 0x1E9C DUP4 PUSH2 0x179A JUMP JUMPDEST SWAP3 POP DUP3 PUSH2 0x1EAC JUMPI PUSH2 0x1EAB PUSH2 0x1BCF JUMP JUMPDEST JUMPDEST DUP3 DUP3 DIV SWAP1 POP SWAP3 SWAP2 POP POP JUMP JUMPDEST PUSH1 0x0 PUSH2 0x1EC2 DUP3 PUSH2 0x179A JUMP JUMPDEST SWAP2 POP PUSH2 0x1ECD DUP4 PUSH2 0x179A JUMP JUMPDEST SWAP3 POP DUP3 DUP3 SUB SWAP1 POP DUP2 DUP2 GT ISZERO PUSH2 0x1EE5 JUMPI PUSH2 0x1EE4 PUSH2 0x1D99 JUMP JUMPDEST JUMPDEST SWAP3 SWAP2 POP POP JUMP JUMPDEST PUSH32 0x4E756D626572206F66206D656D62657273206D7573742062652035206265666F PUSH1 0x0 DUP3 ADD MSTORE PUSH32 0x726520647261772063616E20626520706572666F726D65640000000000000000 PUSH1 0x20 DUP3 ADD MSTORE POP JUMP JUMPDEST PUSH1 0x0 PUSH2 0x1F47 PUSH1 0x38 DUP4 PUSH2 0x1A91 JUMP JUMPDEST SWAP2 POP PUSH2 0x1F52 DUP3 PUSH2 0x1EEB JUMP JUMPDEST PUSH1 0x40 DUP3 ADD SWAP1 POP SWAP2 SWAP1 POP JUMP JUMPDEST PUSH1 0x0 PUSH1 0x20 DUP3 ADD SWAP1 POP DUP2 DUP2 SUB PUSH1 0x0 DUP4 ADD MSTORE PUSH2 0x1F76 DUP2 PUSH2 0x1F3A JUMP JUMPDEST SWAP1 POP SWAP2 SWAP1 POP JUMP JUMPDEST PUSH32 0x4D7573742062652070726F706F736564206F776E657200000000000000000000 PUSH1 0x0 DUP3 ADD MSTORE POP JUMP JUMPDEST PUSH1 0x0 PUSH2 0x1FB3 PUSH1 0x16 DUP4 PUSH2 0x1A91 JUMP JUMPDEST SWAP2 POP PUSH2 0x1FBE DUP3 PUSH2 0x1F7D JUMP JUMPDEST PUSH1 0x20 DUP3 ADD SWAP1 POP SWAP2 SWAP1 POP JUMP JUMPDEST PUSH1 0x0 PUSH1 0x20 DUP3 ADD SWAP1 POP DUP2 DUP2 SUB PUSH1 0x0 DUP4 ADD MSTORE PUSH2 0x1FE2 DUP2 PUSH2 0x1FA6 JUMP JUMPDEST SWAP1 POP SWAP2 SWAP1 POP JUMP JUMPDEST PUSH1 0x0 DUP2 MLOAD SWAP1 POP PUSH2 0x1FF8 DUP2 PUSH2 0x17A4 JUMP JUMPDEST SWAP3 SWAP2 POP POP JUMP JUMPDEST PUSH1 0x0 PUSH1 0x20 DUP3 DUP5 SUB SLT ISZERO PUSH2 0x2014 JUMPI PUSH2 0x2013 PUSH2 0x1790 JUMP JUMPDEST JUMPDEST PUSH1 0x0 PUSH2 0x2022 DUP5 DUP3 DUP6 ADD PUSH2 0x1FE9 JUMP JUMPDEST SWAP2 POP POP SWAP3 SWAP2 POP POP JUMP JUMPDEST PUSH1 0x0 PUSH1 0x40 DUP3 ADD SWAP1 POP PUSH2 0x2040 PUSH1 0x0 DUP4 ADD DUP6 PUSH2 0x182F JUMP JUMPDEST PUSH2 0x204D PUSH1 0x20 DUP4 ADD DUP5 PUSH2 0x1A0E JUMP JUMPDEST SWAP4 SWAP3 POP POP POP JUMP JUMPDEST PUSH1 0x0 DUP2 ISZERO ISZERO SWAP1 POP SWAP2 SWAP1 POP JUMP JUMPDEST PUSH2 0x2069 DUP2 PUSH2 0x2054 JUMP JUMPDEST DUP2 EQ PUSH2 0x2074 JUMPI PUSH1 0x0 DUP1 REVERT JUMPDEST POP JUMP JUMPDEST PUSH1 0x0 DUP2 MLOAD SWAP1 POP PUSH2 0x2086 DUP2 PUSH2 0x2060 JUMP JUMPDEST SWAP3 SWAP2 POP POP JUMP JUMPDEST PUSH1 0x0 PUSH1 0x20 DUP3 DUP5 SUB SLT ISZERO PUSH2 0x20A2 JUMPI PUSH2 0x20A1 PUSH2 0x1790 JUMP JUMPDEST JUMPDEST PUSH1 0x0 PUSH2 0x20B0 DUP5 DUP3 DUP6 ADD PUSH2 0x2077 JUMP JUMPDEST SWAP2 POP POP SWAP3 SWAP2 POP POP JUMP JUMPDEST PUSH32 0x556E61626C6520746F207472616E736665720000000000000000000000000000 PUSH1 0x0 DUP3 ADD MSTORE POP JUMP JUMPDEST PUSH1 0x0 PUSH2 0x20EF PUSH1 0x12 DUP4 PUSH2 0x1A91 JUMP JUMPDEST SWAP2 POP PUSH2 0x20FA DUP3 PUSH2 0x20B9 JUMP JUMPDEST PUSH1 0x20 DUP3 ADD SWAP1 POP SWAP2 SWAP1 POP JUMP JUMPDEST PUSH1 0x0 PUSH1 0x20 DUP3 ADD SWAP1 POP DUP2 DUP2 SUB PUSH1 0x0 DUP4 ADD MSTORE PUSH2 0x211E DUP2 PUSH2 0x20E2 JUMP JUMPDEST SWAP1 POP SWAP2 SWAP1 POP JUMP JUMPDEST PUSH32 0x4E756D626572206F66206D656D626572732061726520616C726561647920352E PUSH1 0x0 DUP3 ADD MSTORE PUSH32 0x20506C656173652074727920746F206A6F696E20696E206E65787420726F756E PUSH1 0x20 DUP3 ADD MSTORE PUSH32 0x6400000000000000000000000000000000000000000000000000000000000000 PUSH1 0x40 DUP3 ADD MSTORE POP JUMP JUMPDEST PUSH1 0x0 PUSH2 0x21A7 PUSH1 0x41 DUP4 PUSH2 0x1A91 JUMP JUMPDEST SWAP2 POP PUSH2 0x21B2 DUP3 PUSH2 0x2125 JUMP JUMPDEST PUSH1 0x60 DUP3 ADD SWAP1 POP SWAP2 SWAP1 POP JUMP JUMPDEST PUSH1 0x0 PUSH1 0x20 DUP3 ADD SWAP1 POP DUP2 DUP2 SUB PUSH1 0x0 DUP4 ADD MSTORE PUSH2 0x21D6 DUP2 PUSH2 0x219A JUMP JUMPDEST SWAP1 POP SWAP2 SWAP1 POP JUMP JUMPDEST PUSH32 0x596F75206861766520616C7265616479207265676973746572656420666F7220 PUSH1 0x0 DUP3 ADD MSTORE PUSH32 0x7468697320726F756E6400000000000000000000000000000000000000000000 PUSH1 0x20 DUP3 ADD MSTORE POP JUMP JUMPDEST PUSH1 0x0 PUSH2 0x2239 PUSH1 0x2A DUP4 PUSH2 0x1A91 JUMP JUMPDEST SWAP2 POP PUSH2 0x2244 DUP3 PUSH2 0x21DD JUMP JUMPDEST PUSH1 0x40 DUP3 ADD SWAP1 POP SWAP2 SWAP1 POP JUMP JUMPDEST PUSH1 0x0 PUSH1 0x20 DUP3 ADD SWAP1 POP DUP2 DUP2 SUB PUSH1 0x0 DUP4 ADD MSTORE PUSH2 0x2268 DUP2 PUSH2 0x222C JUMP JUMPDEST SWAP1 POP SWAP2 SWAP1 POP JUMP JUMPDEST PUSH32 0x596F75206D75737420696E76657374206174206C6561737420302E3030312045 PUSH1 0x0 DUP3 ADD MSTORE PUSH32 0x544820696E20746865206C6F747465727920726F756E64000000000000000000 PUSH1 0x20 DUP3 ADD MSTORE POP JUMP JUMPDEST PUSH1 0x0 PUSH2 0x22CB PUSH1 0x37 DUP4 PUSH2 0x1A91 JUMP JUMPDEST SWAP2 POP PUSH2 0x22D6 DUP3 PUSH2 0x226F JUMP JUMPDEST PUSH1 0x40 DUP3 ADD SWAP1 POP SWAP2 SWAP1 POP JUMP JUMPDEST PUSH1 0x0 PUSH1 0x20 DUP3 ADD SWAP1 POP DUP2 DUP2 SUB PUSH1 0x0 DUP4 ADD MSTORE PUSH2 0x22FA DUP2 PUSH2 0x22BE JUMP JUMPDEST SWAP1 POP SWAP2 SWAP1 POP JUMP JUMPDEST PUSH32 0x72657175657374206E6F7420666F756E64000000000000000000000000000000 PUSH1 0x0 DUP3 ADD MSTORE POP JUMP JUMPDEST PUSH1 0x0 PUSH2 0x2337 PUSH1 0x11 DUP4 PUSH2 0x1A91 JUMP JUMPDEST SWAP2 POP PUSH2 0x2342 DUP3 PUSH2 0x2301 JUMP JUMPDEST PUSH1 0x20 DUP3 ADD SWAP1 POP SWAP2 SWAP1 POP JUMP JUMPDEST PUSH1 0x0 PUSH1 0x20 DUP3 ADD SWAP1 POP DUP2 DUP2 SUB PUSH1 0x0 DUP4 ADD MSTORE PUSH2 0x2366 DUP2 PUSH2 0x232A JUMP JUMPDEST SWAP1 POP SWAP2 SWAP1 POP JUMP JUMPDEST PUSH32 0x4F6E6C792063616C6C61626C65206279206F776E657200000000000000000000 PUSH1 0x0 DUP3 ADD MSTORE POP JUMP JUMPDEST PUSH1 0x0 PUSH2 0x23A3 PUSH1 0x16 DUP4 PUSH2 0x1A91 JUMP JUMPDEST SWAP2 POP PUSH2 0x23AE DUP3 PUSH2 0x236D JUMP JUMPDEST PUSH1 0x20 DUP3 ADD SWAP1 POP SWAP2 SWAP1 POP JUMP JUMPDEST PUSH1 0x0 PUSH1 0x20 DUP3 ADD SWAP1 POP DUP2 DUP2 SUB PUSH1 0x0 DUP4 ADD MSTORE PUSH2 0x23D2 DUP2 PUSH2 0x2396 JUMP JUMPDEST SWAP1 POP SWAP2 SWAP1 POP JUMP JUMPDEST PUSH1 0x0 PUSH4 0xFFFFFFFF DUP3 AND SWAP1 POP SWAP2 SWAP1 POP JUMP JUMPDEST PUSH2 0x23F2 DUP2 PUSH2 0x23D9 JUMP JUMPDEST DUP3 MSTORE POP POP JUMP JUMPDEST PUSH1 0x0 PUSH1 0x20 DUP3 ADD SWAP1 POP PUSH2 0x240D PUSH1 0x0 DUP4 ADD DUP5 PUSH2 0x23E9 JUMP JUMPDEST SWAP3 SWAP2 POP POP JUMP JUMPDEST PUSH32 0x43616E6E6F74207472616E7366657220746F2073656C66000000000000000000 PUSH1 0x0 DUP3 ADD MSTORE POP JUMP JUMPDEST PUSH1 0x0 PUSH2 0x2449 PUSH1 0x17 DUP4 PUSH2 0x1A91 JUMP JUMPDEST SWAP2 POP PUSH2 0x2454 DUP3 PUSH2 0x2413 JUMP JUMPDEST PUSH1 0x20 DUP3 ADD SWAP1 POP SWAP2 SWAP1 POP JUMP JUMPDEST PUSH1 0x0 PUSH1 0x20 DUP3 ADD SWAP1 POP DUP2 DUP2 SUB PUSH1 0x0 DUP4 ADD MSTORE PUSH2 0x2478 DUP2 PUSH2 0x243C JUMP JUMPDEST SWAP1 POP SWAP2 SWAP1 POP JUMP JUMPDEST PUSH1 0x0 PUSH2 0xFFFF DUP3 AND SWAP1 POP SWAP2 SWAP1 POP JUMP JUMPDEST PUSH2 0x2496 DUP2 PUSH2 0x247F JUMP JUMPDEST DUP3 MSTORE POP POP JUMP JUMPDEST PUSH1 0x0 PUSH1 0x60 DUP3 ADD SWAP1 POP PUSH2 0x24B1 PUSH1 0x0 DUP4 ADD DUP7 PUSH2 0x23E9 JUMP JUMPDEST PUSH2 0x24BE PUSH1 0x20 DUP4 ADD DUP6 PUSH2 0x248D JUMP JUMPDEST PUSH2 0x24CB PUSH1 0x40 DUP4 ADD DUP5 PUSH2 0x23E9 JUMP JUMPDEST SWAP5 SWAP4 POP POP POP POP JUMP JUMPDEST PUSH1 0x0 DUP2 MLOAD SWAP1 POP SWAP2 SWAP1 POP JUMP JUMPDEST PUSH1 0x0 DUP3 DUP3 MSTORE PUSH1 0x20 DUP3 ADD SWAP1 POP SWAP3 SWAP2 POP POP JUMP JUMPDEST PUSH1 0x0 JUMPDEST DUP4 DUP2 LT ISZERO PUSH2 0x250D JUMPI DUP1 DUP3 ADD MLOAD DUP2 DUP5 ADD MSTORE PUSH1 0x20 DUP2 ADD SWAP1 POP PUSH2 0x24F2 JUMP JUMPDEST PUSH1 0x0 DUP5 DUP5 ADD MSTORE POP POP POP POP JUMP JUMPDEST PUSH1 0x0 PUSH2 0x2524 DUP3 PUSH2 0x24D3 JUMP JUMPDEST PUSH2 0x252E DUP2 DUP6 PUSH2 0x24DE JUMP JUMPDEST SWAP4 POP PUSH2 0x253E DUP2 DUP6 PUSH1 0x20 DUP7 ADD PUSH2 0x24EF JUMP JUMPDEST PUSH2 0x2547 DUP2 PUSH2 0x185E JUMP JUMPDEST DUP5 ADD SWAP2 POP POP SWAP3 SWAP2 POP POP JUMP JUMPDEST PUSH1 0x0 PUSH1 0x60 DUP3 ADD SWAP1 POP PUSH2 0x2567 PUSH1 0x0 DUP4 ADD DUP7 PUSH2 0x182F JUMP JUMPDEST PUSH2 0x2574 PUSH1 0x20 DUP4 ADD DUP6 PUSH2 0x1A0E JUMP JUMPDEST DUP2 DUP2 SUB PUSH1 0x40 DUP4 ADD MSTORE PUSH2 0x2586 DUP2 DUP5 PUSH2 0x2519 JUMP JUMPDEST SWAP1 POP SWAP5 SWAP4 POP POP POP POP JUMP INVALID LOG2 PUSH5 0x6970667358 0x22 SLT KECCAK256 DUP3 SWAP8 0x4B 0x4F RETURNDATACOPY SHR CALLDATACOPY PUSH4 0xA8DFE018 SWAP13 JUMP 0x29 0xE8 KECCAK256 0x4F PUSH28 0x757A7F065D0B17DFF6DB74EC864736F6C6343000812003300000000 "
				},
				"gasEstimates": {
					"creation": {
						"codeDepositCost": "1934000",
						"executionCost": "infinite",
						"totalCost": "infinite"
					},
					"external": {
						"acceptOwnership()": "54651",
						"checkWinner(uint256)": "infinite",
						"contractBalance()": "2685",
						"currentRound()": "2452",
						"join()": "infinite",
						"owner()": "2544",
						"performDraw()": "infinite",
						"rawFulfillRandomWords(uint256,uint256[])": "infinite",
						"redeemPrize(uint256)": "infinite",
						"roundsCompleted(uint256)": "infinite",
						"transferOwnership(address)": "30742",
						"withdraw()": "infinite",
						"withdrawLink()": "infinite"
					}
				},
				"methodIdentifiers": {
					"acceptOwnership()": "79ba5097",
					"checkWinner(uint256)": "18854939",
					"contractBalance()": "8b7afe2e",
					"currentRound()": "8a19c8bc",
					"join()": "b688a363",
					"owner()": "8da5cb5b",
					"performDraw()": "4cdb5d40",
					"rawFulfillRandomWords(uint256,uint256[])": "1fe543e3",
					"redeemPrize(uint256)": "289af10c",
					"roundsCompleted(uint256)": "8a82c3e9",
					"transferOwnership(address)": "f2fde38b",
					"withdraw()": "3ccfd60b",
					"withdrawLink()": "8dc654a2"
				}
			},
			"storageLayout": {
				"storage": [
					{
						"astId": 29,
						"contract": "contracts/LotteryFive.sol:LotteryFive",
						"label": "s_owner",
						"offset": 0,
						"slot": "0",
						"type": "t_address"
					},
					{
						"astId": 31,
						"contract": "contracts/LotteryFive.sol:LotteryFive",
						"label": "s_pendingOwner",
						"offset": 0,
						"slot": "1",
						"type": "t_address"
					},
					{
						"astId": 447,
						"contract": "contracts/LotteryFive.sol:LotteryFive",
						"label": "s_requests",
						"offset": 0,
						"slot": "2",
						"type": "t_mapping(t_uint256,t_struct(RequestStatus)442_storage)"
					},
					{
						"astId": 450,
						"contract": "contracts/LotteryFive.sol:LotteryFive",
						"label": "requestIds",
						"offset": 0,
						"slot": "3",
						"type": "t_array(t_uint256)dyn_storage"
					},
					{
						"astId": 452,
						"contract": "contracts/LotteryFive.sol:LotteryFive",
						"label": "lastRequestId",
						"offset": 0,
						"slot": "4",
						"type": "t_uint256"
					},
					{
						"astId": 455,
						"contract": "contracts/LotteryFive.sol:LotteryFive",
						"label": "callbackGasLimit",
						"offset": 0,
						"slot": "5",
						"type": "t_uint32"
					},
					{
						"astId": 458,
						"contract": "contracts/LotteryFive.sol:LotteryFive",
						"label": "requestConfirmations",
						"offset": 4,
						"slot": "5",
						"type": "t_uint16"
					},
					{
						"astId": 461,
						"contract": "contracts/LotteryFive.sol:LotteryFive",
						"label": "numWords",
						"offset": 6,
						"slot": "5",
						"type": "t_uint32"
					},
					{
						"astId": 464,
						"contract": "contracts/LotteryFive.sol:LotteryFive",
						"label": "linkAddress",
						"offset": 10,
						"slot": "5",
						"type": "t_address"
					},
					{
						"astId": 467,
						"contract": "contracts/LotteryFive.sol:LotteryFive",
						"label": "wrapperAddress",
						"offset": 0,
						"slot": "6",
						"type": "t_address"
					},
					{
						"astId": 606,
						"contract": "contracts/LotteryFive.sol:LotteryFive",
						"label": "roundsCompleted",
						"offset": 0,
						"slot": "7",
						"type": "t_array(t_uint256)dyn_storage"
					},
					{
						"astId": 608,
						"contract": "contracts/LotteryFive.sol:LotteryFive",
						"label": "currentRound",
						"offset": 0,
						"slot": "8",
						"type": "t_uint256"
					},
					{
						"astId": 612,
						"contract": "contracts/LotteryFive.sol:LotteryFive",
						"label": "draws",
						"offset": 0,
						"slot": "9",
						"type": "t_mapping(t_uint256,t_uint256)"
					},
					{
						"astId": 617,
						"contract": "contracts/LotteryFive.sol:LotteryFive",
						"label": "roundStates",
						"offset": 0,
						"slot": "10",
						"type": "t_mapping(t_uint256,t_struct(RoundState)603_storage)"
					}
				],
				"types": {
					"t_address": {
						"encoding": "inplace",
						"label": "address",
						"numberOfBytes": "20"
					},
					"t_array(t_struct(Member)596_storage)dyn_storage": {
						"base": "t_struct(Member)596_storage",
						"encoding": "dynamic_array",
						"label": "struct LotteryFive.Member[]",
						"numberOfBytes": "32"
					},
					"t_array(t_uint256)dyn_storage": {
						"base": "t_uint256",
						"encoding": "dynamic_array",
						"label": "uint256[]",
						"numberOfBytes": "32"
					},
					"t_bool": {
						"encoding": "inplace",
						"label": "bool",
						"numberOfBytes": "1"
					},
					"t_mapping(t_uint256,t_struct(RequestStatus)442_storage)": {
						"encoding": "mapping",
						"key": "t_uint256",
						"label": "mapping(uint256 => struct VRF.RequestStatus)",
						"numberOfBytes": "32",
						"value": "t_struct(RequestStatus)442_storage"
					},
					"t_mapping(t_uint256,t_struct(RoundState)603_storage)": {
						"encoding": "mapping",
						"key": "t_uint256",
						"label": "mapping(uint256 => struct LotteryFive.RoundState)",
						"numberOfBytes": "32",
						"value": "t_struct(RoundState)603_storage"
					},
					"t_mapping(t_uint256,t_uint256)": {
						"encoding": "mapping",
						"key": "t_uint256",
						"label": "mapping(uint256 => uint256)",
						"numberOfBytes": "32",
						"value": "t_uint256"
					},
					"t_struct(Member)596_storage": {
						"encoding": "inplace",
						"label": "struct LotteryFive.Member",
						"members": [
							{
								"astId": 593,
								"contract": "contracts/LotteryFive.sol:LotteryFive",
								"label": "addr",
								"offset": 0,
								"slot": "0",
								"type": "t_address"
							},
							{
								"astId": 595,
								"contract": "contracts/LotteryFive.sol:LotteryFive",
								"label": "amount",
								"offset": 0,
								"slot": "1",
								"type": "t_uint256"
							}
						],
						"numberOfBytes": "64"
					},
					"t_struct(RequestStatus)442_storage": {
						"encoding": "inplace",
						"label": "struct VRF.RequestStatus",
						"members": [
							{
								"astId": 436,
								"contract": "contracts/LotteryFive.sol:LotteryFive",
								"label": "paid",
								"offset": 0,
								"slot": "0",
								"type": "t_uint256"
							},
							{
								"astId": 438,
								"contract": "contracts/LotteryFive.sol:LotteryFive",
								"label": "fulfilled",
								"offset": 0,
								"slot": "1",
								"type": "t_bool"
							},
							{
								"astId": 441,
								"contract": "contracts/LotteryFive.sol:LotteryFive",
								"label": "randomWords",
								"offset": 0,
								"slot": "2",
								"type": "t_array(t_uint256)dyn_storage"
							}
						],
						"numberOfBytes": "96"
					},
					"t_struct(RoundState)603_storage": {
						"encoding": "inplace",
						"label": "struct LotteryFive.RoundState",
						"members": [
							{
								"astId": 600,
								"contract": "contracts/LotteryFive.sol:LotteryFive",
								"label": "members",
								"offset": 0,
								"slot": "0",
								"type": "t_array(t_struct(Member)596_storage)dyn_storage"
							},
							{
								"astId": 602,
								"contract": "contracts/LotteryFive.sol:LotteryFive",
								"label": "numMembers",
								"offset": 0,
								"slot": "1",
								"type": "t_uint256"
							}
						],
						"numberOfBytes": "64"
					},
					"t_uint16": {
						"encoding": "inplace",
						"label": "uint16",
						"numberOfBytes": "2"
					},
					"t_uint256": {
						"encoding": "inplace",
						"label": "uint256",
						"numberOfBytes": "32"
					},
					"t_uint32": {
						"encoding": "inplace",
						"label": "uint32",
						"numberOfBytes": "4"
					}
				}
			},
			"userdoc": {
				"kind": "user",
				"methods": {
					"acceptOwnership()": {
						"notice": "Allows an ownership transfer to be completed by the recipient."
					},
					"owner()": {
						"notice": "Get the current owner"
					},
					"transferOwnership(address)": {
						"notice": "Allows an owner to begin transferring ownership to a new address."
					},
					"withdrawLink()": {
						"notice": "Allow withdraw of Link tokens from the contract"
					}
				},
				"version": 1
			}
		}
	}
}